{
  "_format": "hh-sol-artifact-1",
  "contractName": "RevocationRegistry",
  "sourceName": "contracts/RevocationRegistry.sol",
  "abi": [
    {
      "inputs": [
        {
          "internalType": "address",
          "name": "_roleManager",
          "type": "address"
        }
      ],
      "stateMutability": "nonpayable",
      "type": "constructor"
    },
    {
      "anonymous": false,
      "inputs": [
        {
          "indexed": true,
          "internalType": "bytes32",
          "name": "docHash",
          "type": "bytes32"
        },
        {
          "indexed": false,
          "internalType": "string",
          "name": "reason",
          "type": "string"
        },
        {
          "indexed": false,
          "internalType": "uint256",
          "name": "timestamp",
          "type": "uint256"
        }
      ],
      "name": "CertificateRevoked",
      "type": "event"
    },
    {
      "inputs": [
        {
          "internalType": "bytes32",
          "name": "docHash",
          "type": "bytes32"
        }
      ],
      "name": "isRevoked",
      "outputs": [
        {
          "internalType": "bool",
          "name": "",
          "type": "bool"
        }
      ],
      "stateMutability": "view",
      "type": "function"
    },
    {
      "inputs": [
        {
          "internalType": "bytes32",
          "name": "",
          "type": "bytes32"
        }
      ],
      "name": "revocationReason",
      "outputs": [
        {
          "internalType": "string",
          "name": "",
          "type": "string"
        }
      ],
      "stateMutability": "view",
      "type": "function"
    },
    {
      "inputs": [
        {
          "internalType": "bytes32",
          "name": "",
          "type": "bytes32"
        }
      ],
      "name": "revocationTimestamp",
      "outputs": [
        {
          "internalType": "uint256",
          "name": "",
          "type": "uint256"
        }
      ],
      "stateMutability": "view",
      "type": "function"
    },
    {
      "inputs": [
        {
          "internalType": "bytes32",
          "name": "docHash",
          "type": "bytes32"
        },
        {
          "internalType": "string",
          "name": "reason",
          "type": "string"
        }
      ],
      "name": "revokeCertificate",
      "outputs": [],
      "stateMutability": "nonpayable",
      "type": "function"
    },
    {
      "inputs": [
        {
          "internalType": "bytes32",
          "name": "",
          "type": "bytes32"
        }
      ],
      "name": "revokedCertificates",
      "outputs": [
        {
          "internalType": "bool",
          "name": "",
          "type": "bool"
        }
      ],
      "stateMutability": "view",
      "type": "function"
    },
    {
      "inputs": [],
      "name": "roleManager",
      "outputs": [
        {
          "internalType": "contract RoleManager",
          "name": "",
          "type": "address"
        }
      ],
      "stateMutability": "view",
      "type": "function"
    }
  ],
  "bytecode": "0x608060405234801561001057600080fd5b50604051610dbf380380610dbf833981810160405281019061003291906100db565b806000806101000a81548173ffffffffffffffffffffffffffffffffffffffff021916908373ffffffffffffffffffffffffffffffffffffffff16021790555050610108565b600080fd5b600073ffffffffffffffffffffffffffffffffffffffff82169050919050565b60006100a88261007d565b9050919050565b6100b88161009d565b81146100c357600080fd5b50565b6000815190506100d5816100af565b92915050565b6000602082840312156100f1576100f0610078565b5b60006100ff848285016100c6565b91505092915050565b610ca8806101176000396000f3fe608060405234801561001057600080fd5b50600436106100615760003560e01c8062435da51461006657806320181efa146100845780634294857f146100b45780635bf4adfb146100e45780639e84a48014610100578063aede41e614610130575b600080fd5b61006e610160565b60405161007b9190610483565b60405180910390f35b61009e600480360381019061009991906104e8565b610184565b6040516100ab91906105a5565b60405180910390f35b6100ce60048036038101906100c991906104e8565b610224565b6040516100db91906105e2565b60405180910390f35b6100fe60048036038101906100f99190610732565b61024e565b005b61011a600480360381019061011591906104e8565b6103cc565b60405161012791906105e2565b60405180910390f35b61014a600480360381019061014591906104e8565b6103ec565b60405161015791906107a7565b60405180910390f35b60008054906101000a900473ffffffffffffffffffffffffffffffffffffffff1681565b600260205280600052604060002060009150905080546101a3906107f1565b80601f01602080910402602001604051908101604052809291908181526020018280546101cf906107f1565b801561021c5780601f106101f15761010080835404028352916020019161021c565b820191906000526020600020905b8154815290600101906020018083116101ff57829003601f168201915b505050505081565b60006001600083815260200190815260200160002060009054906101000a900460ff169050919050565b60008054906101000a900473ffffffffffffffffffffffffffffffffffffffff1673ffffffffffffffffffffffffffffffffffffffff166395a8c58d3360036040518363ffffffff1660e01b81526004016102aa9291906108ba565b602060405180830381865afa1580156102c7573d6000803e3d6000fd5b505050506040513d601f19601f820116820180604052508101906102eb919061090f565b61032a576040517f08c379a0000000000000000000000000000000000000000000000000000000008152600401610321906109ae565b60405180910390fd5b600180600084815260200190815260200160002060006101000a81548160ff021916908315150217905550806002600084815260200190815260200160002090816103759190610b70565b50426003600084815260200190815260200160002081905550817fa487e231ee52a2d7ad557a7acd9a778a361dc6f60ba04fcb26ccf8e5278d023382426040516103c0929190610c42565b60405180910390a25050565b60016020528060005260406000206000915054906101000a900460ff1681565b60036020528060005260406000206000915090505481565b600073ffffffffffffffffffffffffffffffffffffffff82169050919050565b6000819050919050565b600061044961044461043f84610404565b610424565b610404565b9050919050565b600061045b8261042e565b9050919050565b600061046d82610450565b9050919050565b61047d81610462565b82525050565b60006020820190506104986000830184610474565b92915050565b6000604051905090565b600080fd5b600080fd5b6000819050919050565b6104c5816104b2565b81146104d057600080fd5b50565b6000813590506104e2816104bc565b92915050565b6000602082840312156104fe576104fd6104a8565b5b600061050c848285016104d3565b91505092915050565b600081519050919050565b600082825260208201905092915050565b60005b8381101561054f578082015181840152602081019050610534565b60008484015250505050565b6000601f19601f8301169050919050565b600061057782610515565b6105818185610520565b9350610591818560208601610531565b61059a8161055b565b840191505092915050565b600060208201905081810360008301526105bf818461056c565b905092915050565b60008115159050919050565b6105dc816105c7565b82525050565b60006020820190506105f760008301846105d3565b92915050565b600080fd5b600080fd5b7f4e487b7100000000000000000000000000000000000000000000000000000000600052604160045260246000fd5b61063f8261055b565b810181811067ffffffffffffffff8211171561065e5761065d610607565b5b80604052505050565b600061067161049e565b905061067d8282610636565b919050565b600067ffffffffffffffff82111561069d5761069c610607565b5b6106a68261055b565b9050602081019050919050565b82818337600083830152505050565b60006106d56106d084610682565b610667565b9050828152602081018484840111156106f1576106f0610602565b5b6106fc8482856106b3565b509392505050565b600082601f830112610719576107186105fd565b5b81356107298482602086016106c2565b91505092915050565b60008060408385031215610749576107486104a8565b5b6000610757858286016104d3565b925050602083013567ffffffffffffffff811115610778576107776104ad565b5b61078485828601610704565b9150509250929050565b6000819050919050565b6107a18161078e565b82525050565b60006020820190506107bc6000830184610798565b92915050565b7f4e487b7100000000000000000000000000000000000000000000000000000000600052602260045260246000fd5b6000600282049050600182168061080957607f821691505b60208210810361081c5761081b6107c2565b5b50919050565b600061082d82610404565b9050919050565b61083d81610822565b82525050565b7f4e487b7100000000000000000000000000000000000000000000000000000000600052602160045260246000fd5b6004811061088357610882610843565b5b50565b600081905061089482610872565b919050565b60006108a482610886565b9050919050565b6108b481610899565b82525050565b60006040820190506108cf6000830185610834565b6108dc60208301846108ab565b9392505050565b6108ec816105c7565b81146108f757600080fd5b50565b600081519050610909816108e3565b92915050565b600060208284031215610925576109246104a8565b5b6000610933848285016108fa565b91505092915050565b7f5265766f636174696f6e52656769737472793a204d7573742062652041444d4960008201527f4e00000000000000000000000000000000000000000000000000000000000000602082015250565b6000610998602183610520565b91506109a38261093c565b604082019050919050565b600060208201905081810360008301526109c78161098b565b9050919050565b60008190508160005260206000209050919050565b60006020601f8301049050919050565b600082821b905092915050565b600060088302610a307fffffffffffffffffffffffffffffffffffffffffffffffffffffffffffffffff826109f3565b610a3a86836109f3565b95508019841693508086168417925050509392505050565b6000610a6d610a68610a638461078e565b610424565b61078e565b9050919050565b6000819050919050565b610a8783610a52565b610a9b610a9382610a74565b848454610a00565b825550505050565b600090565b610ab0610aa3565b610abb818484610a7e565b505050565b5b81811015610adf57610ad4600082610aa8565b600181019050610ac1565b5050565b601f821115610b2457610af5816109ce565b610afe846109e3565b81016020851015610b0d578190505b610b21610b19856109e3565b830182610ac0565b50505b505050565b600082821c905092915050565b6000610b4760001984600802610b29565b1980831691505092915050565b6000610b608383610b36565b9150826002028217905092915050565b610b7982610515565b67ffffffffffffffff811115610b9257610b91610607565b5b610b9c82546107f1565b610ba7828285610ae3565b600060209050601f831160018114610bda5760008415610bc8578287015190505b610bd28582610b54565b865550610c3a565b601f198416610be8866109ce565b60005b82811015610c1057848901518255600182019150602085019450602081019050610beb565b86831015610c2d5784890151610c29601f891682610b36565b8355505b6001600288020188555050505b505050505050565b60006040820190508181036000830152610c5c818561056c565b9050610c6b6020830184610798565b939250505056fea2646970667358221220fcd0c4d403e2ffe7612927b6558d2af0cb25abbcd31a06e63d78a45bc504d3de64736f6c63430008140033",
  "linkReferences": {},
  "deployedLinkReferences": {}
}