{
  "_format": "hh-sol-artifact-1",
  "contractName": "RevocationRegistry",
  "sourceName": "contracts/RevocationRegistry.sol",
  "abi": [
    {
      "inputs": [
        {
          "internalType": "address",
          "name": "_roleManager",
          "type": "address"
        }
      ],
      "stateMutability": "nonpayable",
      "type": "constructor"
    },
    {
      "anonymous": false,
      "inputs": [
        {
          "indexed": true,
          "internalType": "bytes32",
          "name": "docHash",
          "type": "bytes32"
        },
        {
          "indexed": false,
          "internalType": "string",
          "name": "reason",
          "type": "string"
        },
        {
          "indexed": true,
          "internalType": "address",
          "name": "revokedBy",
          "type": "address"
        },
        {
          "indexed": false,
          "internalType": "uint256",
          "name": "timestamp",
          "type": "uint256"
        }
      ],
      "name": "CertificateRevoked",
      "type": "event"
    },
    {
      "inputs": [
        {
          "internalType": "bytes32",
          "name": "docHash",
          "type": "bytes32"
        }
      ],
      "name": "getRevocationDetails",
      "outputs": [
        {
          "internalType": "string",
          "name": "reason",
          "type": "string"
        },
        {
          "internalType": "address",
          "name": "revokedBy",
          "type": "address"
        },
        {
          "internalType": "uint256",
          "name": "timestamp",
          "type": "uint256"
        }
      ],
      "stateMutability": "view",
      "type": "function"
    },
    {
      "inputs": [
        {
          "internalType": "bytes32",
          "name": "docHash",
          "type": "bytes32"
        }
      ],
      "name": "isRevoked",
      "outputs": [
        {
          "internalType": "bool",
          "name": "",
          "type": "bool"
        }
      ],
      "stateMutability": "view",
      "type": "function"
    },
    {
      "inputs": [
        {
          "internalType": "bytes32",
          "name": "",
          "type": "bytes32"
        }
      ],
      "name": "revocations",
      "outputs": [
        {
          "internalType": "string",
          "name": "reason",
          "type": "string"
        },
        {
          "internalType": "address",
          "name": "revokedBy",
          "type": "address"
        },
        {
          "internalType": "uint256",
          "name": "timestamp",
          "type": "uint256"
        },
        {
          "internalType": "bool",
          "name": "exists",
          "type": "bool"
        }
      ],
      "stateMutability": "view",
      "type": "function"
    },
    {
      "inputs": [
        {
          "internalType": "bytes32",
          "name": "docHash",
          "type": "bytes32"
        },
        {
          "internalType": "string",
          "name": "reason",
          "type": "string"
        }
      ],
      "name": "revoke",
      "outputs": [],
      "stateMutability": "nonpayable",
      "type": "function"
    },
    {
      "inputs": [],
      "name": "roleManager",
      "outputs": [
        {
          "internalType": "contract RoleManager",
          "name": "",
          "type": "address"
        }
      ],
      "stateMutability": "view",
      "type": "function"
    }
  ],
  "bytecode": "0x608060405234801561000f575f80fd5b5060405161096f38038061096f83398101604081905261002e91610052565b5f80546001600160a01b0319166001600160a01b039290921691909117905561007f565b5f60208284031215610062575f80fd5b81516001600160a01b0381168114610078575f80fd5b9392505050565b6108e38061008c5f395ff3fe608060405234801561000f575f80fd5b5060043610610054575f3560e01c8062435da51461005857806308ccbc94146100875780634294857f1461009c578063bbe48780146100d1578063eb499f0a146100f4575b5f80fd5b5f5461006a906001600160a01b031681565b6040516001600160a01b0390911681526020015b60405180910390f35b61009a610095366004610596565b610116565b005b6100c16100aa36600461064b565b5f9081526001602052604090206003015460ff1690565b604051901515815260200161007e565b6100e46100df36600461064b565b61037e565b60405161007e94939291906106a5565b61010761010236600461064b565b61043a565b60405161007e939291906106de565b5f5460408051631d6c8e3f60e21b815290516001600160a01b03909216916391d148549183916375b238fc916004808201926020929091908290030181865afa158015610165573d5f803e3d5ffd5b505050506040513d601f19601f82011682018060405250810190610189919061070b565b6040516001600160e01b031960e084901b1681526004810191909152336024820152604401602060405180830381865afa1580156101c9573d5f803e3d5ffd5b505050506040513d601f19601f820116820180604052508101906101ed9190610722565b6102485760405162461bcd60e51b815260206004820152602160248201527f5265766f636174696f6e52656769737472793a204d7573742062652041444d496044820152602760f91b60648201526084015b60405180910390fd5b5f8281526001602052604090206003015460ff16156102b55760405162461bcd60e51b815260206004820152602360248201527f5265766f636174696f6e52656769737472793a20416c7265616479207265766f6044820152621ad95960ea1b606482015260840161023f565b604080516080810182528281523360208083019190915242828401526001606083018190525f868152915291909120815181906102f290826107cc565b5060208201516001820180546001600160a01b0319166001600160a01b0390921691909117905560408083015160028301556060909201516003909101805460ff191691151591909117905551339083907fb37d987178e7784ca46f110f46760d799ac4b235d5aa3fbd6ac6560ecff051b490610372908590429061088c565b60405180910390a35050565b60016020525f908152604090208054819061039890610748565b80601f01602080910402602001604051908101604052809291908181526020018280546103c490610748565b801561040f5780601f106103e65761010080835404028352916020019161040f565b820191905f5260205f20905b8154815290600101906020018083116103f257829003601f168201915b505050506001830154600284015460039094015492936001600160a01b039091169290915060ff1684565b60605f805f60015f8681526020019081526020015f206040518060800160405290815f8201805461046a90610748565b80601f016020809104026020016040519081016040528092919081815260200182805461049690610748565b80156104e15780601f106104b8576101008083540402835291602001916104e1565b820191905f5260205f20905b8154815290600101906020018083116104c457829003601f168201915b505050918352505060018201546001600160a01b031660208201526002820154604082015260039091015460ff1615156060918201528101519091506105695760405162461bcd60e51b815260206004820152601f60248201527f5265766f636174696f6e52656769737472793a204e6f74207265766f6b656400604482015260640161023f565b8051602082015160409092015190969195509350915050565b634e487b7160e01b5f52604160045260245ffd5b5f80604083850312156105a7575f80fd5b82359150602083013567ffffffffffffffff808211156105c5575f80fd5b818501915085601f8301126105d8575f80fd5b8135818111156105ea576105ea610582565b604051601f8201601f19908116603f0116810190838211818310171561061257610612610582565b8160405282815288602084870101111561062a575f80fd5b826020860160208301375f6020848301015280955050505050509250929050565b5f6020828403121561065b575f80fd5b5035919050565b5f81518084525f5b818110156106865760208185018101518683018201520161066a565b505f602082860101526020601f19601f83011685010191505092915050565b608081525f6106b76080830187610662565b6001600160a01b039590951660208301525060408101929092521515606090910152919050565b606081525f6106f06060830186610662565b6001600160a01b039490941660208301525060400152919050565b5f6020828403121561071b575f80fd5b5051919050565b5f60208284031215610732575f80fd5b81518015158114610741575f80fd5b9392505050565b600181811c9082168061075c57607f821691505b60208210810361077a57634e487b7160e01b5f52602260045260245ffd5b50919050565b601f8211156107c757805f5260205f20601f840160051c810160208510156107a55750805b601f840160051c820191505b818110156107c4575f81556001016107b1565b50505b505050565b815167ffffffffffffffff8111156107e6576107e6610582565b6107fa816107f48454610748565b84610780565b602080601f83116001811461082d575f84156108165750858301515b5f19600386901b1c1916600185901b178555610884565b5f85815260208120601f198616915b8281101561085b5788860151825594840194600190910190840161083c565b508582101561087857878501515f19600388901b60f8161c191681555b505060018460011b0185555b505050505050565b604081525f61089e6040830185610662565b9050826020830152939250505056fea26469706673582212208e35b5313e24f651db5886983b69a143c46e9427ae4cf0e2485a0bcb4b34b06664736f6c63430008180033",
  "linkReferences": {},
  "deployedLinkReferences": {}
}