{"contracts/RoleManager.sol":{"RoleManager":{"abi":[{"inputs":[],"stateMutability":"nonpayable","type":"constructor"},{"inputs":[],"name":"AccessControlBadConfirmation","type":"error"},{"inputs":[{"internalType":"address","name":"account","type":"address"},{"internalType":"bytes32","name":"neededRole","type":"bytes32"}],"name":"AccessControlUnauthorizedAccount","type":"error"},{"anonymous":false,"inputs":[{"indexed":true,"internalType":"bytes32","name":"role","type":"bytes32"},{"indexed":true,"internalType":"bytes32","name":"previousAdminRole","type":"bytes32"},{"indexed":true,"internalType":"bytes32","name":"newAdminRole","type":"bytes32"}],"name":"RoleAdminChanged","type":"event"},{"anonymous":false,"inputs":[{"indexed":true,"internalType":"address","name":"user","type":"address"},{"indexed":false,"internalType":"bytes32","name":"role","type":"bytes32"},{"indexed":true,"internalType":"address","name":"assignedBy","type":"address"}],"name":"RoleAssigned","type":"event"},{"anonymous":false,"inputs":[{"indexed":true,"internalType":"bytes32","name":"role","type":"bytes32"},{"indexed":true,"internalType":"address","name":"account","type":"address"},{"indexed":true,"internalType":"address","name":"sender","type":"address"}],"name":"RoleGranted","type":"event"},{"anonymous":false,"inputs":[{"indexed":true,"internalType":"bytes32","name":"role","type":"bytes32"},{"indexed":true,"internalType":"address","name":"account","type":"address"},{"indexed":true,"internalType":"address","name":"sender","type":"address"}],"name":"RoleRevoked","type":"event"},{"inputs":[],"name":"ADMIN_ROLE","outputs":[{"internalType":"bytes32","name":"","type":"bytes32"}],"stateMutability":"view","type":"function"},{"inputs":[],"name":"APPROVER_ROLE","outputs":[{"internalType":"bytes32","name":"","type":"bytes32"}],"stateMutability":"view","type":"function"},{"inputs":[],"name":"CITIZEN_ROLE","outputs":[{"internalType":"bytes32","name":"","type":"bytes32"}],"stateMutability":"view","type":"function"},{"inputs":[],"name":"DEFAULT_ADMIN_ROLE","outputs":[{"internalType":"bytes32","name":"","type":"bytes32"}],"stateMutability":"view","type":"function"},{"inputs":[],"name":"ISSUER_OFFICER_ROLE","outputs":[{"internalType":"bytes32","name":"","type":"bytes32"}],"stateMutability":"view","type":"function"},{"inputs":[{"internalType":"address","name":"user","type":"address"},{"internalType":"enum RoleManager.Role","name":"newRole","type":"uint8"}],"name":"assignRole","outputs":[],"stateMutability":"nonpayable","type":"function"},{"inputs":[{"internalType":"address","name":"user","type":"address"},{"internalType":"bytes32","name":"role","type":"bytes32"}],"name":"checkRole","outputs":[{"internalType":"bool","name":"","type":"bool"}],"stateMutability":"view","type":"function"},{"inputs":[{"internalType":"address","name":"user","type":"address"}],"name":"getRole","outputs":[{"internalType":"enum RoleManager.Role","name":"","type":"uint8"}],"stateMutability":"view","type":"function"},{"inputs":[{"internalType":"bytes32","name":"role","type":"bytes32"}],"name":"getRoleAdmin","outputs":[{"internalType":"bytes32","name":"","type":"bytes32"}],"stateMutability":"view","type":"function"},{"inputs":[{"internalType":"bytes32","name":"role","type":"bytes32"},{"internalType":"address","name":"account","type":"address"}],"name":"grantRole","outputs":[],"stateMutability":"nonpayable","type":"function"},{"inputs":[{"internalType":"bytes32","name":"role","type":"bytes32"},{"internalType":"address","name":"account","type":"address"}],"name":"hasRole","outputs":[{"internalType":"bool","name":"","type":"bool"}],"stateMutability":"view","type":"function"},{"inputs":[{"internalType":"bytes32","name":"role","type":"bytes32"},{"internalType":"address","name":"callerConfirmation","type":"address"}],"name":"renounceRole","outputs":[],"stateMutability":"nonpayable","type":"function"},{"inputs":[{"internalType":"bytes32","name":"role","type":"bytes32"},{"internalType":"address","name":"account","type":"address"}],"name":"revokeRole","outputs":[],"stateMutability":"nonpayable","type":"function"},{"inputs":[{"internalType":"bytes4","name":"interfaceId","type":"bytes4"}],"name":"supportsInterface","outputs":[{"internalType":"bool","name":"","type":"bool"}],"stateMutability":"view","type":"function"}],"evm":{"bytecode":{"linkReferences":{},"object":"608060405234801561000f575f80fd5b5061001a5f3361004b565b506100457fa49807205ce4d355092ef5a8a18f56e8913cf4a201fbe287825b095693c217753361004b565b506100f4565b5f828152602081815260408083206001600160a01b038516845290915281205460ff166100eb575f838152602081815260408083206001600160a01b03861684529091529020805460ff191660011790556100a33390565b6001600160a01b0316826001600160a01b0316847f2f8788117e7eff1d82e926ec794901d17c78024a50270940304540a733656f0d60405160405180910390a45060016100ee565b505f5b92915050565b6108f8806101015f395ff3fe608060405234801561000f575f80fd5b50600436106100e5575f3560e01c80634427673311610088578063802292731161006357806380229273146101eb57806391d14854146101ff578063a217fddf14610212578063d547741f14610219575f80fd5b806344276733146101a4578063630a195b146101c457806375b238fc146101d7575f80fd5b80632b9e1d70116100c35780632b9e1d70146101545780632f2ff15d1461016857806336568abe1461017d5780634245962b14610190575f80fd5b806301ffc9a7146100e9578063248a9ca3146101115780632ae8a7e314610141575b5f80fd5b6100fc6100f736600461070c565b61022c565b60405190151581526020015b60405180910390f35b61013361011f366004610733565b5f9081526020819052604090206001015490565b604051908152602001610108565b6100fc61014f366004610765565b610262565b6101335f805160206108a383398151915281565b61017b61017636600461078d565b610274565b005b61017b61018b36600461078d565b61029e565b6101335f8051602061084383398151915281565b6101b76101b23660046107b7565b6102d6565b60405161010891906107e4565b61017b6101d236600461080a565b61034a565b6101335f8051602061088383398151915281565b6101335f8051602061086383398151915281565b6100fc61020d36600461078d565b6104de565b6101335f81565b61017b61022736600461078d565b610506565b5f6001600160e01b03198216637965db0b60e01b148061025c57506301ffc9a760e01b6001600160e01b03198316145b92915050565b5f61026d82846104de565b9392505050565b5f8281526020819052604090206001015461028e8161052a565b6102988383610537565b50505050565b6001600160a01b03811633146102c75760405163334bd91960e11b815260040160405180910390fd5b6102d182826105c6565b505050565b5f6102ee5f80516020610883833981519152836104de565b156102fb57506003919050565b6103125f80516020610843833981519152836104de565b1561031f57506002919050565b6103365f80516020610863833981519152836104de565b1561034357506001919050565b505f919050565b5f805160206108838339815191526103618161052a565b6103785f805160206108a3833981519152846105c6565b506103905f80516020610863833981519152846105c6565b506103a85f80516020610843833981519152846105c6565b506103c05f80516020610883833981519152846105c6565b505f8260038111156103d4576103d46107d0565b036103f6576103f05f805160206108a383398151915284610537565b50610493565b600182600381111561040a5761040a6107d0565b03610426576103f05f8051602061086383398151915284610537565b600282600381111561043a5761043a6107d0565b03610456576103f05f8051602061084383398151915284610537565b600382600381111561046a5761046a6107d0565b03610493576104865f8051602061088383398151915284610537565b506104915f84610537565b505b336001600160a01b0384167febf9259c6b2553f9ef6e6c2e2c9d58a93474b51af1769071d39cc70cc3c038776104c88561062f565b60405190815260200160405180910390a3505050565b5f918252602082815260408084206001600160a01b0393909316845291905290205460ff1690565b5f828152602081905260409020600101546105208161052a565b61029883836105c6565b61053481336106cb565b50565b5f61054283836104de565b6105bf575f838152602081815260408083206001600160a01b03861684529091529020805460ff191660011790556105773390565b6001600160a01b0316826001600160a01b0316847f2f8788117e7eff1d82e926ec794901d17c78024a50270940304540a733656f0d60405160405180910390a450600161025c565b505f61025c565b5f6105d183836104de565b156105bf575f838152602081815260408083206001600160a01b0386168085529252808320805460ff1916905551339286917ff6391f5c32d9c69d2a47ea670b442974b53935d1edc7fd64eb21e047a839171b9190a450600161025c565b5f6003826003811115610644576106446107d0565b0361065d57505f80516020610883833981519152919050565b6002826003811115610671576106716107d0565b0361068a57505f80516020610843833981519152919050565b600182600381111561069e5761069e6107d0565b036106b757505f80516020610863833981519152919050565b505f805160206108a3833981519152919050565b6106d582826104de565b6107085760405163e2517d3f60e01b81526001600160a01b03821660048201526024810183905260440160405180910390fd5b5050565b5f6020828403121561071c575f80fd5b81356001600160e01b03198116811461026d575f80fd5b5f60208284031215610743575f80fd5b5035919050565b80356001600160a01b0381168114610760575f80fd5b919050565b5f8060408385031215610776575f80fd5b61077f8361074a565b946020939093013593505050565b5f806040838503121561079e575f80fd5b823591506107ae6020840161074a565b90509250929050565b5f602082840312156107c7575f80fd5b61026d8261074a565b634e487b7160e01b5f52602160045260245ffd5b602081016004831061080457634e487b7160e01b5f52602160045260245ffd5b91905290565b5f806040838503121561081b575f80fd5b6108248361074a565b9150602083013560048110610837575f80fd5b80915050925092905056fe408a36151f841709116a4e8aca4e0202874f7f54687dcb863b1ea4672dc9d8cf784f6a01094e895845816de1983e8c1280798bd58a4ba6439f76ffb015d6bafea49807205ce4d355092ef5a8a18f56e8913cf4a201fbe287825b095693c217758f1426173eb922d2001706a308dabfa96e3c06475230fb5111184f70a4b5776da26469706673582212208ffefdec0a8ddb07d78f880be7b0d21af9e58b9cfca51a24a5a3b8e41a68a07964736f6c63430008180033","opcodes":"PUSH1 0x80 PUSH1 0x40 MSTORE CALLVALUE DUP1 ISZERO PUSH2 0xF JUMPI PUSH0 DUP1 REVERT JUMPDEST POP PUSH2 0x1A PUSH0 CALLER PUSH2 0x4B JUMP JUMPDEST POP PUSH2 0x45 PUSH32 0xA49807205CE4D355092EF5A8A18F56E8913CF4A201FBE287825B095693C21775 CALLER PUSH2 0x4B JUMP JUMPDEST POP PUSH2 0xF4 JUMP JUMPDEST PUSH0 DUP3 DUP2 MSTORE PUSH1 0x20 DUP2 DUP2 MSTORE PUSH1 0x40 DUP1 DUP4 KECCAK256 PUSH1 0x1 PUSH1 0x1 PUSH1 0xA0 SHL SUB DUP6 AND DUP5 MSTORE SWAP1 SWAP2 MSTORE DUP2 KECCAK256 SLOAD PUSH1 0xFF AND PUSH2 0xEB JUMPI PUSH0 DUP4 DUP2 MSTORE PUSH1 0x20 DUP2 DUP2 MSTORE PUSH1 0x40 DUP1 DUP4 KECCAK256 PUSH1 0x1 PUSH1 0x1 PUSH1 0xA0 SHL SUB DUP7 AND DUP5 MSTORE SWAP1 SWAP2 MSTORE SWAP1 KECCAK256 DUP1 SLOAD PUSH1 0xFF NOT AND PUSH1 0x1 OR SWAP1 SSTORE PUSH2 0xA3 CALLER SWAP1 JUMP JUMPDEST PUSH1 0x1 PUSH1 0x1 PUSH1 0xA0 SHL SUB AND DUP3 PUSH1 0x1 PUSH1 0x1 PUSH1 0xA0 SHL SUB AND DUP5 PUSH32 0x2F8788117E7EFF1D82E926EC794901D17C78024A50270940304540A733656F0D PUSH1 0x40 MLOAD PUSH1 0x40 MLOAD DUP1 SWAP2 SUB SWAP1 LOG4 POP PUSH1 0x1 PUSH2 0xEE JUMP JUMPDEST POP PUSH0 JUMPDEST SWAP3 SWAP2 POP POP JUMP JUMPDEST PUSH2 0x8F8 DUP1 PUSH2 0x101 PUSH0 CODECOPY PUSH0 RETURN INVALID PUSH1 0x80 PUSH1 0x40 MSTORE CALLVALUE DUP1 ISZERO PUSH2 0xF JUMPI PUSH0 DUP1 REVERT JUMPDEST POP PUSH1 0x4 CALLDATASIZE LT PUSH2 0xE5 JUMPI PUSH0 CALLDATALOAD PUSH1 0xE0 SHR DUP1 PUSH4 0x44276733 GT PUSH2 0x88 JUMPI DUP1 PUSH4 0x80229273 GT PUSH2 0x63 JUMPI DUP1 PUSH4 0x80229273 EQ PUSH2 0x1EB JUMPI DUP1 PUSH4 0x91D14854 EQ PUSH2 0x1FF JUMPI DUP1 PUSH4 0xA217FDDF EQ PUSH2 0x212 JUMPI DUP1 PUSH4 0xD547741F EQ PUSH2 0x219 JUMPI PUSH0 DUP1 REVERT JUMPDEST DUP1 PUSH4 0x44276733 EQ PUSH2 0x1A4 JUMPI DUP1 PUSH4 0x630A195B EQ PUSH2 0x1C4 JUMPI DUP1 PUSH4 0x75B238FC EQ PUSH2 0x1D7 JUMPI PUSH0 DUP1 REVERT JUMPDEST DUP1 PUSH4 0x2B9E1D70 GT PUSH2 0xC3 JUMPI DUP1 PUSH4 0x2B9E1D70 EQ PUSH2 0x154 JUMPI DUP1 PUSH4 0x2F2FF15D EQ PUSH2 0x168 JUMPI DUP1 PUSH4 0x36568ABE EQ PUSH2 0x17D JUMPI DUP1 PUSH4 0x4245962B EQ PUSH2 0x190 JUMPI PUSH0 DUP1 REVERT JUMPDEST DUP1 PUSH4 0x1FFC9A7 EQ PUSH2 0xE9 JUMPI DUP1 PUSH4 0x248A9CA3 EQ PUSH2 0x111 JUMPI DUP1 PUSH4 0x2AE8A7E3 EQ PUSH2 0x141 JUMPI JUMPDEST PUSH0 DUP1 REVERT JUMPDEST PUSH2 0xFC PUSH2 0xF7 CALLDATASIZE PUSH1 0x4 PUSH2 0x70C JUMP JUMPDEST PUSH2 0x22C JUMP JUMPDEST PUSH1 0x40 MLOAD SWAP1 ISZERO ISZERO DUP2 MSTORE PUSH1 0x20 ADD JUMPDEST PUSH1 0x40 MLOAD DUP1 SWAP2 SUB SWAP1 RETURN JUMPDEST PUSH2 0x133 PUSH2 0x11F CALLDATASIZE PUSH1 0x4 PUSH2 0x733 JUMP JUMPDEST PUSH0 SWAP1 DUP2 MSTORE PUSH1 0x20 DUP2 SWAP1 MSTORE PUSH1 0x40 SWAP1 KECCAK256 PUSH1 0x1 ADD SLOAD SWAP1 JUMP JUMPDEST PUSH1 0x40 MLOAD SWAP1 DUP2 MSTORE PUSH1 0x20 ADD PUSH2 0x108 JUMP JUMPDEST PUSH2 0xFC PUSH2 0x14F CALLDATASIZE PUSH1 0x4 PUSH2 0x765 JUMP JUMPDEST PUSH2 0x262 JUMP JUMPDEST PUSH2 0x133 PUSH0 DUP1 MLOAD PUSH1 0x20 PUSH2 0x8A3 DUP4 CODECOPY DUP2 MLOAD SWAP2 MSTORE DUP2 JUMP JUMPDEST PUSH2 0x17B PUSH2 0x176 CALLDATASIZE PUSH1 0x4 PUSH2 0x78D JUMP JUMPDEST PUSH2 0x274 JUMP JUMPDEST STOP JUMPDEST PUSH2 0x17B PUSH2 0x18B CALLDATASIZE PUSH1 0x4 PUSH2 0x78D JUMP JUMPDEST PUSH2 0x29E JUMP JUMPDEST PUSH2 0x133 PUSH0 DUP1 MLOAD PUSH1 0x20 PUSH2 0x843 DUP4 CODECOPY DUP2 MLOAD SWAP2 MSTORE DUP2 JUMP JUMPDEST PUSH2 0x1B7 PUSH2 0x1B2 CALLDATASIZE PUSH1 0x4 PUSH2 0x7B7 JUMP JUMPDEST PUSH2 0x2D6 JUMP JUMPDEST PUSH1 0x40 MLOAD PUSH2 0x108 SWAP2 SWAP1 PUSH2 0x7E4 JUMP JUMPDEST PUSH2 0x17B PUSH2 0x1D2 CALLDATASIZE PUSH1 0x4 PUSH2 0x80A JUMP JUMPDEST PUSH2 0x34A JUMP JUMPDEST PUSH2 0x133 PUSH0 DUP1 MLOAD PUSH1 0x20 PUSH2 0x883 DUP4 CODECOPY DUP2 MLOAD SWAP2 MSTORE DUP2 JUMP JUMPDEST PUSH2 0x133 PUSH0 DUP1 MLOAD PUSH1 0x20 PUSH2 0x863 DUP4 CODECOPY DUP2 MLOAD SWAP2 MSTORE DUP2 JUMP JUMPDEST PUSH2 0xFC PUSH2 0x20D CALLDATASIZE PUSH1 0x4 PUSH2 0x78D JUMP JUMPDEST PUSH2 0x4DE JUMP JUMPDEST PUSH2 0x133 PUSH0 DUP2 JUMP JUMPDEST PUSH2 0x17B PUSH2 0x227 CALLDATASIZE PUSH1 0x4 PUSH2 0x78D JUMP JUMPDEST PUSH2 0x506 JUMP JUMPDEST PUSH0 PUSH1 0x1 PUSH1 0x1 PUSH1 0xE0 SHL SUB NOT DUP3 AND PUSH4 0x7965DB0B PUSH1 0xE0 SHL EQ DUP1 PUSH2 0x25C JUMPI POP PUSH4 0x1FFC9A7 PUSH1 0xE0 SHL PUSH1 0x1 PUSH1 0x1 PUSH1 0xE0 SHL SUB NOT DUP4 AND EQ JUMPDEST SWAP3 SWAP2 POP POP JUMP JUMPDEST PUSH0 PUSH2 0x26D DUP3 DUP5 PUSH2 0x4DE JUMP JUMPDEST SWAP4 SWAP3 POP POP POP JUMP JUMPDEST PUSH0 DUP3 DUP2 MSTORE PUSH1 0x20 DUP2 SWAP1 MSTORE PUSH1 0x40 SWAP1 KECCAK256 PUSH1 0x1 ADD SLOAD PUSH2 0x28E DUP2 PUSH2 0x52A JUMP JUMPDEST PUSH2 0x298 DUP4 DUP4 PUSH2 0x537 JUMP JUMPDEST POP POP POP POP JUMP JUMPDEST PUSH1 0x1 PUSH1 0x1 PUSH1 0xA0 SHL SUB DUP2 AND CALLER EQ PUSH2 0x2C7 JUMPI PUSH1 0x40 MLOAD PUSH4 0x334BD919 PUSH1 0xE1 SHL DUP2 MSTORE PUSH1 0x4 ADD PUSH1 0x40 MLOAD DUP1 SWAP2 SUB SWAP1 REVERT JUMPDEST PUSH2 0x2D1 DUP3 DUP3 PUSH2 0x5C6 JUMP JUMPDEST POP POP POP JUMP JUMPDEST PUSH0 PUSH2 0x2EE PUSH0 DUP1 MLOAD PUSH1 0x20 PUSH2 0x883 DUP4 CODECOPY DUP2 MLOAD SWAP2 MSTORE DUP4 PUSH2 0x4DE JUMP JUMPDEST ISZERO PUSH2 0x2FB JUMPI POP PUSH1 0x3 SWAP2 SWAP1 POP JUMP JUMPDEST PUSH2 0x312 PUSH0 DUP1 MLOAD PUSH1 0x20 PUSH2 0x843 DUP4 CODECOPY DUP2 MLOAD SWAP2 MSTORE DUP4 PUSH2 0x4DE JUMP JUMPDEST ISZERO PUSH2 0x31F JUMPI POP PUSH1 0x2 SWAP2 SWAP1 POP JUMP JUMPDEST PUSH2 0x336 PUSH0 DUP1 MLOAD PUSH1 0x20 PUSH2 0x863 DUP4 CODECOPY DUP2 MLOAD SWAP2 MSTORE DUP4 PUSH2 0x4DE JUMP JUMPDEST ISZERO PUSH2 0x343 JUMPI POP PUSH1 0x1 SWAP2 SWAP1 POP JUMP JUMPDEST POP PUSH0 SWAP2 SWAP1 POP JUMP JUMPDEST PUSH0 DUP1 MLOAD PUSH1 0x20 PUSH2 0x883 DUP4 CODECOPY DUP2 MLOAD SWAP2 MSTORE PUSH2 0x361 DUP2 PUSH2 0x52A JUMP JUMPDEST PUSH2 0x378 PUSH0 DUP1 MLOAD PUSH1 0x20 PUSH2 0x8A3 DUP4 CODECOPY DUP2 MLOAD SWAP2 MSTORE DUP5 PUSH2 0x5C6 JUMP JUMPDEST POP PUSH2 0x390 PUSH0 DUP1 MLOAD PUSH1 0x20 PUSH2 0x863 DUP4 CODECOPY DUP2 MLOAD SWAP2 MSTORE DUP5 PUSH2 0x5C6 JUMP JUMPDEST POP PUSH2 0x3A8 PUSH0 DUP1 MLOAD PUSH1 0x20 PUSH2 0x843 DUP4 CODECOPY DUP2 MLOAD SWAP2 MSTORE DUP5 PUSH2 0x5C6 JUMP JUMPDEST POP PUSH2 0x3C0 PUSH0 DUP1 MLOAD PUSH1 0x20 PUSH2 0x883 DUP4 CODECOPY DUP2 MLOAD SWAP2 MSTORE DUP5 PUSH2 0x5C6 JUMP JUMPDEST POP PUSH0 DUP3 PUSH1 0x3 DUP2 GT ISZERO PUSH2 0x3D4 JUMPI PUSH2 0x3D4 PUSH2 0x7D0 JUMP JUMPDEST SUB PUSH2 0x3F6 JUMPI PUSH2 0x3F0 PUSH0 DUP1 MLOAD PUSH1 0x20 PUSH2 0x8A3 DUP4 CODECOPY DUP2 MLOAD SWAP2 MSTORE DUP5 PUSH2 0x537 JUMP JUMPDEST POP PUSH2 0x493 JUMP JUMPDEST PUSH1 0x1 DUP3 PUSH1 0x3 DUP2 GT ISZERO PUSH2 0x40A JUMPI PUSH2 0x40A PUSH2 0x7D0 JUMP JUMPDEST SUB PUSH2 0x426 JUMPI PUSH2 0x3F0 PUSH0 DUP1 MLOAD PUSH1 0x20 PUSH2 0x863 DUP4 CODECOPY DUP2 MLOAD SWAP2 MSTORE DUP5 PUSH2 0x537 JUMP JUMPDEST PUSH1 0x2 DUP3 PUSH1 0x3 DUP2 GT ISZERO PUSH2 0x43A JUMPI PUSH2 0x43A PUSH2 0x7D0 JUMP JUMPDEST SUB PUSH2 0x456 JUMPI PUSH2 0x3F0 PUSH0 DUP1 MLOAD PUSH1 0x20 PUSH2 0x843 DUP4 CODECOPY DUP2 MLOAD SWAP2 MSTORE DUP5 PUSH2 0x537 JUMP JUMPDEST PUSH1 0x3 DUP3 PUSH1 0x3 DUP2 GT ISZERO PUSH2 0x46A JUMPI PUSH2 0x46A PUSH2 0x7D0 JUMP JUMPDEST SUB PUSH2 0x493 JUMPI PUSH2 0x486 PUSH0 DUP1 MLOAD PUSH1 0x20 PUSH2 0x883 DUP4 CODECOPY DUP2 MLOAD SWAP2 MSTORE DUP5 PUSH2 0x537 JUMP JUMPDEST POP PUSH2 0x491 PUSH0 DUP5 PUSH2 0x537 JUMP JUMPDEST POP JUMPDEST CALLER PUSH1 0x1 PUSH1 0x1 PUSH1 0xA0 SHL SUB DUP5 AND PUSH32 0xEBF9259C6B2553F9EF6E6C2E2C9D58A93474B51AF1769071D39CC70CC3C03877 PUSH2 0x4C8 DUP6 PUSH2 0x62F JUMP JUMPDEST PUSH1 0x40 MLOAD SWAP1 DUP2 MSTORE PUSH1 0x20 ADD PUSH1 0x40 MLOAD DUP1 SWAP2 SUB SWAP1 LOG3 POP POP POP JUMP JUMPDEST PUSH0 SWAP2 DUP3 MSTORE PUSH1 0x20 DUP3 DUP2 MSTORE PUSH1 0x40 DUP1 DUP5 KECCAK256 PUSH1 0x1 PUSH1 0x1 PUSH1 0xA0 SHL SUB SWAP4 SWAP1 SWAP4 AND DUP5 MSTORE SWAP2 SWAP1 MSTORE SWAP1 KECCAK256 SLOAD PUSH1 0xFF AND SWAP1 JUMP JUMPDEST PUSH0 DUP3 DUP2 MSTORE PUSH1 0x20 DUP2 SWAP1 MSTORE PUSH1 0x40 SWAP1 KECCAK256 PUSH1 0x1 ADD SLOAD PUSH2 0x520 DUP2 PUSH2 0x52A JUMP JUMPDEST PUSH2 0x298 DUP4 DUP4 PUSH2 0x5C6 JUMP JUMPDEST PUSH2 0x534 DUP2 CALLER PUSH2 0x6CB JUMP JUMPDEST POP JUMP JUMPDEST PUSH0 PUSH2 0x542 DUP4 DUP4 PUSH2 0x4DE JUMP JUMPDEST PUSH2 0x5BF JUMPI PUSH0 DUP4 DUP2 MSTORE PUSH1 0x20 DUP2 DUP2 MSTORE PUSH1 0x40 DUP1 DUP4 KECCAK256 PUSH1 0x1 PUSH1 0x1 PUSH1 0xA0 SHL SUB DUP7 AND DUP5 MSTORE SWAP1 SWAP2 MSTORE SWAP1 KECCAK256 DUP1 SLOAD PUSH1 0xFF NOT AND PUSH1 0x1 OR SWAP1 SSTORE PUSH2 0x577 CALLER SWAP1 JUMP JUMPDEST PUSH1 0x1 PUSH1 0x1 PUSH1 0xA0 SHL SUB AND DUP3 PUSH1 0x1 PUSH1 0x1 PUSH1 0xA0 SHL SUB AND DUP5 PUSH32 0x2F8788117E7EFF1D82E926EC794901D17C78024A50270940304540A733656F0D PUSH1 0x40 MLOAD PUSH1 0x40 MLOAD DUP1 SWAP2 SUB SWAP1 LOG4 POP PUSH1 0x1 PUSH2 0x25C JUMP JUMPDEST POP PUSH0 PUSH2 0x25C JUMP JUMPDEST PUSH0 PUSH2 0x5D1 DUP4 DUP4 PUSH2 0x4DE JUMP JUMPDEST ISZERO PUSH2 0x5BF JUMPI PUSH0 DUP4 DUP2 MSTORE PUSH1 0x20 DUP2 DUP2 MSTORE PUSH1 0x40 DUP1 DUP4 KECCAK256 PUSH1 0x1 PUSH1 0x1 PUSH1 0xA0 SHL SUB DUP7 AND DUP1 DUP6 MSTORE SWAP3 MSTORE DUP1 DUP4 KECCAK256 DUP1 SLOAD PUSH1 0xFF NOT AND SWAP1 SSTORE MLOAD CALLER SWAP3 DUP7 SWAP2 PUSH32 0xF6391F5C32D9C69D2A47EA670B442974B53935D1EDC7FD64EB21E047A839171B SWAP2 SWAP1 LOG4 POP PUSH1 0x1 PUSH2 0x25C JUMP JUMPDEST PUSH0 PUSH1 0x3 DUP3 PUSH1 0x3 DUP2 GT ISZERO PUSH2 0x644 JUMPI PUSH2 0x644 PUSH2 0x7D0 JUMP JUMPDEST SUB PUSH2 0x65D JUMPI POP PUSH0 DUP1 MLOAD PUSH1 0x20 PUSH2 0x883 DUP4 CODECOPY DUP2 MLOAD SWAP2 MSTORE SWAP2 SWAP1 POP JUMP JUMPDEST PUSH1 0x2 DUP3 PUSH1 0x3 DUP2 GT ISZERO PUSH2 0x671 JUMPI PUSH2 0x671 PUSH2 0x7D0 JUMP JUMPDEST SUB PUSH2 0x68A JUMPI POP PUSH0 DUP1 MLOAD PUSH1 0x20 PUSH2 0x843 DUP4 CODECOPY DUP2 MLOAD SWAP2 MSTORE SWAP2 SWAP1 POP JUMP JUMPDEST PUSH1 0x1 DUP3 PUSH1 0x3 DUP2 GT ISZERO PUSH2 0x69E JUMPI PUSH2 0x69E PUSH2 0x7D0 JUMP JUMPDEST SUB PUSH2 0x6B7 JUMPI POP PUSH0 DUP1 MLOAD PUSH1 0x20 PUSH2 0x863 DUP4 CODECOPY DUP2 MLOAD SWAP2 MSTORE SWAP2 SWAP1 POP JUMP JUMPDEST POP PUSH0 DUP1 MLOAD PUSH1 0x20 PUSH2 0x8A3 DUP4 CODECOPY DUP2 MLOAD SWAP2 MSTORE SWAP2 SWAP1 POP JUMP JUMPDEST PUSH2 0x6D5 DUP3 DUP3 PUSH2 0x4DE JUMP JUMPDEST PUSH2 0x708 JUMPI PUSH1 0x40 MLOAD PUSH4 0xE2517D3F PUSH1 0xE0 SHL DUP2 MSTORE PUSH1 0x1 PUSH1 0x1 PUSH1 0xA0 SHL SUB DUP3 AND PUSH1 0x4 DUP3 ADD MSTORE PUSH1 0x24 DUP2 ADD DUP4 SWAP1 MSTORE PUSH1 0x44 ADD PUSH1 0x40 MLOAD DUP1 SWAP2 SUB SWAP1 REVERT JUMPDEST POP POP JUMP JUMPDEST PUSH0 PUSH1 0x20 DUP3 DUP5 SUB SLT ISZERO PUSH2 0x71C JUMPI PUSH0 DUP1 REVERT JUMPDEST DUP2 CALLDATALOAD PUSH1 0x1 PUSH1 0x1 PUSH1 0xE0 SHL SUB NOT DUP2 AND DUP2 EQ PUSH2 0x26D JUMPI PUSH0 DUP1 REVERT JUMPDEST PUSH0 PUSH1 0x20 DUP3 DUP5 SUB SLT ISZERO PUSH2 0x743 JUMPI PUSH0 DUP1 REVERT JUMPDEST POP CALLDATALOAD SWAP2 SWAP1 POP JUMP JUMPDEST DUP1 CALLDATALOAD PUSH1 0x1 PUSH1 0x1 PUSH1 0xA0 SHL SUB DUP2 AND DUP2 EQ PUSH2 0x760 JUMPI PUSH0 DUP1 REVERT JUMPDEST SWAP2 SWAP1 POP JUMP JUMPDEST PUSH0 DUP1 PUSH1 0x40 DUP4 DUP6 SUB SLT ISZERO PUSH2 0x776 JUMPI PUSH0 DUP1 REVERT JUMPDEST PUSH2 0x77F DUP4 PUSH2 0x74A JUMP JUMPDEST SWAP5 PUSH1 0x20 SWAP4 SWAP1 SWAP4 ADD CALLDATALOAD SWAP4 POP POP POP JUMP JUMPDEST PUSH0 DUP1 PUSH1 0x40 DUP4 DUP6 SUB SLT ISZERO PUSH2 0x79E JUMPI PUSH0 DUP1 REVERT JUMPDEST DUP3 CALLDATALOAD SWAP2 POP PUSH2 0x7AE PUSH1 0x20 DUP5 ADD PUSH2 0x74A JUMP JUMPDEST SWAP1 POP SWAP3 POP SWAP3 SWAP1 POP JUMP JUMPDEST PUSH0 PUSH1 0x20 DUP3 DUP5 SUB SLT ISZERO PUSH2 0x7C7 JUMPI PUSH0 DUP1 REVERT JUMPDEST PUSH2 0x26D DUP3 PUSH2 0x74A JUMP JUMPDEST PUSH4 0x4E487B71 PUSH1 0xE0 SHL PUSH0 MSTORE PUSH1 0x21 PUSH1 0x4 MSTORE PUSH1 0x24 PUSH0 REVERT JUMPDEST PUSH1 0x20 DUP2 ADD PUSH1 0x4 DUP4 LT PUSH2 0x804 JUMPI PUSH4 0x4E487B71 PUSH1 0xE0 SHL PUSH0 MSTORE PUSH1 0x21 PUSH1 0x4 MSTORE PUSH1 0x24 PUSH0 REVERT JUMPDEST SWAP2 SWAP1 MSTORE SWAP1 JUMP JUMPDEST PUSH0 DUP1 PUSH1 0x40 DUP4 DUP6 SUB SLT ISZERO PUSH2 0x81B JUMPI PUSH0 DUP1 REVERT JUMPDEST PUSH2 0x824 DUP4 PUSH2 0x74A JUMP JUMPDEST SWAP2 POP PUSH1 0x20 DUP4 ADD CALLDATALOAD PUSH1 0x4 DUP2 LT PUSH2 0x837 JUMPI PUSH0 DUP1 REVERT JUMPDEST DUP1 SWAP2 POP POP SWAP3 POP SWAP3 SWAP1 POP JUMP INVALID BLOCKHASH DUP11 CALLDATASIZE ISZERO 0x1F DUP5 OR MULMOD GT PUSH11 0x4E8ACA4E0202874F7F5468 PUSH30 0xCB863B1EA4672DC9D8CF784F6A01094E895845816DE1983E8C1280798BD5 DUP11 0x4B 0xA6 NUMBER SWAP16 PUSH23 0xFFB015D6BAFEA49807205CE4D355092EF5A8A18F56E891 EXTCODECOPY DELEGATECALL LOG2 ADD 0xFB 0xE2 DUP8 DUP3 JUMPDEST MULMOD JUMP SWAP4 0xC2 OR PUSH22 0x8F1426173EB922D2001706A308DABFA96E3C06475230 0xFB MLOAD GT XOR 0x4F PUSH17 0xA4B5776DA26469706673582212208FFEFD 0xEC EXP DUP14 0xDB SMOD 0xD7 DUP16 DUP9 SIGNEXTEND 0xE7 0xB0 0xD2 BYTE 0xF9 0xE5 DUP12 SWAP13 0xFC 0xA5 BYTE 0x24 0xA5 LOG3 0xB8 0xE4 BYTE PUSH9 0xA07964736F6C634300 ADDMOD XOR STOP CALLER "},"methodIdentifiers":{"ADMIN_ROLE()":"75b238fc","APPROVER_ROLE()":"4245962b","CITIZEN_ROLE()":"2b9e1d70","DEFAULT_ADMIN_ROLE()":"a217fddf","ISSUER_OFFICER_ROLE()":"80229273","assignRole(address,uint8)":"630a195b","checkRole(address,bytes32)":"2ae8a7e3","getRole(address)":"44276733","getRoleAdmin(bytes32)":"248a9ca3","grantRole(bytes32,address)":"2f2ff15d","hasRole(bytes32,address)":"91d14854","renounceRole(bytes32,address)":"36568abe","revokeRole(bytes32,address)":"d547741f","supportsInterface(bytes4)":"01ffc9a7"}}}}}