{"contracts/CredentialRegistry.sol":{"CredentialRegistry":{"abi":[{"inputs":[{"internalType":"address","name":"_roleManager","type":"address"}],"stateMutability":"nonpayable","type":"constructor"},{"inputs":[],"name":"ECDSAInvalidSignature","type":"error"},{"inputs":[{"internalType":"uint256","name":"length","type":"uint256"}],"name":"ECDSAInvalidSignatureLength","type":"error"},{"inputs":[{"internalType":"bytes32","name":"s","type":"bytes32"}],"name":"ECDSAInvalidSignatureS","type":"error"},{"inputs":[],"name":"InvalidShortString","type":"error"},{"inputs":[{"internalType":"string","name":"str","type":"string"}],"name":"StringTooLong","type":"error"},{"anonymous":false,"inputs":[{"indexed":true,"internalType":"bytes32","name":"credentialId","type":"bytes32"},{"indexed":true,"internalType":"address","name":"issuer","type":"address"},{"indexed":true,"internalType":"address","name":"subject","type":"address"},{"indexed":false,"internalType":"string","name":"credentialType","type":"string"}],"name":"CredentialIssued","type":"event"},{"anonymous":false,"inputs":[{"indexed":true,"internalType":"bytes32","name":"credentialId","type":"bytes32"},{"indexed":true,"internalType":"address","name":"issuer","type":"address"}],"name":"CredentialRevoked","type":"event"},{"anonymous":false,"inputs":[],"name":"EIP712DomainChanged","type":"event"},{"anonymous":false,"inputs":[{"indexed":true,"internalType":"address","name":"issuer","type":"address"}],"name":"IssuerAuthorized","type":"event"},{"anonymous":false,"inputs":[{"indexed":true,"internalType":"address","name":"user","type":"address"},{"indexed":false,"internalType":"uint256","name":"newScore","type":"uint256"}],"name":"RepScoreUpdated","type":"event"},{"inputs":[],"name":"CREDENTIAL_TYPEHASH","outputs":[{"internalType":"bytes32","name":"","type":"bytes32"}],"stateMutability":"view","type":"function"},{"inputs":[{"internalType":"address","name":"issuer","type":"address"}],"name":"checkIssuer","outputs":[{"internalType":"bool","name":"","type":"bool"}],"stateMutability":"view","type":"function"},{"inputs":[{"internalType":"bytes32","name":"","type":"bytes32"}],"name":"credentials","outputs":[{"internalType":"address","name":"issuer","type":"address"},{"internalType":"address","name":"subject","type":"address"},{"internalType":"string","name":"credentialType","type":"string"},{"internalType":"string","name":"metadataURI","type":"string"},{"internalType":"uint256","name":"issuedAt","type":"uint256"},{"internalType":"uint256","name":"expirationDate","type":"uint256"},{"internalType":"bool","name":"revoked","type":"bool"}],"stateMutability":"view","type":"function"},{"inputs":[{"internalType":"address","name":"","type":"address"},{"internalType":"uint256","name":"","type":"uint256"}],"name":"credentialsByIssuer","outputs":[{"internalType":"bytes32","name":"","type":"bytes32"}],"stateMutability":"view","type":"function"},{"inputs":[{"internalType":"address","name":"","type":"address"},{"internalType":"uint256","name":"","type":"uint256"}],"name":"credentialsBySubject","outputs":[{"internalType":"bytes32","name":"","type":"bytes32"}],"stateMutability":"view","type":"function"},{"inputs":[{"internalType":"address","name":"","type":"address"}],"name":"devRepScores","outputs":[{"internalType":"uint256","name":"","type":"uint256"}],"stateMutability":"view","type":"function"},{"inputs":[],"name":"eip712Domain","outputs":[{"internalType":"bytes1","name":"fields","type":"bytes1"},{"internalType":"string","name":"name","type":"string"},{"internalType":"string","name":"version","type":"string"},{"internalType":"uint256","name":"chainId","type":"uint256"},{"internalType":"address","name":"verifyingContract","type":"address"},{"internalType":"bytes32","name":"salt","type":"bytes32"},{"internalType":"uint256[]","name":"extensions","type":"uint256[]"}],"stateMutability":"view","type":"function"},{"inputs":[{"internalType":"bytes32","name":"credentialId","type":"bytes32"}],"name":"getCredential","outputs":[{"components":[{"internalType":"address","name":"issuer","type":"address"},{"internalType":"address","name":"subject","type":"address"},{"internalType":"string","name":"credentialType","type":"string"},{"internalType":"string","name":"metadataURI","type":"string"},{"internalType":"uint256","name":"issuedAt","type":"uint256"},{"internalType":"uint256","name":"expirationDate","type":"uint256"},{"internalType":"bool","name":"revoked","type":"bool"}],"internalType":"struct CredentialRegistry.Credential","name":"","type":"tuple"}],"stateMutability":"view","type":"function"},{"inputs":[{"internalType":"address","name":"subject","type":"address"}],"name":"getCredentialsBySubject","outputs":[{"internalType":"bytes32[]","name":"","type":"bytes32[]"}],"stateMutability":"view","type":"function"},{"inputs":[{"internalType":"address","name":"subject","type":"address"},{"internalType":"string","name":"credentialType","type":"string"},{"internalType":"string","name":"metadataURI","type":"string"},{"internalType":"uint256","name":"expirationDate","type":"uint256"},{"internalType":"bytes","name":"signature","type":"bytes"}],"name":"issueCredential","outputs":[{"internalType":"bytes32","name":"credentialId","type":"bytes32"}],"stateMutability":"nonpayable","type":"function"},{"inputs":[{"internalType":"bytes32","name":"credentialId","type":"bytes32"}],"name":"revokeCredential","outputs":[],"stateMutability":"nonpayable","type":"function"},{"inputs":[],"name":"roleManager","outputs":[{"internalType":"contract RoleManager","name":"","type":"address"}],"stateMutability":"view","type":"function"},{"inputs":[{"internalType":"address","name":"user","type":"address"},{"internalType":"uint256","name":"repos","type":"uint256"},{"internalType":"uint256","name":"badges","type":"uint256"},{"internalType":"uint256","name":"multiplier","type":"uint256"}],"name":"updateRepScore","outputs":[],"stateMutability":"nonpayable","type":"function"},{"inputs":[{"internalType":"bytes32","name":"credentialId","type":"bytes32"}],"name":"verifyCredential","outputs":[{"internalType":"bool","name":"isValid","type":"bool"},{"internalType":"bool","name":"isExpired","type":"bool"},{"internalType":"bool","name":"isRevoked","type":"bool"},{"internalType":"address","name":"issuer","type":"address"},{"internalType":"address","name":"subject","type":"address"},{"internalType":"string","name":"credentialType","type":"string"},{"internalType":"uint256","name":"issuedAt","type":"uint256"}],"stateMutability":"view","type":"function"}],"evm":{"bytecode":{"linkReferences":{},"object":"61016060405234801562000011575f80fd5b5060405162002259380380620022598339810160408190526200003491620001cf565b604080518082018252600f81526e437265646f7261526567697374727960881b602080830191909152825180840190935260018352603160f81b90830152906200007f825f6200014c565b61012052620000908160016200014c565b61014052815160208084019190912060e052815190820120610100524660a0526200011d60e05161010051604080517f8b73c3c69bb8fe3d512ecc4cf759cc79239f7b179b0ffacaa9a75d522b39400f60208201529081019290925260608201524660808201523060a08201525f9060c00160405160208183030381529060405280519060200120905090565b60805250503060c052600280546001600160a01b0319166001600160a01b0392909216919091179055620003da565b5f6020835110156200016b57620001638362000184565b90506200017e565b816200017884826200029c565b5060ff90505b92915050565b5f80829050601f81511115620001ba578260405163305a27a960e01b8152600401620001b1919062000368565b60405180910390fd5b8051620001c782620003b6565b179392505050565b5f60208284031215620001e0575f80fd5b81516001600160a01b0381168114620001f7575f80fd5b9392505050565b634e487b7160e01b5f52604160045260245ffd5b600181811c908216806200022757607f821691505b6020821081036200024657634e487b7160e01b5f52602260045260245ffd5b50919050565b601f8211156200029757805f5260205f20601f840160051c81016020851015620002735750805b601f840160051c820191505b8181101562000294575f81556001016200027f565b50505b505050565b81516001600160401b03811115620002b857620002b8620001fe565b620002d081620002c9845462000212565b846200024c565b602080601f83116001811462000306575f8415620002ee5750858301515b5f19600386901b1c1916600185901b17855562000360565b5f85815260208120601f198616915b82811015620003365788860151825594840194600190910190840162000315565b50858210156200035457878501515f19600388901b60f8161c191681555b505060018460011b0185555b505050505050565b5f602080835283518060208501525f5b81811015620003965785810183015185820160400152820162000378565b505f604082860101526040601f19601f8301168501019250505092915050565b8051602080830151919081101562000246575f1960209190910360031b1b16919050565b60805160a05160c05160e051610100516101205161014051611e2d6200042c5f395f61131101525f6112e001525f61150d01525f6114e501525f61144001525f61146a01525f6114940152611e2d5ff3fe608060405234801561000f575f80fd5b50600436106100e4575f3560e01c806384b0196e11610088578063c6f3a9aa11610063578063c6f3a9aa14610221578063ca6eec7814610244578063cfaa98eb14610257578063d1be488314610277575f80fd5b806384b0196e146101d2578063bb508a5a146101ed578063bbe939f11461020c575f80fd5b806327d35000116100c357806327d350001461014c578063299d0348146101735780634dbf87cc146101995780634fd04d22146101bf575f80fd5b8062435da5146100e857806321b2266014610118578063236c97e214610139575b5f80fd5b6002546100fb906001600160a01b031681565b6040516001600160a01b0390911681526020015b60405180910390f35b61012b6101263660046117a9565b610297565b60405190815260200161010f565b61012b610147366004611816565b6102c2565b61012b7fb4e6c1efed488648186d230c0fa2902d2f18aa28522c67ccaf0318e824dcc35f81565b6101866101813660046118c2565b6106ef565b60405161010f979695949392919061191c565b6101ac6101a73660046118c2565b610847565b60405161010f979695949392919061197b565b61012b6101cd3660046117a9565b610a3f565b6101da610a58565b60405161010f97969594939291906119d2565b61012b6101fb366004611a69565b60066020525f908152604090205481565b61021f61021a366004611a89565b610a9a565b005b61023461022f366004611a69565b610d30565b604051901515815260200161010f565b61021f6102523660046118c2565b610e16565b61026a610265366004611a69565b610f8e565b60405161010f9190611abf565b61028a6102853660046118c2565b610ff7565b60405161010f9190611b02565b6004602052815f5260405f2081815481106102b0575f80fd5b905f5260205f20015f91509150505481565b60025460408051638022927360e01b815290515f926001600160a01b0316916391d1485491839163802292739160048083019260209291908290030181865afa158015610311573d5f803e3d5ffd5b505050506040513d601f19601f820116820180604052508101906103359190611b88565b6040516001600160e01b031960e084901b1681526004810191909152336024820152604401602060405180830381865afa158015610375573d5f803e3d5ffd5b505050506040513d601f19601f820116820180604052508101906103999190611b9f565b6103fd5760405162461bcd60e51b815260206004820152602a60248201527f43726564656e7469616c52656769737472793a204d757374206265204953535560448201526922a92fa7a32324a1a2a960b11b60648201526084015b60405180910390fd5b61040d89898989898989896111cc565b61046e5760405162461bcd60e51b815260206004820152602c60248201527f43726564656e7469616c52656769737472793a20496e76616c6964206973737560448201526b6572207369676e617475726560a01b60648201526084016103f4565b3389898989894260405160200161048b9796959493929190611bbe565b60408051601f1981840301815291815281516020928301205f81815260039093529120600401549091501561050d5760405162461bcd60e51b815260206004820152602260248201527f43726564656e7469616c52656769737472793a20416c72656164792065786973604482015261747360f01b60648201526084016103f4565b6040518060e00160405280336001600160a01b031681526020018a6001600160a01b0316815260200189898080601f0160208091040260200160405190810160405280939291908181526020018383808284375f92019190915250505090825250604080516020601f8a01819004810282018101909252888152918101919089908990819084018382808284375f92018290525093855250504260208085019190915260408085018a905260609094018390528583526003815291839020845181546001600160a01b03199081166001600160a01b0392831617835593860151600183018054909516911617909255509082015160028201906106109082611ca8565b50606082015160038201906106259082611ca8565b50608082015160048281019190915560a083015160058084019190915560c0909301516006909201805460ff1916921515929092179091556001600160a01b038b165f81815260209283526040808220805460018181018355918452858420018790553380845295855281832080549182018155835293909120909201849055905190919083907f8fbd2b7cfb4db91a4f4b683fc96c73b5adc9f9aee31b983df603621b12c54987906106db908d908d90611d68565b60405180910390a498975050505050505050565b60036020525f90815260409020805460018201546002830180546001600160a01b0393841694929093169261072390611c24565b80601f016020809104026020016040519081016040528092919081815260200182805461074f90611c24565b801561079a5780601f106107715761010080835404028352916020019161079a565b820191905f5260205f20905b81548152906001019060200180831161077d57829003601f168201915b5050505050908060030180546107af90611c24565b80601f01602080910402602001604051908101604052809291908181526020018280546107db90611c24565b80156108265780601f106107fd57610100808354040283529160200191610826565b820191905f5260205f20905b81548152906001019060200180831161080957829003601f168201915b50505050600483015460058401546006909401549293909290915060ff1687565b5f818152600360209081526040808320815160e08101835281546001600160a01b03908116825260018301541693810193909352600281018054859485948594859460609486948594909392908401916108a090611c24565b80601f01602080910402602001604051908101604052809291908181526020018280546108cc90611c24565b80156109175780601f106108ee57610100808354040283529160200191610917565b820191905f5260205f20905b8154815290600101906020018083116108fa57829003601f168201915b5050505050815260200160038201805461093090611c24565b80601f016020809104026020016040519081016040528092919081815260200182805461095c90611c24565b80156109a75780601f1061097e576101008083540402835291602001916109a7565b820191905f5260205f20905b81548152906001019060200180831161098a57829003601f168201915b5050509183525050600482015460208201526005820154604082015260069091015460ff16151560609091015260a08101519091505f90158015906109ef57508160a0015142115b905081608001515f14158015610a0757508160c00151155b8015610a11575080155b60c0830151835160208501516040860151608090960151939e949d50919b5099509750919550909350915050565b6005602052815f5260405f2081815481106102b0575f80fd5b5f6060805f805f6060610a696112d9565b610a7161130a565b604080515f80825260208201909252600f60f81b9b939a50919850469750309650945092509050565b60025460408051638022927360e01b815290516001600160a01b03909216916391d148549183916380229273916004808201926020929091908290030181865afa158015610aea573d5f803e3d5ffd5b505050506040513d601f19601f82011682018060405250810190610b0e9190611b88565b6040516001600160e01b031960e084901b1681526004810191909152336024820152604401602060405180830381865afa158015610b4e573d5f803e3d5ffd5b505050506040513d601f19601f82011682018060405250810190610b729190611b9f565b80610c50575060025460408051631d6c8e3f60e21b815290516001600160a01b03909216916391d148549183916375b238fc916004808201926020929091908290030181865afa158015610bc8573d5f803e3d5ffd5b505050506040513d601f19601f82011682018060405250810190610bec9190611b88565b6040516001600160e01b031960e084901b1681526004810191909152336024820152604401602060405180830381865afa158015610c2c573d5f803e3d5ffd5b505050506040513d601f19601f82011682018060405250810190610c509190611b9f565b610cbb5760405162461bcd60e51b815260206004820152603660248201527f43726564656e7469616c52656769737472793a204e6f7420617574686f72697a604482015275656420746f20757064617465207265702073636f726560501b60648201526084016103f4565b5f81610cc78486611daa565b610cd19190611dbd565b6001600160a01b0386165f818152600660205260409081902083905551919250907f3260b268a3bf241455558ce07e34f69b4c3f01de4c0cb6aebac74e5f4061539790610d219084815260200190565b60405180910390a25050505050565b60025460408051638022927360e01b815290515f926001600160a01b0316916391d1485491839163802292739160048083019260209291908290030181865afa158015610d7f573d5f803e3d5ffd5b505050506040513d601f19601f82011682018060405250810190610da39190611b88565b6040516001600160e01b031960e084901b16815260048101919091526001600160a01b0385166024820152604401602060405180830381865afa158015610dec573d5f803e3d5ffd5b505050506040513d601f19601f82011682018060405250810190610e109190611b9f565b92915050565b5f8181526003602052604081206004810154909103610e825760405162461bcd60e51b815260206004820152602260248201527f43726564656e7469616c52656769737472793a20446f6573206e6f74206578696044820152611cdd60f21b60648201526084016103f4565b80546001600160a01b03163314610eee5760405162461bcd60e51b815260206004820152602a60248201527f43726564656e7469616c52656769737472793a204f6e6c79206973737565722060448201526963616e207265766f6b6560b01b60648201526084016103f4565b600681015460ff1615610f4f5760405162461bcd60e51b815260206004820152602360248201527f43726564656e7469616c52656769737472793a20416c7265616479207265766f6044820152621ad95960ea1b60648201526084016103f4565b60068101805460ff19166001179055604051339083907fd3196f598a360c115a1de20d5a58021203793f1bf1a08efe55ee14545779606d905f90a35050565b6001600160a01b0381165f90815260046020908152604091829020805483518184028101840190945280845260609392830182828015610feb57602002820191905f5260205f20905b815481526020019060010190808311610fd7575b50505050509050919050565b6110466040518060e001604052805f6001600160a01b031681526020015f6001600160a01b0316815260200160608152602001606081526020015f81526020015f81526020015f151581525090565b5f82815260036020908152604091829020825160e08101845281546001600160a01b03908116825260018301541692810192909252600281018054929391929184019161109290611c24565b80601f01602080910402602001604051908101604052809291908181526020018280546110be90611c24565b80156111095780601f106110e057610100808354040283529160200191611109565b820191905f5260205f20905b8154815290600101906020018083116110ec57829003601f168201915b5050505050815260200160038201805461112290611c24565b80601f016020809104026020016040519081016040528092919081815260200182805461114e90611c24565b80156111995780601f1061117057610100808354040283529160200191611199565b820191905f5260205f20905b81548152906001019060200180831161117c57829003601f168201915b5050509183525050600482015460208201526005820154604082015260069091015460ff16151560609091015292915050565b5f807fb4e6c1efed488648186d230c0fa2902d2f18aa28522c67ccaf0318e824dcc35f8a8a8a604051611200929190611dd4565b60405180910390208989604051611218929190611dd4565b604051908190038120611259949392918a906020019485526001600160a01b0393909316602085015260408401919091526060830152608082015260a00190565b6040516020818303038152906040528051906020012090505f61127b82611337565b90505f6112bd8287878080601f0160208091040260200160405190810160405280939291908181526020018383808284375f9201919091525061136392505050565b6001600160a01b03163314935050505098975050505050505050565b60606113057f00000000000000000000000000000000000000000000000000000000000000005f61138b565b905090565b60606113057f0000000000000000000000000000000000000000000000000000000000000000600161138b565b5f610e10611343611434565b8360405161190160f01b8152600281019290925260228201526042902090565b5f805f80611371868661155d565b92509250925061138182826115a6565b5090949350505050565b606060ff83146113a55761139e83611662565b9050610e10565b8180546113b190611c24565b80601f01602080910402602001604051908101604052809291908181526020018280546113dd90611c24565b80156114285780601f106113ff57610100808354040283529160200191611428565b820191905f5260205f20905b81548152906001019060200180831161140b57829003601f168201915b50505050509050610e10565b5f306001600160a01b037f00000000000000000000000000000000000000000000000000000000000000001614801561148c57507f000000000000000000000000000000000000000000000000000000000000000046145b156114b657507f000000000000000000000000000000000000000000000000000000000000000090565b611305604080517f8b73c3c69bb8fe3d512ecc4cf759cc79239f7b179b0ffacaa9a75d522b39400f60208201527f0000000000000000000000000000000000000000000000000000000000000000918101919091527f000000000000000000000000000000000000000000000000000000000000000060608201524660808201523060a08201525f9060c00160405160208183030381529060405280519060200120905090565b5f805f8351604103611594576020840151604085015160608601515f1a6115868882858561169f565b95509550955050505061159f565b505081515f91506002905b9250925092565b5f8260038111156115b9576115b9611de3565b036115c2575050565b60018260038111156115d6576115d6611de3565b036115f45760405163f645eedf60e01b815260040160405180910390fd5b600282600381111561160857611608611de3565b036116295760405163fce698f760e01b8152600481018290526024016103f4565b600382600381111561163d5761163d611de3565b0361165e576040516335e2f38360e21b8152600481018290526024016103f4565b5050565b60605f61166e83611767565b6040805160208082528183019092529192505f91906020820181803683375050509182525060208101929092525090565b5f80807f7fffffffffffffffffffffffffffffff5d576e7357a4501ddfe92f46681b20a08411156116d857505f9150600390508261175d565b604080515f808252602082018084528a905260ff891692820192909252606081018790526080810186905260019060a0016020604051602081039080840390855afa158015611729573d5f803e3d5ffd5b5050604051601f1901519150506001600160a01b03811661175457505f92506001915082905061175d565b92505f91508190505b9450945094915050565b5f60ff8216601f811115610e1057604051632cd44ac360e21b815260040160405180910390fd5b80356001600160a01b03811681146117a4575f80fd5b919050565b5f80604083850312156117ba575f80fd5b6117c38361178e565b946020939093013593505050565b5f8083601f8401126117e1575f80fd5b50813567ffffffffffffffff8111156117f8575f80fd5b60208301915083602082850101111561180f575f80fd5b9250929050565b5f805f805f805f8060a0898b03121561182d575f80fd5b6118368961178e565b9750602089013567ffffffffffffffff80821115611852575f80fd5b61185e8c838d016117d1565b909950975060408b0135915080821115611876575f80fd5b6118828c838d016117d1565b909750955060608b0135945060808b01359150808211156118a1575f80fd5b506118ae8b828c016117d1565b999c989b5096995094979396929594505050565b5f602082840312156118d2575f80fd5b5035919050565b5f81518084525f5b818110156118fd576020818501810151868301820152016118e1565b505f602082860101526020601f19601f83011685010191505092915050565b6001600160a01b0388811682528716602082015260e0604082018190525f90611947908301886118d9565b828103606084015261195981886118d9565b6080840196909652505060a0810192909252151560c090910152949350505050565b8715158152861515602082015285151560408201526001600160a01b0385811660608301528416608082015260e060a082018190525f906119be908301856118d9565b90508260c083015298975050505050505050565b60ff60f81b881681525f602060e060208401526119f260e084018a6118d9565b8381036040850152611a04818a6118d9565b606085018990526001600160a01b038816608086015260a0850187905284810360c0860152855180825260208088019350909101905f5b81811015611a5757835183529284019291840191600101611a3b565b50909c9b505050505050505050505050565b5f60208284031215611a79575f80fd5b611a828261178e565b9392505050565b5f805f8060808587031215611a9c575f80fd5b611aa58561178e565b966020860135965060408601359560600135945092505050565b602080825282518282018190525f9190848201906040850190845b81811015611af657835183529284019291840191600101611ada565b50909695505050505050565b602081525f60018060a01b0380845116602084015280602085015116604084015250604083015160e06060840152611b3e6101008401826118d9565b90506060840151601f19848303016080850152611b5b82826118d9565b915050608084015160a084015260a084015160c084015260c0840151151560e08401528091505092915050565b5f60208284031215611b98575f80fd5b5051919050565b5f60208284031215611baf575f80fd5b81518015158114611a82575f80fd5b5f6bffffffffffffffffffffffff19808a60601b168352808960601b1660148401525085876028840137858201602881015f815285878237506028940193840192909252505060480195945050505050565b634e487b7160e01b5f52604160045260245ffd5b600181811c90821680611c3857607f821691505b602082108103611c5657634e487b7160e01b5f52602260045260245ffd5b50919050565b601f821115611ca357805f5260205f20601f840160051c81016020851015611c815750805b601f840160051c820191505b81811015611ca0575f8155600101611c8d565b50505b505050565b815167ffffffffffffffff811115611cc257611cc2611c10565b611cd681611cd08454611c24565b84611c5c565b602080601f831160018114611d09575f8415611cf25750858301515b5f19600386901b1c1916600185901b178555611d60565b5f85815260208120601f198616915b82811015611d3757888601518255948401946001909101908401611d18565b5085821015611d5457878501515f19600388901b60f8161c191681555b505060018460011b0185555b505050505050565b60208152816020820152818360408301375f818301604090810191909152601f909201601f19160101919050565b634e487b7160e01b5f52601160045260245ffd5b80820180821115610e1057610e10611d96565b8082028115828204841417610e1057610e10611d96565b818382375f9101908152919050565b634e487b7160e01b5f52602160045260245ffdfea2646970667358221220d76ce3ac32b7d0898f6089f65d9d8e41682c7be3d0dc06d7fd24a54d7d4cde9864736f6c63430008180033","opcodes":"PUSH2 0x160 PUSH1 0x40 MSTORE CALLVALUE DUP1 ISZERO PUSH3 0x11 JUMPI PUSH0 DUP1 REVERT JUMPDEST POP PUSH1 0x40 MLOAD PUSH3 0x2259 CODESIZE SUB DUP1 PUSH3 0x2259 DUP4 CODECOPY DUP2 ADD PUSH1 0x40 DUP2 SWAP1 MSTORE PUSH3 0x34 SWAP2 PUSH3 0x1CF JUMP JUMPDEST PUSH1 0x40 DUP1 MLOAD DUP1 DUP3 ADD DUP3 MSTORE PUSH1 0xF DUP2 MSTORE PUSH15 0x437265646F72615265676973747279 PUSH1 0x88 SHL PUSH1 0x20 DUP1 DUP4 ADD SWAP2 SWAP1 SWAP2 MSTORE DUP3 MLOAD DUP1 DUP5 ADD SWAP1 SWAP4 MSTORE PUSH1 0x1 DUP4 MSTORE PUSH1 0x31 PUSH1 0xF8 SHL SWAP1 DUP4 ADD MSTORE SWAP1 PUSH3 0x7F DUP3 PUSH0 PUSH3 0x14C JUMP JUMPDEST PUSH2 0x120 MSTORE PUSH3 0x90 DUP2 PUSH1 0x1 PUSH3 0x14C JUMP JUMPDEST PUSH2 0x140 MSTORE DUP2 MLOAD PUSH1 0x20 DUP1 DUP5 ADD SWAP2 SWAP1 SWAP2 KECCAK256 PUSH1 0xE0 MSTORE DUP2 MLOAD SWAP1 DUP3 ADD KECCAK256 PUSH2 0x100 MSTORE CHAINID PUSH1 0xA0 MSTORE PUSH3 0x11D PUSH1 0xE0 MLOAD PUSH2 0x100 MLOAD PUSH1 0x40 DUP1 MLOAD PUSH32 0x8B73C3C69BB8FE3D512ECC4CF759CC79239F7B179B0FFACAA9A75D522B39400F PUSH1 0x20 DUP3 ADD MSTORE SWAP1 DUP2 ADD SWAP3 SWAP1 SWAP3 MSTORE PUSH1 0x60 DUP3 ADD MSTORE CHAINID PUSH1 0x80 DUP3 ADD MSTORE ADDRESS PUSH1 0xA0 DUP3 ADD MSTORE PUSH0 SWAP1 PUSH1 0xC0 ADD PUSH1 0x40 MLOAD PUSH1 0x20 DUP2 DUP4 SUB SUB DUP2 MSTORE SWAP1 PUSH1 0x40 MSTORE DUP1 MLOAD SWAP1 PUSH1 0x20 ADD KECCAK256 SWAP1 POP SWAP1 JUMP JUMPDEST PUSH1 0x80 MSTORE POP POP ADDRESS PUSH1 0xC0 MSTORE PUSH1 0x2 DUP1 SLOAD PUSH1 0x1 PUSH1 0x1 PUSH1 0xA0 SHL SUB NOT AND PUSH1 0x1 PUSH1 0x1 PUSH1 0xA0 SHL SUB SWAP3 SWAP1 SWAP3 AND SWAP2 SWAP1 SWAP2 OR SWAP1 SSTORE PUSH3 0x3DA JUMP JUMPDEST PUSH0 PUSH1 0x20 DUP4 MLOAD LT ISZERO PUSH3 0x16B JUMPI PUSH3 0x163 DUP4 PUSH3 0x184 JUMP JUMPDEST SWAP1 POP PUSH3 0x17E JUMP JUMPDEST DUP2 PUSH3 0x178 DUP5 DUP3 PUSH3 0x29C JUMP JUMPDEST POP PUSH1 0xFF SWAP1 POP JUMPDEST SWAP3 SWAP2 POP POP JUMP JUMPDEST PUSH0 DUP1 DUP3 SWAP1 POP PUSH1 0x1F DUP2 MLOAD GT ISZERO PUSH3 0x1BA JUMPI DUP3 PUSH1 0x40 MLOAD PUSH4 0x305A27A9 PUSH1 0xE0 SHL DUP2 MSTORE PUSH1 0x4 ADD PUSH3 0x1B1 SWAP2 SWAP1 PUSH3 0x368 JUMP JUMPDEST PUSH1 0x40 MLOAD DUP1 SWAP2 SUB SWAP1 REVERT JUMPDEST DUP1 MLOAD PUSH3 0x1C7 DUP3 PUSH3 0x3B6 JUMP JUMPDEST OR SWAP4 SWAP3 POP POP POP JUMP JUMPDEST PUSH0 PUSH1 0x20 DUP3 DUP5 SUB SLT ISZERO PUSH3 0x1E0 JUMPI PUSH0 DUP1 REVERT JUMPDEST DUP2 MLOAD PUSH1 0x1 PUSH1 0x1 PUSH1 0xA0 SHL SUB DUP2 AND DUP2 EQ PUSH3 0x1F7 JUMPI PUSH0 DUP1 REVERT JUMPDEST SWAP4 SWAP3 POP POP POP JUMP JUMPDEST PUSH4 0x4E487B71 PUSH1 0xE0 SHL PUSH0 MSTORE PUSH1 0x41 PUSH1 0x4 MSTORE PUSH1 0x24 PUSH0 REVERT JUMPDEST PUSH1 0x1 DUP2 DUP2 SHR SWAP1 DUP3 AND DUP1 PUSH3 0x227 JUMPI PUSH1 0x7F DUP3 AND SWAP2 POP JUMPDEST PUSH1 0x20 DUP3 LT DUP2 SUB PUSH3 0x246 JUMPI PUSH4 0x4E487B71 PUSH1 0xE0 SHL PUSH0 MSTORE PUSH1 0x22 PUSH1 0x4 MSTORE PUSH1 0x24 PUSH0 REVERT JUMPDEST POP SWAP2 SWAP1 POP JUMP JUMPDEST PUSH1 0x1F DUP3 GT ISZERO PUSH3 0x297 JUMPI DUP1 PUSH0 MSTORE PUSH1 0x20 PUSH0 KECCAK256 PUSH1 0x1F DUP5 ADD PUSH1 0x5 SHR DUP2 ADD PUSH1 0x20 DUP6 LT ISZERO PUSH3 0x273 JUMPI POP DUP1 JUMPDEST PUSH1 0x1F DUP5 ADD PUSH1 0x5 SHR DUP3 ADD SWAP2 POP JUMPDEST DUP2 DUP2 LT ISZERO PUSH3 0x294 JUMPI PUSH0 DUP2 SSTORE PUSH1 0x1 ADD PUSH3 0x27F JUMP JUMPDEST POP POP JUMPDEST POP POP POP JUMP JUMPDEST DUP2 MLOAD PUSH1 0x1 PUSH1 0x1 PUSH1 0x40 SHL SUB DUP2 GT ISZERO PUSH3 0x2B8 JUMPI PUSH3 0x2B8 PUSH3 0x1FE JUMP JUMPDEST PUSH3 0x2D0 DUP2 PUSH3 0x2C9 DUP5 SLOAD PUSH3 0x212 JUMP JUMPDEST DUP5 PUSH3 0x24C JUMP JUMPDEST PUSH1 0x20 DUP1 PUSH1 0x1F DUP4 GT PUSH1 0x1 DUP2 EQ PUSH3 0x306 JUMPI PUSH0 DUP5 ISZERO PUSH3 0x2EE JUMPI POP DUP6 DUP4 ADD MLOAD JUMPDEST PUSH0 NOT PUSH1 0x3 DUP7 SWAP1 SHL SHR NOT AND PUSH1 0x1 DUP6 SWAP1 SHL OR DUP6 SSTORE PUSH3 0x360 JUMP JUMPDEST PUSH0 DUP6 DUP2 MSTORE PUSH1 0x20 DUP2 KECCAK256 PUSH1 0x1F NOT DUP7 AND SWAP2 JUMPDEST DUP3 DUP2 LT ISZERO PUSH3 0x336 JUMPI DUP9 DUP7 ADD MLOAD DUP3 SSTORE SWAP5 DUP5 ADD SWAP5 PUSH1 0x1 SWAP1 SWAP2 ADD SWAP1 DUP5 ADD PUSH3 0x315 JUMP JUMPDEST POP DUP6 DUP3 LT ISZERO PUSH3 0x354 JUMPI DUP8 DUP6 ADD MLOAD PUSH0 NOT PUSH1 0x3 DUP9 SWAP1 SHL PUSH1 0xF8 AND SHR NOT AND DUP2 SSTORE JUMPDEST POP POP PUSH1 0x1 DUP5 PUSH1 0x1 SHL ADD DUP6 SSTORE JUMPDEST POP POP POP POP POP POP JUMP JUMPDEST PUSH0 PUSH1 0x20 DUP1 DUP4 MSTORE DUP4 MLOAD DUP1 PUSH1 0x20 DUP6 ADD MSTORE PUSH0 JUMPDEST DUP2 DUP2 LT ISZERO PUSH3 0x396 JUMPI DUP6 DUP2 ADD DUP4 ADD MLOAD DUP6 DUP3 ADD PUSH1 0x40 ADD MSTORE DUP3 ADD PUSH3 0x378 JUMP JUMPDEST POP PUSH0 PUSH1 0x40 DUP3 DUP7 ADD ADD MSTORE PUSH1 0x40 PUSH1 0x1F NOT PUSH1 0x1F DUP4 ADD AND DUP6 ADD ADD SWAP3 POP POP POP SWAP3 SWAP2 POP POP JUMP JUMPDEST DUP1 MLOAD PUSH1 0x20 DUP1 DUP4 ADD MLOAD SWAP2 SWAP1 DUP2 LT ISZERO PUSH3 0x246 JUMPI PUSH0 NOT PUSH1 0x20 SWAP2 SWAP1 SWAP2 SUB PUSH1 0x3 SHL SHL AND SWAP2 SWAP1 POP JUMP JUMPDEST PUSH1 0x80 MLOAD PUSH1 0xA0 MLOAD PUSH1 0xC0 MLOAD PUSH1 0xE0 MLOAD PUSH2 0x100 MLOAD PUSH2 0x120 MLOAD PUSH2 0x140 MLOAD PUSH2 0x1E2D PUSH3 0x42C PUSH0 CODECOPY PUSH0 PUSH2 0x1311 ADD MSTORE PUSH0 PUSH2 0x12E0 ADD MSTORE PUSH0 PUSH2 0x150D ADD MSTORE PUSH0 PUSH2 0x14E5 ADD MSTORE PUSH0 PUSH2 0x1440 ADD MSTORE PUSH0 PUSH2 0x146A ADD MSTORE PUSH0 PUSH2 0x1494 ADD MSTORE PUSH2 0x1E2D PUSH0 RETURN INVALID PUSH1 0x80 PUSH1 0x40 MSTORE CALLVALUE DUP1 ISZERO PUSH2 0xF JUMPI PUSH0 DUP1 REVERT JUMPDEST POP PUSH1 0x4 CALLDATASIZE LT PUSH2 0xE4 JUMPI PUSH0 CALLDATALOAD PUSH1 0xE0 SHR DUP1 PUSH4 0x84B0196E GT PUSH2 0x88 JUMPI DUP1 PUSH4 0xC6F3A9AA GT PUSH2 0x63 JUMPI DUP1 PUSH4 0xC6F3A9AA EQ PUSH2 0x221 JUMPI DUP1 PUSH4 0xCA6EEC78 EQ PUSH2 0x244 JUMPI DUP1 PUSH4 0xCFAA98EB EQ PUSH2 0x257 JUMPI DUP1 PUSH4 0xD1BE4883 EQ PUSH2 0x277 JUMPI PUSH0 DUP1 REVERT JUMPDEST DUP1 PUSH4 0x84B0196E EQ PUSH2 0x1D2 JUMPI DUP1 PUSH4 0xBB508A5A EQ PUSH2 0x1ED JUMPI DUP1 PUSH4 0xBBE939F1 EQ PUSH2 0x20C JUMPI PUSH0 DUP1 REVERT JUMPDEST DUP1 PUSH4 0x27D35000 GT PUSH2 0xC3 JUMPI DUP1 PUSH4 0x27D35000 EQ PUSH2 0x14C JUMPI DUP1 PUSH4 0x299D0348 EQ PUSH2 0x173 JUMPI DUP1 PUSH4 0x4DBF87CC EQ PUSH2 0x199 JUMPI DUP1 PUSH4 0x4FD04D22 EQ PUSH2 0x1BF JUMPI PUSH0 DUP1 REVERT JUMPDEST DUP1 PUSH3 0x435DA5 EQ PUSH2 0xE8 JUMPI DUP1 PUSH4 0x21B22660 EQ PUSH2 0x118 JUMPI DUP1 PUSH4 0x236C97E2 EQ PUSH2 0x139 JUMPI JUMPDEST PUSH0 DUP1 REVERT JUMPDEST PUSH1 0x2 SLOAD PUSH2 0xFB SWAP1 PUSH1 0x1 PUSH1 0x1 PUSH1 0xA0 SHL SUB AND DUP2 JUMP JUMPDEST PUSH1 0x40 MLOAD PUSH1 0x1 PUSH1 0x1 PUSH1 0xA0 SHL SUB SWAP1 SWAP2 AND DUP2 MSTORE PUSH1 0x20 ADD JUMPDEST PUSH1 0x40 MLOAD DUP1 SWAP2 SUB SWAP1 RETURN JUMPDEST PUSH2 0x12B PUSH2 0x126 CALLDATASIZE PUSH1 0x4 PUSH2 0x17A9 JUMP JUMPDEST PUSH2 0x297 JUMP JUMPDEST PUSH1 0x40 MLOAD SWAP1 DUP2 MSTORE PUSH1 0x20 ADD PUSH2 0x10F JUMP JUMPDEST PUSH2 0x12B PUSH2 0x147 CALLDATASIZE PUSH1 0x4 PUSH2 0x1816 JUMP JUMPDEST PUSH2 0x2C2 JUMP JUMPDEST PUSH2 0x12B PUSH32 0xB4E6C1EFED488648186D230C0FA2902D2F18AA28522C67CCAF0318E824DCC35F DUP2 JUMP JUMPDEST PUSH2 0x186 PUSH2 0x181 CALLDATASIZE PUSH1 0x4 PUSH2 0x18C2 JUMP JUMPDEST PUSH2 0x6EF JUMP JUMPDEST PUSH1 0x40 MLOAD PUSH2 0x10F SWAP8 SWAP7 SWAP6 SWAP5 SWAP4 SWAP3 SWAP2 SWAP1 PUSH2 0x191C JUMP JUMPDEST PUSH2 0x1AC PUSH2 0x1A7 CALLDATASIZE PUSH1 0x4 PUSH2 0x18C2 JUMP JUMPDEST PUSH2 0x847 JUMP JUMPDEST PUSH1 0x40 MLOAD PUSH2 0x10F SWAP8 SWAP7 SWAP6 SWAP5 SWAP4 SWAP3 SWAP2 SWAP1 PUSH2 0x197B JUMP JUMPDEST PUSH2 0x12B PUSH2 0x1CD CALLDATASIZE PUSH1 0x4 PUSH2 0x17A9 JUMP JUMPDEST PUSH2 0xA3F JUMP JUMPDEST PUSH2 0x1DA PUSH2 0xA58 JUMP JUMPDEST PUSH1 0x40 MLOAD PUSH2 0x10F SWAP8 SWAP7 SWAP6 SWAP5 SWAP4 SWAP3 SWAP2 SWAP1 PUSH2 0x19D2 JUMP JUMPDEST PUSH2 0x12B PUSH2 0x1FB CALLDATASIZE PUSH1 0x4 PUSH2 0x1A69 JUMP JUMPDEST PUSH1 0x6 PUSH1 0x20 MSTORE PUSH0 SWAP1 DUP2 MSTORE PUSH1 0x40 SWAP1 KECCAK256 SLOAD DUP2 JUMP JUMPDEST PUSH2 0x21F PUSH2 0x21A CALLDATASIZE PUSH1 0x4 PUSH2 0x1A89 JUMP JUMPDEST PUSH2 0xA9A JUMP JUMPDEST STOP JUMPDEST PUSH2 0x234 PUSH2 0x22F CALLDATASIZE PUSH1 0x4 PUSH2 0x1A69 JUMP JUMPDEST PUSH2 0xD30 JUMP JUMPDEST PUSH1 0x40 MLOAD SWAP1 ISZERO ISZERO DUP2 MSTORE PUSH1 0x20 ADD PUSH2 0x10F JUMP JUMPDEST PUSH2 0x21F PUSH2 0x252 CALLDATASIZE PUSH1 0x4 PUSH2 0x18C2 JUMP JUMPDEST PUSH2 0xE16 JUMP JUMPDEST PUSH2 0x26A PUSH2 0x265 CALLDATASIZE PUSH1 0x4 PUSH2 0x1A69 JUMP JUMPDEST PUSH2 0xF8E JUMP JUMPDEST PUSH1 0x40 MLOAD PUSH2 0x10F SWAP2 SWAP1 PUSH2 0x1ABF JUMP JUMPDEST PUSH2 0x28A PUSH2 0x285 CALLDATASIZE PUSH1 0x4 PUSH2 0x18C2 JUMP JUMPDEST PUSH2 0xFF7 JUMP JUMPDEST PUSH1 0x40 MLOAD PUSH2 0x10F SWAP2 SWAP1 PUSH2 0x1B02 JUMP JUMPDEST PUSH1 0x4 PUSH1 0x20 MSTORE DUP2 PUSH0 MSTORE PUSH1 0x40 PUSH0 KECCAK256 DUP2 DUP2 SLOAD DUP2 LT PUSH2 0x2B0 JUMPI PUSH0 DUP1 REVERT JUMPDEST SWAP1 PUSH0 MSTORE PUSH1 0x20 PUSH0 KECCAK256 ADD PUSH0 SWAP2 POP SWAP2 POP POP SLOAD DUP2 JUMP JUMPDEST PUSH1 0x2 SLOAD PUSH1 0x40 DUP1 MLOAD PUSH4 0x80229273 PUSH1 0xE0 SHL DUP2 MSTORE SWAP1 MLOAD PUSH0 SWAP3 PUSH1 0x1 PUSH1 0x1 PUSH1 0xA0 SHL SUB AND SWAP2 PUSH4 0x91D14854 SWAP2 DUP4 SWAP2 PUSH4 0x80229273 SWAP2 PUSH1 0x4 DUP1 DUP4 ADD SWAP3 PUSH1 0x20 SWAP3 SWAP2 SWAP1 DUP3 SWAP1 SUB ADD DUP2 DUP7 GAS STATICCALL ISZERO DUP1 ISZERO PUSH2 0x311 JUMPI RETURNDATASIZE PUSH0 DUP1 RETURNDATACOPY RETURNDATASIZE PUSH0 REVERT JUMPDEST POP POP POP POP PUSH1 0x40 MLOAD RETURNDATASIZE PUSH1 0x1F NOT PUSH1 0x1F DUP3 ADD AND DUP3 ADD DUP1 PUSH1 0x40 MSTORE POP DUP2 ADD SWAP1 PUSH2 0x335 SWAP2 SWAP1 PUSH2 0x1B88 JUMP JUMPDEST PUSH1 0x40 MLOAD PUSH1 0x1 PUSH1 0x1 PUSH1 0xE0 SHL SUB NOT PUSH1 0xE0 DUP5 SWAP1 SHL AND DUP2 MSTORE PUSH1 0x4 DUP2 ADD SWAP2 SWAP1 SWAP2 MSTORE CALLER PUSH1 0x24 DUP3 ADD MSTORE PUSH1 0x44 ADD PUSH1 0x20 PUSH1 0x40 MLOAD DUP1 DUP4 SUB DUP2 DUP7 GAS STATICCALL ISZERO DUP1 ISZERO PUSH2 0x375 JUMPI RETURNDATASIZE PUSH0 DUP1 RETURNDATACOPY RETURNDATASIZE PUSH0 REVERT JUMPDEST POP POP POP POP PUSH1 0x40 MLOAD RETURNDATASIZE PUSH1 0x1F NOT PUSH1 0x1F DUP3 ADD AND DUP3 ADD DUP1 PUSH1 0x40 MSTORE POP DUP2 ADD SWAP1 PUSH2 0x399 SWAP2 SWAP1 PUSH2 0x1B9F JUMP JUMPDEST PUSH2 0x3FD JUMPI PUSH1 0x40 MLOAD PUSH3 0x461BCD PUSH1 0xE5 SHL DUP2 MSTORE PUSH1 0x20 PUSH1 0x4 DUP3 ADD MSTORE PUSH1 0x2A PUSH1 0x24 DUP3 ADD MSTORE PUSH32 0x43726564656E7469616C52656769737472793A204D7573742062652049535355 PUSH1 0x44 DUP3 ADD MSTORE PUSH10 0x22A92FA7A32324A1A2A9 PUSH1 0xB1 SHL PUSH1 0x64 DUP3 ADD MSTORE PUSH1 0x84 ADD JUMPDEST PUSH1 0x40 MLOAD DUP1 SWAP2 SUB SWAP1 REVERT JUMPDEST PUSH2 0x40D DUP10 DUP10 DUP10 DUP10 DUP10 DUP10 DUP10 DUP10 PUSH2 0x11CC JUMP JUMPDEST PUSH2 0x46E JUMPI PUSH1 0x40 MLOAD PUSH3 0x461BCD PUSH1 0xE5 SHL DUP2 MSTORE PUSH1 0x20 PUSH1 0x4 DUP3 ADD MSTORE PUSH1 0x2C PUSH1 0x24 DUP3 ADD MSTORE PUSH32 0x43726564656E7469616C52656769737472793A20496E76616C69642069737375 PUSH1 0x44 DUP3 ADD MSTORE PUSH12 0x6572207369676E6174757265 PUSH1 0xA0 SHL PUSH1 0x64 DUP3 ADD MSTORE PUSH1 0x84 ADD PUSH2 0x3F4 JUMP JUMPDEST CALLER DUP10 DUP10 DUP10 DUP10 DUP10 TIMESTAMP PUSH1 0x40 MLOAD PUSH1 0x20 ADD PUSH2 0x48B SWAP8 SWAP7 SWAP6 SWAP5 SWAP4 SWAP3 SWAP2 SWAP1 PUSH2 0x1BBE JUMP JUMPDEST PUSH1 0x40 DUP1 MLOAD PUSH1 0x1F NOT DUP2 DUP5 SUB ADD DUP2 MSTORE SWAP2 DUP2 MSTORE DUP2 MLOAD PUSH1 0x20 SWAP3 DUP4 ADD KECCAK256 PUSH0 DUP2 DUP2 MSTORE PUSH1 0x3 SWAP1 SWAP4 MSTORE SWAP2 KECCAK256 PUSH1 0x4 ADD SLOAD SWAP1 SWAP2 POP ISZERO PUSH2 0x50D JUMPI PUSH1 0x40 MLOAD PUSH3 0x461BCD PUSH1 0xE5 SHL DUP2 MSTORE PUSH1 0x20 PUSH1 0x4 DUP3 ADD MSTORE PUSH1 0x22 PUSH1 0x24 DUP3 ADD MSTORE PUSH32 0x43726564656E7469616C52656769737472793A20416C72656164792065786973 PUSH1 0x44 DUP3 ADD MSTORE PUSH2 0x7473 PUSH1 0xF0 SHL PUSH1 0x64 DUP3 ADD MSTORE PUSH1 0x84 ADD PUSH2 0x3F4 JUMP JUMPDEST PUSH1 0x40 MLOAD DUP1 PUSH1 0xE0 ADD PUSH1 0x40 MSTORE DUP1 CALLER PUSH1 0x1 PUSH1 0x1 PUSH1 0xA0 SHL SUB AND DUP2 MSTORE PUSH1 0x20 ADD DUP11 PUSH1 0x1 PUSH1 0x1 PUSH1 0xA0 SHL SUB AND DUP2 MSTORE PUSH1 0x20 ADD DUP10 DUP10 DUP1 DUP1 PUSH1 0x1F ADD PUSH1 0x20 DUP1 SWAP2 DIV MUL PUSH1 0x20 ADD PUSH1 0x40 MLOAD SWAP1 DUP2 ADD PUSH1 0x40 MSTORE DUP1 SWAP4 SWAP3 SWAP2 SWAP1 DUP2 DUP2 MSTORE PUSH1 0x20 ADD DUP4 DUP4 DUP1 DUP3 DUP5 CALLDATACOPY PUSH0 SWAP3 ADD SWAP2 SWAP1 SWAP2 MSTORE POP POP POP SWAP1 DUP3 MSTORE POP PUSH1 0x40 DUP1 MLOAD PUSH1 0x20 PUSH1 0x1F DUP11 ADD DUP2 SWAP1 DIV DUP2 MUL DUP3 ADD DUP2 ADD SWAP1 SWAP3 MSTORE DUP9 DUP2 MSTORE SWAP2 DUP2 ADD SWAP2 SWAP1 DUP10 SWAP1 DUP10 SWAP1 DUP2 SWAP1 DUP5 ADD DUP4 DUP3 DUP1 DUP3 DUP5 CALLDATACOPY PUSH0 SWAP3 ADD DUP3 SWAP1 MSTORE POP SWAP4 DUP6 MSTORE POP POP TIMESTAMP PUSH1 0x20 DUP1 DUP6 ADD SWAP2 SWAP1 SWAP2 MSTORE PUSH1 0x40 DUP1 DUP6 ADD DUP11 SWAP1 MSTORE PUSH1 0x60 SWAP1 SWAP5 ADD DUP4 SWAP1 MSTORE DUP6 DUP4 MSTORE PUSH1 0x3 DUP2 MSTORE SWAP2 DUP4 SWAP1 KECCAK256 DUP5 MLOAD DUP2 SLOAD PUSH1 0x1 PUSH1 0x1 PUSH1 0xA0 SHL SUB NOT SWAP1 DUP2 AND PUSH1 0x1 PUSH1 0x1 PUSH1 0xA0 SHL SUB SWAP3 DUP4 AND OR DUP4 SSTORE SWAP4 DUP7 ADD MLOAD PUSH1 0x1 DUP4 ADD DUP1 SLOAD SWAP1 SWAP6 AND SWAP2 AND OR SWAP1 SWAP3 SSTORE POP SWAP1 DUP3 ADD MLOAD PUSH1 0x2 DUP3 ADD SWAP1 PUSH2 0x610 SWAP1 DUP3 PUSH2 0x1CA8 JUMP JUMPDEST POP PUSH1 0x60 DUP3 ADD MLOAD PUSH1 0x3 DUP3 ADD SWAP1 PUSH2 0x625 SWAP1 DUP3 PUSH2 0x1CA8 JUMP JUMPDEST POP PUSH1 0x80 DUP3 ADD MLOAD PUSH1 0x4 DUP3 DUP2 ADD SWAP2 SWAP1 SWAP2 SSTORE PUSH1 0xA0 DUP4 ADD MLOAD PUSH1 0x5 DUP1 DUP5 ADD SWAP2 SWAP1 SWAP2 SSTORE PUSH1 0xC0 SWAP1 SWAP4 ADD MLOAD PUSH1 0x6 SWAP1 SWAP3 ADD DUP1 SLOAD PUSH1 0xFF NOT AND SWAP3 ISZERO ISZERO SWAP3 SWAP1 SWAP3 OR SWAP1 SWAP2 SSTORE PUSH1 0x1 PUSH1 0x1 PUSH1 0xA0 SHL SUB DUP12 AND PUSH0 DUP2 DUP2 MSTORE PUSH1 0x20 SWAP3 DUP4 MSTORE PUSH1 0x40 DUP1 DUP3 KECCAK256 DUP1 SLOAD PUSH1 0x1 DUP2 DUP2 ADD DUP4 SSTORE SWAP2 DUP5 MSTORE DUP6 DUP5 KECCAK256 ADD DUP8 SWAP1 SSTORE CALLER DUP1 DUP5 MSTORE SWAP6 DUP6 MSTORE DUP2 DUP4 KECCAK256 DUP1 SLOAD SWAP2 DUP3 ADD DUP2 SSTORE DUP4 MSTORE SWAP4 SWAP1 SWAP2 KECCAK256 SWAP1 SWAP3 ADD DUP5 SWAP1 SSTORE SWAP1 MLOAD SWAP1 SWAP2 SWAP1 DUP4 SWAP1 PUSH32 0x8FBD2B7CFB4DB91A4F4B683FC96C73B5ADC9F9AEE31B983DF603621B12C54987 SWAP1 PUSH2 0x6DB SWAP1 DUP14 SWAP1 DUP14 SWAP1 PUSH2 0x1D68 JUMP JUMPDEST PUSH1 0x40 MLOAD DUP1 SWAP2 SUB SWAP1 LOG4 SWAP9 SWAP8 POP POP POP POP POP POP POP POP JUMP JUMPDEST PUSH1 0x3 PUSH1 0x20 MSTORE PUSH0 SWAP1 DUP2 MSTORE PUSH1 0x40 SWAP1 KECCAK256 DUP1 SLOAD PUSH1 0x1 DUP3 ADD SLOAD PUSH1 0x2 DUP4 ADD DUP1 SLOAD PUSH1 0x1 PUSH1 0x1 PUSH1 0xA0 SHL SUB SWAP4 DUP5 AND SWAP5 SWAP3 SWAP1 SWAP4 AND SWAP3 PUSH2 0x723 SWAP1 PUSH2 0x1C24 JUMP JUMPDEST DUP1 PUSH1 0x1F ADD PUSH1 0x20 DUP1 SWAP2 DIV MUL PUSH1 0x20 ADD PUSH1 0x40 MLOAD SWAP1 DUP2 ADD PUSH1 0x40 MSTORE DUP1 SWAP3 SWAP2 SWAP1 DUP2 DUP2 MSTORE PUSH1 0x20 ADD DUP3 DUP1 SLOAD PUSH2 0x74F SWAP1 PUSH2 0x1C24 JUMP JUMPDEST DUP1 ISZERO PUSH2 0x79A JUMPI DUP1 PUSH1 0x1F LT PUSH2 0x771 JUMPI PUSH2 0x100 DUP1 DUP4 SLOAD DIV MUL DUP4 MSTORE SWAP2 PUSH1 0x20 ADD SWAP2 PUSH2 0x79A JUMP JUMPDEST DUP3 ADD SWAP2 SWAP1 PUSH0 MSTORE PUSH1 0x20 PUSH0 KECCAK256 SWAP1 JUMPDEST DUP2 SLOAD DUP2 MSTORE SWAP1 PUSH1 0x1 ADD SWAP1 PUSH1 0x20 ADD DUP1 DUP4 GT PUSH2 0x77D JUMPI DUP3 SWAP1 SUB PUSH1 0x1F AND DUP3 ADD SWAP2 JUMPDEST POP POP POP POP POP SWAP1 DUP1 PUSH1 0x3 ADD DUP1 SLOAD PUSH2 0x7AF SWAP1 PUSH2 0x1C24 JUMP JUMPDEST DUP1 PUSH1 0x1F ADD PUSH1 0x20 DUP1 SWAP2 DIV MUL PUSH1 0x20 ADD PUSH1 0x40 MLOAD SWAP1 DUP2 ADD PUSH1 0x40 MSTORE DUP1 SWAP3 SWAP2 SWAP1 DUP2 DUP2 MSTORE PUSH1 0x20 ADD DUP3 DUP1 SLOAD PUSH2 0x7DB SWAP1 PUSH2 0x1C24 JUMP JUMPDEST DUP1 ISZERO PUSH2 0x826 JUMPI DUP1 PUSH1 0x1F LT PUSH2 0x7FD JUMPI PUSH2 0x100 DUP1 DUP4 SLOAD DIV MUL DUP4 MSTORE SWAP2 PUSH1 0x20 ADD SWAP2 PUSH2 0x826 JUMP JUMPDEST DUP3 ADD SWAP2 SWAP1 PUSH0 MSTORE PUSH1 0x20 PUSH0 KECCAK256 SWAP1 JUMPDEST DUP2 SLOAD DUP2 MSTORE SWAP1 PUSH1 0x1 ADD SWAP1 PUSH1 0x20 ADD DUP1 DUP4 GT PUSH2 0x809 JUMPI DUP3 SWAP1 SUB PUSH1 0x1F AND DUP3 ADD SWAP2 JUMPDEST POP POP POP POP PUSH1 0x4 DUP4 ADD SLOAD PUSH1 0x5 DUP5 ADD SLOAD PUSH1 0x6 SWAP1 SWAP5 ADD SLOAD SWAP3 SWAP4 SWAP1 SWAP3 SWAP1 SWAP2 POP PUSH1 0xFF AND DUP8 JUMP JUMPDEST PUSH0 DUP2 DUP2 MSTORE PUSH1 0x3 PUSH1 0x20 SWAP1 DUP2 MSTORE PUSH1 0x40 DUP1 DUP4 KECCAK256 DUP2 MLOAD PUSH1 0xE0 DUP2 ADD DUP4 MSTORE DUP2 SLOAD PUSH1 0x1 PUSH1 0x1 PUSH1 0xA0 SHL SUB SWAP1 DUP2 AND DUP3 MSTORE PUSH1 0x1 DUP4 ADD SLOAD AND SWAP4 DUP2 ADD SWAP4 SWAP1 SWAP4 MSTORE PUSH1 0x2 DUP2 ADD DUP1 SLOAD DUP6 SWAP5 DUP6 SWAP5 DUP6 SWAP5 DUP6 SWAP5 PUSH1 0x60 SWAP5 DUP7 SWAP5 DUP6 SWAP5 SWAP1 SWAP4 SWAP3 SWAP1 DUP5 ADD SWAP2 PUSH2 0x8A0 SWAP1 PUSH2 0x1C24 JUMP JUMPDEST DUP1 PUSH1 0x1F ADD PUSH1 0x20 DUP1 SWAP2 DIV MUL PUSH1 0x20 ADD PUSH1 0x40 MLOAD SWAP1 DUP2 ADD PUSH1 0x40 MSTORE DUP1 SWAP3 SWAP2 SWAP1 DUP2 DUP2 MSTORE PUSH1 0x20 ADD DUP3 DUP1 SLOAD PUSH2 0x8CC SWAP1 PUSH2 0x1C24 JUMP JUMPDEST DUP1 ISZERO PUSH2 0x917 JUMPI DUP1 PUSH1 0x1F LT PUSH2 0x8EE JUMPI PUSH2 0x100 DUP1 DUP4 SLOAD DIV MUL DUP4 MSTORE SWAP2 PUSH1 0x20 ADD SWAP2 PUSH2 0x917 JUMP JUMPDEST DUP3 ADD SWAP2 SWAP1 PUSH0 MSTORE PUSH1 0x20 PUSH0 KECCAK256 SWAP1 JUMPDEST DUP2 SLOAD DUP2 MSTORE SWAP1 PUSH1 0x1 ADD SWAP1 PUSH1 0x20 ADD DUP1 DUP4 GT PUSH2 0x8FA JUMPI DUP3 SWAP1 SUB PUSH1 0x1F AND DUP3 ADD SWAP2 JUMPDEST POP POP POP POP POP DUP2 MSTORE PUSH1 0x20 ADD PUSH1 0x3 DUP3 ADD DUP1 SLOAD PUSH2 0x930 SWAP1 PUSH2 0x1C24 JUMP JUMPDEST DUP1 PUSH1 0x1F ADD PUSH1 0x20 DUP1 SWAP2 DIV MUL PUSH1 0x20 ADD PUSH1 0x40 MLOAD SWAP1 DUP2 ADD PUSH1 0x40 MSTORE DUP1 SWAP3 SWAP2 SWAP1 DUP2 DUP2 MSTORE PUSH1 0x20 ADD DUP3 DUP1 SLOAD PUSH2 0x95C SWAP1 PUSH2 0x1C24 JUMP JUMPDEST DUP1 ISZERO PUSH2 0x9A7 JUMPI DUP1 PUSH1 0x1F LT PUSH2 0x97E JUMPI PUSH2 0x100 DUP1 DUP4 SLOAD DIV MUL DUP4 MSTORE SWAP2 PUSH1 0x20 ADD SWAP2 PUSH2 0x9A7 JUMP JUMPDEST DUP3 ADD SWAP2 SWAP1 PUSH0 MSTORE PUSH1 0x20 PUSH0 KECCAK256 SWAP1 JUMPDEST DUP2 SLOAD DUP2 MSTORE SWAP1 PUSH1 0x1 ADD SWAP1 PUSH1 0x20 ADD DUP1 DUP4 GT PUSH2 0x98A JUMPI DUP3 SWAP1 SUB PUSH1 0x1F AND DUP3 ADD SWAP2 JUMPDEST POP POP POP SWAP2 DUP4 MSTORE POP POP PUSH1 0x4 DUP3 ADD SLOAD PUSH1 0x20 DUP3 ADD MSTORE PUSH1 0x5 DUP3 ADD SLOAD PUSH1 0x40 DUP3 ADD MSTORE PUSH1 0x6 SWAP1 SWAP2 ADD SLOAD PUSH1 0xFF AND ISZERO ISZERO PUSH1 0x60 SWAP1 SWAP2 ADD MSTORE PUSH1 0xA0 DUP2 ADD MLOAD SWAP1 SWAP2 POP PUSH0 SWAP1 ISZERO DUP1 ISZERO SWAP1 PUSH2 0x9EF JUMPI POP DUP2 PUSH1 0xA0 ADD MLOAD TIMESTAMP GT JUMPDEST SWAP1 POP DUP2 PUSH1 0x80 ADD MLOAD PUSH0 EQ ISZERO DUP1 ISZERO PUSH2 0xA07 JUMPI POP DUP2 PUSH1 0xC0 ADD MLOAD ISZERO JUMPDEST DUP1 ISZERO PUSH2 0xA11 JUMPI POP DUP1 ISZERO JUMPDEST PUSH1 0xC0 DUP4 ADD MLOAD DUP4 MLOAD PUSH1 0x20 DUP6 ADD MLOAD PUSH1 0x40 DUP7 ADD MLOAD PUSH1 0x80 SWAP1 SWAP7 ADD MLOAD SWAP4 SWAP15 SWAP5 SWAP14 POP SWAP2 SWAP12 POP SWAP10 POP SWAP8 POP SWAP2 SWAP6 POP SWAP1 SWAP4 POP SWAP2 POP POP JUMP JUMPDEST PUSH1 0x5 PUSH1 0x20 MSTORE DUP2 PUSH0 MSTORE PUSH1 0x40 PUSH0 KECCAK256 DUP2 DUP2 SLOAD DUP2 LT PUSH2 0x2B0 JUMPI PUSH0 DUP1 REVERT JUMPDEST PUSH0 PUSH1 0x60 DUP1 PUSH0 DUP1 PUSH0 PUSH1 0x60 PUSH2 0xA69 PUSH2 0x12D9 JUMP JUMPDEST PUSH2 0xA71 PUSH2 0x130A JUMP JUMPDEST PUSH1 0x40 DUP1 MLOAD PUSH0 DUP1 DUP3 MSTORE PUSH1 0x20 DUP3 ADD SWAP1 SWAP3 MSTORE PUSH1 0xF PUSH1 0xF8 SHL SWAP12 SWAP4 SWAP11 POP SWAP2 SWAP9 POP CHAINID SWAP8 POP ADDRESS SWAP7 POP SWAP5 POP SWAP3 POP SWAP1 POP JUMP JUMPDEST PUSH1 0x2 SLOAD PUSH1 0x40 DUP1 MLOAD PUSH4 0x80229273 PUSH1 0xE0 SHL DUP2 MSTORE SWAP1 MLOAD PUSH1 0x1 PUSH1 0x1 PUSH1 0xA0 SHL SUB SWAP1 SWAP3 AND SWAP2 PUSH4 0x91D14854 SWAP2 DUP4 SWAP2 PUSH4 0x80229273 SWAP2 PUSH1 0x4 DUP1 DUP3 ADD SWAP3 PUSH1 0x20 SWAP3 SWAP1 SWAP2 SWAP1 DUP3 SWAP1 SUB ADD DUP2 DUP7 GAS STATICCALL ISZERO DUP1 ISZERO PUSH2 0xAEA JUMPI RETURNDATASIZE PUSH0 DUP1 RETURNDATACOPY RETURNDATASIZE PUSH0 REVERT JUMPDEST POP POP POP POP PUSH1 0x40 MLOAD RETURNDATASIZE PUSH1 0x1F NOT PUSH1 0x1F DUP3 ADD AND DUP3 ADD DUP1 PUSH1 0x40 MSTORE POP DUP2 ADD SWAP1 PUSH2 0xB0E SWAP2 SWAP1 PUSH2 0x1B88 JUMP JUMPDEST PUSH1 0x40 MLOAD PUSH1 0x1 PUSH1 0x1 PUSH1 0xE0 SHL SUB NOT PUSH1 0xE0 DUP5 SWAP1 SHL AND DUP2 MSTORE PUSH1 0x4 DUP2 ADD SWAP2 SWAP1 SWAP2 MSTORE CALLER PUSH1 0x24 DUP3 ADD MSTORE PUSH1 0x44 ADD PUSH1 0x20 PUSH1 0x40 MLOAD DUP1 DUP4 SUB DUP2 DUP7 GAS STATICCALL ISZERO DUP1 ISZERO PUSH2 0xB4E JUMPI RETURNDATASIZE PUSH0 DUP1 RETURNDATACOPY RETURNDATASIZE PUSH0 REVERT JUMPDEST POP POP POP POP PUSH1 0x40 MLOAD RETURNDATASIZE PUSH1 0x1F NOT PUSH1 0x1F DUP3 ADD AND DUP3 ADD DUP1 PUSH1 0x40 MSTORE POP DUP2 ADD SWAP1 PUSH2 0xB72 SWAP2 SWAP1 PUSH2 0x1B9F JUMP JUMPDEST DUP1 PUSH2 0xC50 JUMPI POP PUSH1 0x2 SLOAD PUSH1 0x40 DUP1 MLOAD PUSH4 0x1D6C8E3F PUSH1 0xE2 SHL DUP2 MSTORE SWAP1 MLOAD PUSH1 0x1 PUSH1 0x1 PUSH1 0xA0 SHL SUB SWAP1 SWAP3 AND SWAP2 PUSH4 0x91D14854 SWAP2 DUP4 SWAP2 PUSH4 0x75B238FC SWAP2 PUSH1 0x4 DUP1 DUP3 ADD SWAP3 PUSH1 0x20 SWAP3 SWAP1 SWAP2 SWAP1 DUP3 SWAP1 SUB ADD DUP2 DUP7 GAS STATICCALL ISZERO DUP1 ISZERO PUSH2 0xBC8 JUMPI RETURNDATASIZE PUSH0 DUP1 RETURNDATACOPY RETURNDATASIZE PUSH0 REVERT JUMPDEST POP POP POP POP PUSH1 0x40 MLOAD RETURNDATASIZE PUSH1 0x1F NOT PUSH1 0x1F DUP3 ADD AND DUP3 ADD DUP1 PUSH1 0x40 MSTORE POP DUP2 ADD SWAP1 PUSH2 0xBEC SWAP2 SWAP1 PUSH2 0x1B88 JUMP JUMPDEST PUSH1 0x40 MLOAD PUSH1 0x1 PUSH1 0x1 PUSH1 0xE0 SHL SUB NOT PUSH1 0xE0 DUP5 SWAP1 SHL AND DUP2 MSTORE PUSH1 0x4 DUP2 ADD SWAP2 SWAP1 SWAP2 MSTORE CALLER PUSH1 0x24 DUP3 ADD MSTORE PUSH1 0x44 ADD PUSH1 0x20 PUSH1 0x40 MLOAD DUP1 DUP4 SUB DUP2 DUP7 GAS STATICCALL ISZERO DUP1 ISZERO PUSH2 0xC2C JUMPI RETURNDATASIZE PUSH0 DUP1 RETURNDATACOPY RETURNDATASIZE PUSH0 REVERT JUMPDEST POP POP POP POP PUSH1 0x40 MLOAD RETURNDATASIZE PUSH1 0x1F NOT PUSH1 0x1F DUP3 ADD AND DUP3 ADD DUP1 PUSH1 0x40 MSTORE POP DUP2 ADD SWAP1 PUSH2 0xC50 SWAP2 SWAP1 PUSH2 0x1B9F JUMP JUMPDEST PUSH2 0xCBB JUMPI PUSH1 0x40 MLOAD PUSH3 0x461BCD PUSH1 0xE5 SHL DUP2 MSTORE PUSH1 0x20 PUSH1 0x4 DUP3 ADD MSTORE PUSH1 0x36 PUSH1 0x24 DUP3 ADD MSTORE PUSH32 0x43726564656E7469616C52656769737472793A204E6F7420617574686F72697A PUSH1 0x44 DUP3 ADD MSTORE PUSH22 0x656420746F20757064617465207265702073636F7265 PUSH1 0x50 SHL PUSH1 0x64 DUP3 ADD MSTORE PUSH1 0x84 ADD PUSH2 0x3F4 JUMP JUMPDEST PUSH0 DUP2 PUSH2 0xCC7 DUP5 DUP7 PUSH2 0x1DAA JUMP JUMPDEST PUSH2 0xCD1 SWAP2 SWAP1 PUSH2 0x1DBD JUMP JUMPDEST PUSH1 0x1 PUSH1 0x1 PUSH1 0xA0 SHL SUB DUP7 AND PUSH0 DUP2 DUP2 MSTORE PUSH1 0x6 PUSH1 0x20 MSTORE PUSH1 0x40 SWAP1 DUP2 SWAP1 KECCAK256 DUP4 SWAP1 SSTORE MLOAD SWAP2 SWAP3 POP SWAP1 PUSH32 0x3260B268A3BF241455558CE07E34F69B4C3F01DE4C0CB6AEBAC74E5F40615397 SWAP1 PUSH2 0xD21 SWAP1 DUP5 DUP2 MSTORE PUSH1 0x20 ADD SWAP1 JUMP JUMPDEST PUSH1 0x40 MLOAD DUP1 SWAP2 SUB SWAP1 LOG2 POP POP POP POP POP JUMP JUMPDEST PUSH1 0x2 SLOAD PUSH1 0x40 DUP1 MLOAD PUSH4 0x80229273 PUSH1 0xE0 SHL DUP2 MSTORE SWAP1 MLOAD PUSH0 SWAP3 PUSH1 0x1 PUSH1 0x1 PUSH1 0xA0 SHL SUB AND SWAP2 PUSH4 0x91D14854 SWAP2 DUP4 SWAP2 PUSH4 0x80229273 SWAP2 PUSH1 0x4 DUP1 DUP4 ADD SWAP3 PUSH1 0x20 SWAP3 SWAP2 SWAP1 DUP3 SWAP1 SUB ADD DUP2 DUP7 GAS STATICCALL ISZERO DUP1 ISZERO PUSH2 0xD7F JUMPI RETURNDATASIZE PUSH0 DUP1 RETURNDATACOPY RETURNDATASIZE PUSH0 REVERT JUMPDEST POP POP POP POP PUSH1 0x40 MLOAD RETURNDATASIZE PUSH1 0x1F NOT PUSH1 0x1F DUP3 ADD AND DUP3 ADD DUP1 PUSH1 0x40 MSTORE POP DUP2 ADD SWAP1 PUSH2 0xDA3 SWAP2 SWAP1 PUSH2 0x1B88 JUMP JUMPDEST PUSH1 0x40 MLOAD PUSH1 0x1 PUSH1 0x1 PUSH1 0xE0 SHL SUB NOT PUSH1 0xE0 DUP5 SWAP1 SHL AND DUP2 MSTORE PUSH1 0x4 DUP2 ADD SWAP2 SWAP1 SWAP2 MSTORE PUSH1 0x1 PUSH1 0x1 PUSH1 0xA0 SHL SUB DUP6 AND PUSH1 0x24 DUP3 ADD MSTORE PUSH1 0x44 ADD PUSH1 0x20 PUSH1 0x40 MLOAD DUP1 DUP4 SUB DUP2 DUP7 GAS STATICCALL ISZERO DUP1 ISZERO PUSH2 0xDEC JUMPI RETURNDATASIZE PUSH0 DUP1 RETURNDATACOPY RETURNDATASIZE PUSH0 REVERT JUMPDEST POP POP POP POP PUSH1 0x40 MLOAD RETURNDATASIZE PUSH1 0x1F NOT PUSH1 0x1F DUP3 ADD AND DUP3 ADD DUP1 PUSH1 0x40 MSTORE POP DUP2 ADD SWAP1 PUSH2 0xE10 SWAP2 SWAP1 PUSH2 0x1B9F JUMP JUMPDEST SWAP3 SWAP2 POP POP JUMP JUMPDEST PUSH0 DUP2 DUP2 MSTORE PUSH1 0x3 PUSH1 0x20 MSTORE PUSH1 0x40 DUP2 KECCAK256 PUSH1 0x4 DUP2 ADD SLOAD SWAP1 SWAP2 SUB PUSH2 0xE82 JUMPI PUSH1 0x40 MLOAD PUSH3 0x461BCD PUSH1 0xE5 SHL DUP2 MSTORE PUSH1 0x20 PUSH1 0x4 DUP3 ADD MSTORE PUSH1 0x22 PUSH1 0x24 DUP3 ADD MSTORE PUSH32 0x43726564656E7469616C52656769737472793A20446F6573206E6F7420657869 PUSH1 0x44 DUP3 ADD MSTORE PUSH2 0x1CDD PUSH1 0xF2 SHL PUSH1 0x64 DUP3 ADD MSTORE PUSH1 0x84 ADD PUSH2 0x3F4 JUMP JUMPDEST DUP1 SLOAD PUSH1 0x1 PUSH1 0x1 PUSH1 0xA0 SHL SUB AND CALLER EQ PUSH2 0xEEE JUMPI PUSH1 0x40 MLOAD PUSH3 0x461BCD PUSH1 0xE5 SHL DUP2 MSTORE PUSH1 0x20 PUSH1 0x4 DUP3 ADD MSTORE PUSH1 0x2A PUSH1 0x24 DUP3 ADD MSTORE PUSH32 0x43726564656E7469616C52656769737472793A204F6E6C792069737375657220 PUSH1 0x44 DUP3 ADD MSTORE PUSH10 0x63616E207265766F6B65 PUSH1 0xB0 SHL PUSH1 0x64 DUP3 ADD MSTORE PUSH1 0x84 ADD PUSH2 0x3F4 JUMP JUMPDEST PUSH1 0x6 DUP2 ADD SLOAD PUSH1 0xFF AND ISZERO PUSH2 0xF4F JUMPI PUSH1 0x40 MLOAD PUSH3 0x461BCD PUSH1 0xE5 SHL DUP2 MSTORE PUSH1 0x20 PUSH1 0x4 DUP3 ADD MSTORE PUSH1 0x23 PUSH1 0x24 DUP3 ADD MSTORE PUSH32 0x43726564656E7469616C52656769737472793A20416C7265616479207265766F PUSH1 0x44 DUP3 ADD MSTORE PUSH3 0x1AD959 PUSH1 0xEA SHL PUSH1 0x64 DUP3 ADD MSTORE PUSH1 0x84 ADD PUSH2 0x3F4 JUMP JUMPDEST PUSH1 0x6 DUP2 ADD DUP1 SLOAD PUSH1 0xFF NOT AND PUSH1 0x1 OR SWAP1 SSTORE PUSH1 0x40 MLOAD CALLER SWAP1 DUP4 SWAP1 PUSH32 0xD3196F598A360C115A1DE20D5A58021203793F1BF1A08EFE55EE14545779606D SWAP1 PUSH0 SWAP1 LOG3 POP POP JUMP JUMPDEST PUSH1 0x1 PUSH1 0x1 PUSH1 0xA0 SHL SUB DUP2 AND PUSH0 SWAP1 DUP2 MSTORE PUSH1 0x4 PUSH1 0x20 SWAP1 DUP2 MSTORE PUSH1 0x40 SWAP2 DUP3 SWAP1 KECCAK256 DUP1 SLOAD DUP4 MLOAD DUP2 DUP5 MUL DUP2 ADD DUP5 ADD SWAP1 SWAP5 MSTORE DUP1 DUP5 MSTORE PUSH1 0x60 SWAP4 SWAP3 DUP4 ADD DUP3 DUP3 DUP1 ISZERO PUSH2 0xFEB JUMPI PUSH1 0x20 MUL DUP3 ADD SWAP2 SWAP1 PUSH0 MSTORE PUSH1 0x20 PUSH0 KECCAK256 SWAP1 JUMPDEST DUP2 SLOAD DUP2 MSTORE PUSH1 0x20 ADD SWAP1 PUSH1 0x1 ADD SWAP1 DUP1 DUP4 GT PUSH2 0xFD7 JUMPI JUMPDEST POP POP POP POP POP SWAP1 POP SWAP2 SWAP1 POP JUMP JUMPDEST PUSH2 0x1046 PUSH1 0x40 MLOAD DUP1 PUSH1 0xE0 ADD PUSH1 0x40 MSTORE DUP1 PUSH0 PUSH1 0x1 PUSH1 0x1 PUSH1 0xA0 SHL SUB AND DUP2 MSTORE PUSH1 0x20 ADD PUSH0 PUSH1 0x1 PUSH1 0x1 PUSH1 0xA0 SHL SUB AND DUP2 MSTORE PUSH1 0x20 ADD PUSH1 0x60 DUP2 MSTORE PUSH1 0x20 ADD PUSH1 0x60 DUP2 MSTORE PUSH1 0x20 ADD PUSH0 DUP2 MSTORE PUSH1 0x20 ADD PUSH0 DUP2 MSTORE PUSH1 0x20 ADD PUSH0 ISZERO ISZERO DUP2 MSTORE POP SWAP1 JUMP JUMPDEST PUSH0 DUP3 DUP2 MSTORE PUSH1 0x3 PUSH1 0x20 SWAP1 DUP2 MSTORE PUSH1 0x40 SWAP2 DUP3 SWAP1 KECCAK256 DUP3 MLOAD PUSH1 0xE0 DUP2 ADD DUP5 MSTORE DUP2 SLOAD PUSH1 0x1 PUSH1 0x1 PUSH1 0xA0 SHL SUB SWAP1 DUP2 AND DUP3 MSTORE PUSH1 0x1 DUP4 ADD SLOAD AND SWAP3 DUP2 ADD SWAP3 SWAP1 SWAP3 MSTORE PUSH1 0x2 DUP2 ADD DUP1 SLOAD SWAP3 SWAP4 SWAP2 SWAP3 SWAP2 DUP5 ADD SWAP2 PUSH2 0x1092 SWAP1 PUSH2 0x1C24 JUMP JUMPDEST DUP1 PUSH1 0x1F ADD PUSH1 0x20 DUP1 SWAP2 DIV MUL PUSH1 0x20 ADD PUSH1 0x40 MLOAD SWAP1 DUP2 ADD PUSH1 0x40 MSTORE DUP1 SWAP3 SWAP2 SWAP1 DUP2 DUP2 MSTORE PUSH1 0x20 ADD DUP3 DUP1 SLOAD PUSH2 0x10BE SWAP1 PUSH2 0x1C24 JUMP JUMPDEST DUP1 ISZERO PUSH2 0x1109 JUMPI DUP1 PUSH1 0x1F LT PUSH2 0x10E0 JUMPI PUSH2 0x100 DUP1 DUP4 SLOAD DIV MUL DUP4 MSTORE SWAP2 PUSH1 0x20 ADD SWAP2 PUSH2 0x1109 JUMP JUMPDEST DUP3 ADD SWAP2 SWAP1 PUSH0 MSTORE PUSH1 0x20 PUSH0 KECCAK256 SWAP1 JUMPDEST DUP2 SLOAD DUP2 MSTORE SWAP1 PUSH1 0x1 ADD SWAP1 PUSH1 0x20 ADD DUP1 DUP4 GT PUSH2 0x10EC JUMPI DUP3 SWAP1 SUB PUSH1 0x1F AND DUP3 ADD SWAP2 JUMPDEST POP POP POP POP POP DUP2 MSTORE PUSH1 0x20 ADD PUSH1 0x3 DUP3 ADD DUP1 SLOAD PUSH2 0x1122 SWAP1 PUSH2 0x1C24 JUMP JUMPDEST DUP1 PUSH1 0x1F ADD PUSH1 0x20 DUP1 SWAP2 DIV MUL PUSH1 0x20 ADD PUSH1 0x40 MLOAD SWAP1 DUP2 ADD PUSH1 0x40 MSTORE DUP1 SWAP3 SWAP2 SWAP1 DUP2 DUP2 MSTORE PUSH1 0x20 ADD DUP3 DUP1 SLOAD PUSH2 0x114E SWAP1 PUSH2 0x1C24 JUMP JUMPDEST DUP1 ISZERO PUSH2 0x1199 JUMPI DUP1 PUSH1 0x1F LT PUSH2 0x1170 JUMPI PUSH2 0x100 DUP1 DUP4 SLOAD DIV MUL DUP4 MSTORE SWAP2 PUSH1 0x20 ADD SWAP2 PUSH2 0x1199 JUMP JUMPDEST DUP3 ADD SWAP2 SWAP1 PUSH0 MSTORE PUSH1 0x20 PUSH0 KECCAK256 SWAP1 JUMPDEST DUP2 SLOAD DUP2 MSTORE SWAP1 PUSH1 0x1 ADD SWAP1 PUSH1 0x20 ADD DUP1 DUP4 GT PUSH2 0x117C JUMPI DUP3 SWAP1 SUB PUSH1 0x1F AND DUP3 ADD SWAP2 JUMPDEST POP POP POP SWAP2 DUP4 MSTORE POP POP PUSH1 0x4 DUP3 ADD SLOAD PUSH1 0x20 DUP3 ADD MSTORE PUSH1 0x5 DUP3 ADD SLOAD PUSH1 0x40 DUP3 ADD MSTORE PUSH1 0x6 SWAP1 SWAP2 ADD SLOAD PUSH1 0xFF AND ISZERO ISZERO PUSH1 0x60 SWAP1 SWAP2 ADD MSTORE SWAP3 SWAP2 POP POP JUMP JUMPDEST PUSH0 DUP1 PUSH32 0xB4E6C1EFED488648186D230C0FA2902D2F18AA28522C67CCAF0318E824DCC35F DUP11 DUP11 DUP11 PUSH1 0x40 MLOAD PUSH2 0x1200 SWAP3 SWAP2 SWAP1 PUSH2 0x1DD4 JUMP JUMPDEST PUSH1 0x40 MLOAD DUP1 SWAP2 SUB SWAP1 KECCAK256 DUP10 DUP10 PUSH1 0x40 MLOAD PUSH2 0x1218 SWAP3 SWAP2 SWAP1 PUSH2 0x1DD4 JUMP JUMPDEST PUSH1 0x40 MLOAD SWAP1 DUP2 SWAP1 SUB DUP2 KECCAK256 PUSH2 0x1259 SWAP5 SWAP4 SWAP3 SWAP2 DUP11 SWAP1 PUSH1 0x20 ADD SWAP5 DUP6 MSTORE PUSH1 0x1 PUSH1 0x1 PUSH1 0xA0 SHL SUB SWAP4 SWAP1 SWAP4 AND PUSH1 0x20 DUP6 ADD MSTORE PUSH1 0x40 DUP5 ADD SWAP2 SWAP1 SWAP2 MSTORE PUSH1 0x60 DUP4 ADD MSTORE PUSH1 0x80 DUP3 ADD MSTORE PUSH1 0xA0 ADD SWAP1 JUMP JUMPDEST PUSH1 0x40 MLOAD PUSH1 0x20 DUP2 DUP4 SUB SUB DUP2 MSTORE SWAP1 PUSH1 0x40 MSTORE DUP1 MLOAD SWAP1 PUSH1 0x20 ADD KECCAK256 SWAP1 POP PUSH0 PUSH2 0x127B DUP3 PUSH2 0x1337 JUMP JUMPDEST SWAP1 POP PUSH0 PUSH2 0x12BD DUP3 DUP8 DUP8 DUP1 DUP1 PUSH1 0x1F ADD PUSH1 0x20 DUP1 SWAP2 DIV MUL PUSH1 0x20 ADD PUSH1 0x40 MLOAD SWAP1 DUP2 ADD PUSH1 0x40 MSTORE DUP1 SWAP4 SWAP3 SWAP2 SWAP1 DUP2 DUP2 MSTORE PUSH1 0x20 ADD DUP4 DUP4 DUP1 DUP3 DUP5 CALLDATACOPY PUSH0 SWAP3 ADD SWAP2 SWAP1 SWAP2 MSTORE POP PUSH2 0x1363 SWAP3 POP POP POP JUMP JUMPDEST PUSH1 0x1 PUSH1 0x1 PUSH1 0xA0 SHL SUB AND CALLER EQ SWAP4 POP POP POP POP SWAP9 SWAP8 POP POP POP POP POP POP POP POP JUMP JUMPDEST PUSH1 0x60 PUSH2 0x1305 PUSH32 0x0 PUSH0 PUSH2 0x138B JUMP JUMPDEST SWAP1 POP SWAP1 JUMP JUMPDEST PUSH1 0x60 PUSH2 0x1305 PUSH32 0x0 PUSH1 0x1 PUSH2 0x138B JUMP JUMPDEST PUSH0 PUSH2 0xE10 PUSH2 0x1343 PUSH2 0x1434 JUMP JUMPDEST DUP4 PUSH1 0x40 MLOAD PUSH2 0x1901 PUSH1 0xF0 SHL DUP2 MSTORE PUSH1 0x2 DUP2 ADD SWAP3 SWAP1 SWAP3 MSTORE PUSH1 0x22 DUP3 ADD MSTORE PUSH1 0x42 SWAP1 KECCAK256 SWAP1 JUMP JUMPDEST PUSH0 DUP1 PUSH0 DUP1 PUSH2 0x1371 DUP7 DUP7 PUSH2 0x155D JUMP JUMPDEST SWAP3 POP SWAP3 POP SWAP3 POP PUSH2 0x1381 DUP3 DUP3 PUSH2 0x15A6 JUMP JUMPDEST POP SWAP1 SWAP5 SWAP4 POP POP POP POP JUMP JUMPDEST PUSH1 0x60 PUSH1 0xFF DUP4 EQ PUSH2 0x13A5 JUMPI PUSH2 0x139E DUP4 PUSH2 0x1662 JUMP JUMPDEST SWAP1 POP PUSH2 0xE10 JUMP JUMPDEST DUP2 DUP1 SLOAD PUSH2 0x13B1 SWAP1 PUSH2 0x1C24 JUMP JUMPDEST DUP1 PUSH1 0x1F ADD PUSH1 0x20 DUP1 SWAP2 DIV MUL PUSH1 0x20 ADD PUSH1 0x40 MLOAD SWAP1 DUP2 ADD PUSH1 0x40 MSTORE DUP1 SWAP3 SWAP2 SWAP1 DUP2 DUP2 MSTORE PUSH1 0x20 ADD DUP3 DUP1 SLOAD PUSH2 0x13DD SWAP1 PUSH2 0x1C24 JUMP JUMPDEST DUP1 ISZERO PUSH2 0x1428 JUMPI DUP1 PUSH1 0x1F LT PUSH2 0x13FF JUMPI PUSH2 0x100 DUP1 DUP4 SLOAD DIV MUL DUP4 MSTORE SWAP2 PUSH1 0x20 ADD SWAP2 PUSH2 0x1428 JUMP JUMPDEST DUP3 ADD SWAP2 SWAP1 PUSH0 MSTORE PUSH1 0x20 PUSH0 KECCAK256 SWAP1 JUMPDEST DUP2 SLOAD DUP2 MSTORE SWAP1 PUSH1 0x1 ADD SWAP1 PUSH1 0x20 ADD DUP1 DUP4 GT PUSH2 0x140B JUMPI DUP3 SWAP1 SUB PUSH1 0x1F AND DUP3 ADD SWAP2 JUMPDEST POP POP POP POP POP SWAP1 POP PUSH2 0xE10 JUMP JUMPDEST PUSH0 ADDRESS PUSH1 0x1 PUSH1 0x1 PUSH1 0xA0 SHL SUB PUSH32 0x0 AND EQ DUP1 ISZERO PUSH2 0x148C JUMPI POP PUSH32 0x0 CHAINID EQ JUMPDEST ISZERO PUSH2 0x14B6 JUMPI POP PUSH32 0x0 SWAP1 JUMP JUMPDEST PUSH2 0x1305 PUSH1 0x40 DUP1 MLOAD PUSH32 0x8B73C3C69BB8FE3D512ECC4CF759CC79239F7B179B0FFACAA9A75D522B39400F PUSH1 0x20 DUP3 ADD MSTORE PUSH32 0x0 SWAP2 DUP2 ADD SWAP2 SWAP1 SWAP2 MSTORE PUSH32 0x0 PUSH1 0x60 DUP3 ADD MSTORE CHAINID PUSH1 0x80 DUP3 ADD MSTORE ADDRESS PUSH1 0xA0 DUP3 ADD MSTORE PUSH0 SWAP1 PUSH1 0xC0 ADD PUSH1 0x40 MLOAD PUSH1 0x20 DUP2 DUP4 SUB SUB DUP2 MSTORE SWAP1 PUSH1 0x40 MSTORE DUP1 MLOAD SWAP1 PUSH1 0x20 ADD KECCAK256 SWAP1 POP SWAP1 JUMP JUMPDEST PUSH0 DUP1 PUSH0 DUP4 MLOAD PUSH1 0x41 SUB PUSH2 0x1594 JUMPI PUSH1 0x20 DUP5 ADD MLOAD PUSH1 0x40 DUP6 ADD MLOAD PUSH1 0x60 DUP7 ADD MLOAD PUSH0 BYTE PUSH2 0x1586 DUP9 DUP3 DUP6 DUP6 PUSH2 0x169F JUMP JUMPDEST SWAP6 POP SWAP6 POP SWAP6 POP POP POP POP PUSH2 0x159F JUMP JUMPDEST POP POP DUP2 MLOAD PUSH0 SWAP2 POP PUSH1 0x2 SWAP1 JUMPDEST SWAP3 POP SWAP3 POP SWAP3 JUMP JUMPDEST PUSH0 DUP3 PUSH1 0x3 DUP2 GT ISZERO PUSH2 0x15B9 JUMPI PUSH2 0x15B9 PUSH2 0x1DE3 JUMP JUMPDEST SUB PUSH2 0x15C2 JUMPI POP POP JUMP JUMPDEST PUSH1 0x1 DUP3 PUSH1 0x3 DUP2 GT ISZERO PUSH2 0x15D6 JUMPI PUSH2 0x15D6 PUSH2 0x1DE3 JUMP JUMPDEST SUB PUSH2 0x15F4 JUMPI PUSH1 0x40 MLOAD PUSH4 0xF645EEDF PUSH1 0xE0 SHL DUP2 MSTORE PUSH1 0x4 ADD PUSH1 0x40 MLOAD DUP1 SWAP2 SUB SWAP1 REVERT JUMPDEST PUSH1 0x2 DUP3 PUSH1 0x3 DUP2 GT ISZERO PUSH2 0x1608 JUMPI PUSH2 0x1608 PUSH2 0x1DE3 JUMP JUMPDEST SUB PUSH2 0x1629 JUMPI PUSH1 0x40 MLOAD PUSH4 0xFCE698F7 PUSH1 0xE0 SHL DUP2 MSTORE PUSH1 0x4 DUP2 ADD DUP3 SWAP1 MSTORE PUSH1 0x24 ADD PUSH2 0x3F4 JUMP JUMPDEST PUSH1 0x3 DUP3 PUSH1 0x3 DUP2 GT ISZERO PUSH2 0x163D JUMPI PUSH2 0x163D PUSH2 0x1DE3 JUMP JUMPDEST SUB PUSH2 0x165E JUMPI PUSH1 0x40 MLOAD PUSH4 0x35E2F383 PUSH1 0xE2 SHL DUP2 MSTORE PUSH1 0x4 DUP2 ADD DUP3 SWAP1 MSTORE PUSH1 0x24 ADD PUSH2 0x3F4 JUMP JUMPDEST POP POP JUMP JUMPDEST PUSH1 0x60 PUSH0 PUSH2 0x166E DUP4 PUSH2 0x1767 JUMP JUMPDEST PUSH1 0x40 DUP1 MLOAD PUSH1 0x20 DUP1 DUP3 MSTORE DUP2 DUP4 ADD SWAP1 SWAP3 MSTORE SWAP2 SWAP3 POP PUSH0 SWAP2 SWAP1 PUSH1 0x20 DUP3 ADD DUP2 DUP1 CALLDATASIZE DUP4 CALLDATACOPY POP POP POP SWAP2 DUP3 MSTORE POP PUSH1 0x20 DUP2 ADD SWAP3 SWAP1 SWAP3 MSTORE POP SWAP1 JUMP JUMPDEST PUSH0 DUP1 DUP1 PUSH32 0x7FFFFFFFFFFFFFFFFFFFFFFFFFFFFFFF5D576E7357A4501DDFE92F46681B20A0 DUP5 GT ISZERO PUSH2 0x16D8 JUMPI POP PUSH0 SWAP2 POP PUSH1 0x3 SWAP1 POP DUP3 PUSH2 0x175D JUMP JUMPDEST PUSH1 0x40 DUP1 MLOAD PUSH0 DUP1 DUP3 MSTORE PUSH1 0x20 DUP3 ADD DUP1 DUP5 MSTORE DUP11 SWAP1 MSTORE PUSH1 0xFF DUP10 AND SWAP3 DUP3 ADD SWAP3 SWAP1 SWAP3 MSTORE PUSH1 0x60 DUP2 ADD DUP8 SWAP1 MSTORE PUSH1 0x80 DUP2 ADD DUP7 SWAP1 MSTORE PUSH1 0x1 SWAP1 PUSH1 0xA0 ADD PUSH1 0x20 PUSH1 0x40 MLOAD PUSH1 0x20 DUP2 SUB SWAP1 DUP1 DUP5 SUB SWAP1 DUP6 GAS STATICCALL ISZERO DUP1 ISZERO PUSH2 0x1729 JUMPI RETURNDATASIZE PUSH0 DUP1 RETURNDATACOPY RETURNDATASIZE PUSH0 REVERT JUMPDEST POP POP PUSH1 0x40 MLOAD PUSH1 0x1F NOT ADD MLOAD SWAP2 POP POP PUSH1 0x1 PUSH1 0x1 PUSH1 0xA0 SHL SUB DUP2 AND PUSH2 0x1754 JUMPI POP PUSH0 SWAP3 POP PUSH1 0x1 SWAP2 POP DUP3 SWAP1 POP PUSH2 0x175D JUMP JUMPDEST SWAP3 POP PUSH0 SWAP2 POP DUP2 SWAP1 POP JUMPDEST SWAP5 POP SWAP5 POP SWAP5 SWAP2 POP POP JUMP JUMPDEST PUSH0 PUSH1 0xFF DUP3 AND PUSH1 0x1F DUP2 GT ISZERO PUSH2 0xE10 JUMPI PUSH1 0x40 MLOAD PUSH4 0x2CD44AC3 PUSH1 0xE2 SHL DUP2 MSTORE PUSH1 0x4 ADD PUSH1 0x40 MLOAD DUP1 SWAP2 SUB SWAP1 REVERT JUMPDEST DUP1 CALLDATALOAD PUSH1 0x1 PUSH1 0x1 PUSH1 0xA0 SHL SUB DUP2 AND DUP2 EQ PUSH2 0x17A4 JUMPI PUSH0 DUP1 REVERT JUMPDEST SWAP2 SWAP1 POP JUMP JUMPDEST PUSH0 DUP1 PUSH1 0x40 DUP4 DUP6 SUB SLT ISZERO PUSH2 0x17BA JUMPI PUSH0 DUP1 REVERT JUMPDEST PUSH2 0x17C3 DUP4 PUSH2 0x178E JUMP JUMPDEST SWAP5 PUSH1 0x20 SWAP4 SWAP1 SWAP4 ADD CALLDATALOAD SWAP4 POP POP POP JUMP JUMPDEST PUSH0 DUP1 DUP4 PUSH1 0x1F DUP5 ADD SLT PUSH2 0x17E1 JUMPI PUSH0 DUP1 REVERT JUMPDEST POP DUP2 CALLDATALOAD PUSH8 0xFFFFFFFFFFFFFFFF DUP2 GT ISZERO PUSH2 0x17F8 JUMPI PUSH0 DUP1 REVERT JUMPDEST PUSH1 0x20 DUP4 ADD SWAP2 POP DUP4 PUSH1 0x20 DUP3 DUP6 ADD ADD GT ISZERO PUSH2 0x180F JUMPI PUSH0 DUP1 REVERT JUMPDEST SWAP3 POP SWAP3 SWAP1 POP JUMP JUMPDEST PUSH0 DUP1 PUSH0 DUP1 PUSH0 DUP1 PUSH0 DUP1 PUSH1 0xA0 DUP10 DUP12 SUB SLT ISZERO PUSH2 0x182D JUMPI PUSH0 DUP1 REVERT JUMPDEST PUSH2 0x1836 DUP10 PUSH2 0x178E JUMP JUMPDEST SWAP8 POP PUSH1 0x20 DUP10 ADD CALLDATALOAD PUSH8 0xFFFFFFFFFFFFFFFF DUP1 DUP3 GT ISZERO PUSH2 0x1852 JUMPI PUSH0 DUP1 REVERT JUMPDEST PUSH2 0x185E DUP13 DUP4 DUP14 ADD PUSH2 0x17D1 JUMP JUMPDEST SWAP1 SWAP10 POP SWAP8 POP PUSH1 0x40 DUP12 ADD CALLDATALOAD SWAP2 POP DUP1 DUP3 GT ISZERO PUSH2 0x1876 JUMPI PUSH0 DUP1 REVERT JUMPDEST PUSH2 0x1882 DUP13 DUP4 DUP14 ADD PUSH2 0x17D1 JUMP JUMPDEST SWAP1 SWAP8 POP SWAP6 POP PUSH1 0x60 DUP12 ADD CALLDATALOAD SWAP5 POP PUSH1 0x80 DUP12 ADD CALLDATALOAD SWAP2 POP DUP1 DUP3 GT ISZERO PUSH2 0x18A1 JUMPI PUSH0 DUP1 REVERT JUMPDEST POP PUSH2 0x18AE DUP12 DUP3 DUP13 ADD PUSH2 0x17D1 JUMP JUMPDEST SWAP10 SWAP13 SWAP9 SWAP12 POP SWAP7 SWAP10 POP SWAP5 SWAP8 SWAP4 SWAP7 SWAP3 SWAP6 SWAP5 POP POP POP JUMP JUMPDEST PUSH0 PUSH1 0x20 DUP3 DUP5 SUB SLT ISZERO PUSH2 0x18D2 JUMPI PUSH0 DUP1 REVERT JUMPDEST POP CALLDATALOAD SWAP2 SWAP1 POP JUMP JUMPDEST PUSH0 DUP2 MLOAD DUP1 DUP5 MSTORE PUSH0 JUMPDEST DUP2 DUP2 LT ISZERO PUSH2 0x18FD JUMPI PUSH1 0x20 DUP2 DUP6 ADD DUP2 ADD MLOAD DUP7 DUP4 ADD DUP3 ADD MSTORE ADD PUSH2 0x18E1 JUMP JUMPDEST POP PUSH0 PUSH1 0x20 DUP3 DUP7 ADD ADD MSTORE PUSH1 0x20 PUSH1 0x1F NOT PUSH1 0x1F DUP4 ADD AND DUP6 ADD ADD SWAP2 POP POP SWAP3 SWAP2 POP POP JUMP JUMPDEST PUSH1 0x1 PUSH1 0x1 PUSH1 0xA0 SHL SUB DUP9 DUP2 AND DUP3 MSTORE DUP8 AND PUSH1 0x20 DUP3 ADD MSTORE PUSH1 0xE0 PUSH1 0x40 DUP3 ADD DUP2 SWAP1 MSTORE PUSH0 SWAP1 PUSH2 0x1947 SWAP1 DUP4 ADD DUP9 PUSH2 0x18D9 JUMP JUMPDEST DUP3 DUP2 SUB PUSH1 0x60 DUP5 ADD MSTORE PUSH2 0x1959 DUP2 DUP9 PUSH2 0x18D9 JUMP JUMPDEST PUSH1 0x80 DUP5 ADD SWAP7 SWAP1 SWAP7 MSTORE POP POP PUSH1 0xA0 DUP2 ADD SWAP3 SWAP1 SWAP3 MSTORE ISZERO ISZERO PUSH1 0xC0 SWAP1 SWAP2 ADD MSTORE SWAP5 SWAP4 POP POP POP POP JUMP JUMPDEST DUP8 ISZERO ISZERO DUP2 MSTORE DUP7 ISZERO ISZERO PUSH1 0x20 DUP3 ADD MSTORE DUP6 ISZERO ISZERO PUSH1 0x40 DUP3 ADD MSTORE PUSH1 0x1 PUSH1 0x1 PUSH1 0xA0 SHL SUB DUP6 DUP2 AND PUSH1 0x60 DUP4 ADD MSTORE DUP5 AND PUSH1 0x80 DUP3 ADD MSTORE PUSH1 0xE0 PUSH1 0xA0 DUP3 ADD DUP2 SWAP1 MSTORE PUSH0 SWAP1 PUSH2 0x19BE SWAP1 DUP4 ADD DUP6 PUSH2 0x18D9 JUMP JUMPDEST SWAP1 POP DUP3 PUSH1 0xC0 DUP4 ADD MSTORE SWAP9 SWAP8 POP POP POP POP POP POP POP POP JUMP JUMPDEST PUSH1 0xFF PUSH1 0xF8 SHL DUP9 AND DUP2 MSTORE PUSH0 PUSH1 0x20 PUSH1 0xE0 PUSH1 0x20 DUP5 ADD MSTORE PUSH2 0x19F2 PUSH1 0xE0 DUP5 ADD DUP11 PUSH2 0x18D9 JUMP JUMPDEST DUP4 DUP2 SUB PUSH1 0x40 DUP6 ADD MSTORE PUSH2 0x1A04 DUP2 DUP11 PUSH2 0x18D9 JUMP JUMPDEST PUSH1 0x60 DUP6 ADD DUP10 SWAP1 MSTORE PUSH1 0x1 PUSH1 0x1 PUSH1 0xA0 SHL SUB DUP9 AND PUSH1 0x80 DUP7 ADD MSTORE PUSH1 0xA0 DUP6 ADD DUP8 SWAP1 MSTORE DUP5 DUP2 SUB PUSH1 0xC0 DUP7 ADD MSTORE DUP6 MLOAD DUP1 DUP3 MSTORE PUSH1 0x20 DUP1 DUP9 ADD SWAP4 POP SWAP1 SWAP2 ADD SWAP1 PUSH0 JUMPDEST DUP2 DUP2 LT ISZERO PUSH2 0x1A57 JUMPI DUP4 MLOAD DUP4 MSTORE SWAP3 DUP5 ADD SWAP3 SWAP2 DUP5 ADD SWAP2 PUSH1 0x1 ADD PUSH2 0x1A3B JUMP JUMPDEST POP SWAP1 SWAP13 SWAP12 POP POP POP POP POP POP POP POP POP POP POP POP JUMP JUMPDEST PUSH0 PUSH1 0x20 DUP3 DUP5 SUB SLT ISZERO PUSH2 0x1A79 JUMPI PUSH0 DUP1 REVERT JUMPDEST PUSH2 0x1A82 DUP3 PUSH2 0x178E JUMP JUMPDEST SWAP4 SWAP3 POP POP POP JUMP JUMPDEST PUSH0 DUP1 PUSH0 DUP1 PUSH1 0x80 DUP6 DUP8 SUB SLT ISZERO PUSH2 0x1A9C JUMPI PUSH0 DUP1 REVERT JUMPDEST PUSH2 0x1AA5 DUP6 PUSH2 0x178E JUMP JUMPDEST SWAP7 PUSH1 0x20 DUP7 ADD CALLDATALOAD SWAP7 POP PUSH1 0x40 DUP7 ADD CALLDATALOAD SWAP6 PUSH1 0x60 ADD CALLDATALOAD SWAP5 POP SWAP3 POP POP POP JUMP JUMPDEST PUSH1 0x20 DUP1 DUP3 MSTORE DUP3 MLOAD DUP3 DUP3 ADD DUP2 SWAP1 MSTORE PUSH0 SWAP2 SWAP1 DUP5 DUP3 ADD SWAP1 PUSH1 0x40 DUP6 ADD SWAP1 DUP5 JUMPDEST DUP2 DUP2 LT ISZERO PUSH2 0x1AF6 JUMPI DUP4 MLOAD DUP4 MSTORE SWAP3 DUP5 ADD SWAP3 SWAP2 DUP5 ADD SWAP2 PUSH1 0x1 ADD PUSH2 0x1ADA JUMP JUMPDEST POP SWAP1 SWAP7 SWAP6 POP POP POP POP POP POP JUMP JUMPDEST PUSH1 0x20 DUP2 MSTORE PUSH0 PUSH1 0x1 DUP1 PUSH1 0xA0 SHL SUB DUP1 DUP5 MLOAD AND PUSH1 0x20 DUP5 ADD MSTORE DUP1 PUSH1 0x20 DUP6 ADD MLOAD AND PUSH1 0x40 DUP5 ADD MSTORE POP PUSH1 0x40 DUP4 ADD MLOAD PUSH1 0xE0 PUSH1 0x60 DUP5 ADD MSTORE PUSH2 0x1B3E PUSH2 0x100 DUP5 ADD DUP3 PUSH2 0x18D9 JUMP JUMPDEST SWAP1 POP PUSH1 0x60 DUP5 ADD MLOAD PUSH1 0x1F NOT DUP5 DUP4 SUB ADD PUSH1 0x80 DUP6 ADD MSTORE PUSH2 0x1B5B DUP3 DUP3 PUSH2 0x18D9 JUMP JUMPDEST SWAP2 POP POP PUSH1 0x80 DUP5 ADD MLOAD PUSH1 0xA0 DUP5 ADD MSTORE PUSH1 0xA0 DUP5 ADD MLOAD PUSH1 0xC0 DUP5 ADD MSTORE PUSH1 0xC0 DUP5 ADD MLOAD ISZERO ISZERO PUSH1 0xE0 DUP5 ADD MSTORE DUP1 SWAP2 POP POP SWAP3 SWAP2 POP POP JUMP JUMPDEST PUSH0 PUSH1 0x20 DUP3 DUP5 SUB SLT ISZERO PUSH2 0x1B98 JUMPI PUSH0 DUP1 REVERT JUMPDEST POP MLOAD SWAP2 SWAP1 POP JUMP JUMPDEST PUSH0 PUSH1 0x20 DUP3 DUP5 SUB SLT ISZERO PUSH2 0x1BAF JUMPI PUSH0 DUP1 REVERT JUMPDEST DUP2 MLOAD DUP1 ISZERO ISZERO DUP2 EQ PUSH2 0x1A82 JUMPI PUSH0 DUP1 REVERT JUMPDEST PUSH0 PUSH12 0xFFFFFFFFFFFFFFFFFFFFFFFF NOT DUP1 DUP11 PUSH1 0x60 SHL AND DUP4 MSTORE DUP1 DUP10 PUSH1 0x60 SHL AND PUSH1 0x14 DUP5 ADD MSTORE POP DUP6 DUP8 PUSH1 0x28 DUP5 ADD CALLDATACOPY DUP6 DUP3 ADD PUSH1 0x28 DUP2 ADD PUSH0 DUP2 MSTORE DUP6 DUP8 DUP3 CALLDATACOPY POP PUSH1 0x28 SWAP5 ADD SWAP4 DUP5 ADD SWAP3 SWAP1 SWAP3 MSTORE POP POP PUSH1 0x48 ADD SWAP6 SWAP5 POP POP POP POP POP JUMP JUMPDEST PUSH4 0x4E487B71 PUSH1 0xE0 SHL PUSH0 MSTORE PUSH1 0x41 PUSH1 0x4 MSTORE PUSH1 0x24 PUSH0 REVERT JUMPDEST PUSH1 0x1 DUP2 DUP2 SHR SWAP1 DUP3 AND DUP1 PUSH2 0x1C38 JUMPI PUSH1 0x7F DUP3 AND SWAP2 POP JUMPDEST PUSH1 0x20 DUP3 LT DUP2 SUB PUSH2 0x1C56 JUMPI PUSH4 0x4E487B71 PUSH1 0xE0 SHL PUSH0 MSTORE PUSH1 0x22 PUSH1 0x4 MSTORE PUSH1 0x24 PUSH0 REVERT JUMPDEST POP SWAP2 SWAP1 POP JUMP JUMPDEST PUSH1 0x1F DUP3 GT ISZERO PUSH2 0x1CA3 JUMPI DUP1 PUSH0 MSTORE PUSH1 0x20 PUSH0 KECCAK256 PUSH1 0x1F DUP5 ADD PUSH1 0x5 SHR DUP2 ADD PUSH1 0x20 DUP6 LT ISZERO PUSH2 0x1C81 JUMPI POP DUP1 JUMPDEST PUSH1 0x1F DUP5 ADD PUSH1 0x5 SHR DUP3 ADD SWAP2 POP JUMPDEST DUP2 DUP2 LT ISZERO PUSH2 0x1CA0 JUMPI PUSH0 DUP2 SSTORE PUSH1 0x1 ADD PUSH2 0x1C8D JUMP JUMPDEST POP POP JUMPDEST POP POP POP JUMP JUMPDEST DUP2 MLOAD PUSH8 0xFFFFFFFFFFFFFFFF DUP2 GT ISZERO PUSH2 0x1CC2 JUMPI PUSH2 0x1CC2 PUSH2 0x1C10 JUMP JUMPDEST PUSH2 0x1CD6 DUP2 PUSH2 0x1CD0 DUP5 SLOAD PUSH2 0x1C24 JUMP JUMPDEST DUP5 PUSH2 0x1C5C JUMP JUMPDEST PUSH1 0x20 DUP1 PUSH1 0x1F DUP4 GT PUSH1 0x1 DUP2 EQ PUSH2 0x1D09 JUMPI PUSH0 DUP5 ISZERO PUSH2 0x1CF2 JUMPI POP DUP6 DUP4 ADD MLOAD JUMPDEST PUSH0 NOT PUSH1 0x3 DUP7 SWAP1 SHL SHR NOT AND PUSH1 0x1 DUP6 SWAP1 SHL OR DUP6 SSTORE PUSH2 0x1D60 JUMP JUMPDEST PUSH0 DUP6 DUP2 MSTORE PUSH1 0x20 DUP2 KECCAK256 PUSH1 0x1F NOT DUP7 AND SWAP2 JUMPDEST DUP3 DUP2 LT ISZERO PUSH2 0x1D37 JUMPI DUP9 DUP7 ADD MLOAD DUP3 SSTORE SWAP5 DUP5 ADD SWAP5 PUSH1 0x1 SWAP1 SWAP2 ADD SWAP1 DUP5 ADD PUSH2 0x1D18 JUMP JUMPDEST POP DUP6 DUP3 LT ISZERO PUSH2 0x1D54 JUMPI DUP8 DUP6 ADD MLOAD PUSH0 NOT PUSH1 0x3 DUP9 SWAP1 SHL PUSH1 0xF8 AND SHR NOT AND DUP2 SSTORE JUMPDEST POP POP PUSH1 0x1 DUP5 PUSH1 0x1 SHL ADD DUP6 SSTORE JUMPDEST POP POP POP POP POP POP JUMP JUMPDEST PUSH1 0x20 DUP2 MSTORE DUP2 PUSH1 0x20 DUP3 ADD MSTORE DUP2 DUP4 PUSH1 0x40 DUP4 ADD CALLDATACOPY PUSH0 DUP2 DUP4 ADD PUSH1 0x40 SWAP1 DUP2 ADD SWAP2 SWAP1 SWAP2 MSTORE PUSH1 0x1F SWAP1 SWAP3 ADD PUSH1 0x1F NOT AND ADD ADD SWAP2 SWAP1 POP JUMP JUMPDEST PUSH4 0x4E487B71 PUSH1 0xE0 SHL PUSH0 MSTORE PUSH1 0x11 PUSH1 0x4 MSTORE PUSH1 0x24 PUSH0 REVERT JUMPDEST DUP1 DUP3 ADD DUP1 DUP3 GT ISZERO PUSH2 0xE10 JUMPI PUSH2 0xE10 PUSH2 0x1D96 JUMP JUMPDEST DUP1 DUP3 MUL DUP2 ISZERO DUP3 DUP3 DIV DUP5 EQ OR PUSH2 0xE10 JUMPI PUSH2 0xE10 PUSH2 0x1D96 JUMP JUMPDEST DUP2 DUP4 DUP3 CALLDATACOPY PUSH0 SWAP2 ADD SWAP1 DUP2 MSTORE SWAP2 SWAP1 POP JUMP JUMPDEST PUSH4 0x4E487B71 PUSH1 0xE0 SHL PUSH0 MSTORE PUSH1 0x21 PUSH1 0x4 MSTORE PUSH1 0x24 PUSH0 REVERT INVALID LOG2 PUSH5 0x6970667358 0x22 SLT KECCAK256 0xD7 PUSH13 0xE3AC32B7D0898F6089F65D9D8E COINBASE PUSH9 0x2C7BE3D0DC06D7FD24 0xA5 0x4D PUSH30 0x4CDE9864736F6C6343000818003300000000000000000000000000000000 "},"methodIdentifiers":{"CREDENTIAL_TYPEHASH()":"27d35000","checkIssuer(address)":"c6f3a9aa","credentials(bytes32)":"299d0348","credentialsByIssuer(address,uint256)":"4fd04d22","credentialsBySubject(address,uint256)":"21b22660","devRepScores(address)":"bb508a5a","eip712Domain()":"84b0196e","getCredential(bytes32)":"d1be4883","getCredentialsBySubject(address)":"cfaa98eb","issueCredential(address,string,string,uint256,bytes)":"236c97e2","revokeCredential(bytes32)":"ca6eec78","roleManager()":"00435da5","updateRepScore(address,uint256,uint256,uint256)":"bbe939f1","verifyCredential(bytes32)":"4dbf87cc"}}}}}