{"contracts/RevocationRegistry.sol":{"RevocationRegistry":{"abi":[{"inputs":[{"internalType":"address","name":"_roleManager","type":"address"}],"stateMutability":"nonpayable","type":"constructor"},{"anonymous":false,"inputs":[{"indexed":true,"internalType":"bytes32","name":"docHash","type":"bytes32"},{"indexed":false,"internalType":"string","name":"reason","type":"string"},{"indexed":false,"internalType":"uint256","name":"timestamp","type":"uint256"}],"name":"CertificateRevoked","type":"event"},{"inputs":[{"internalType":"bytes32","name":"docHash","type":"bytes32"}],"name":"isRevoked","outputs":[{"internalType":"bool","name":"","type":"bool"}],"stateMutability":"view","type":"function"},{"inputs":[{"internalType":"bytes32","name":"","type":"bytes32"}],"name":"revocationReason","outputs":[{"internalType":"string","name":"","type":"string"}],"stateMutability":"view","type":"function"},{"inputs":[{"internalType":"bytes32","name":"","type":"bytes32"}],"name":"revocationTimestamp","outputs":[{"internalType":"uint256","name":"","type":"uint256"}],"stateMutability":"view","type":"function"},{"inputs":[{"internalType":"bytes32","name":"docHash","type":"bytes32"},{"internalType":"string","name":"reason","type":"string"}],"name":"revokeCertificate","outputs":[],"stateMutability":"nonpayable","type":"function"},{"inputs":[{"internalType":"bytes32","name":"","type":"bytes32"}],"name":"revokedCertificates","outputs":[{"internalType":"bool","name":"","type":"bool"}],"stateMutability":"view","type":"function"},{"inputs":[],"name":"roleManager","outputs":[{"internalType":"contract RoleManager","name":"","type":"address"}],"stateMutability":"view","type":"function"}],"evm":{"bytecode":{"linkReferences":{},"object":"608060405234801561001057600080fd5b50604051610dbf380380610dbf833981810160405281019061003291906100db565b806000806101000a81548173ffffffffffffffffffffffffffffffffffffffff021916908373ffffffffffffffffffffffffffffffffffffffff16021790555050610108565b600080fd5b600073ffffffffffffffffffffffffffffffffffffffff82169050919050565b60006100a88261007d565b9050919050565b6100b88161009d565b81146100c357600080fd5b50565b6000815190506100d5816100af565b92915050565b6000602082840312156100f1576100f0610078565b5b60006100ff848285016100c6565b91505092915050565b610ca8806101176000396000f3fe608060405234801561001057600080fd5b50600436106100615760003560e01c8062435da51461006657806320181efa146100845780634294857f146100b45780635bf4adfb146100e45780639e84a48014610100578063aede41e614610130575b600080fd5b61006e610160565b60405161007b9190610483565b60405180910390f35b61009e600480360381019061009991906104e8565b610184565b6040516100ab91906105a5565b60405180910390f35b6100ce60048036038101906100c991906104e8565b610224565b6040516100db91906105e2565b60405180910390f35b6100fe60048036038101906100f99190610732565b61024e565b005b61011a600480360381019061011591906104e8565b6103cc565b60405161012791906105e2565b60405180910390f35b61014a600480360381019061014591906104e8565b6103ec565b60405161015791906107a7565b60405180910390f35b60008054906101000a900473ffffffffffffffffffffffffffffffffffffffff1681565b600260205280600052604060002060009150905080546101a3906107f1565b80601f01602080910402602001604051908101604052809291908181526020018280546101cf906107f1565b801561021c5780601f106101f15761010080835404028352916020019161021c565b820191906000526020600020905b8154815290600101906020018083116101ff57829003601f168201915b505050505081565b60006001600083815260200190815260200160002060009054906101000a900460ff169050919050565b60008054906101000a900473ffffffffffffffffffffffffffffffffffffffff1673ffffffffffffffffffffffffffffffffffffffff166395a8c58d3360036040518363ffffffff1660e01b81526004016102aa9291906108ba565b602060405180830381865afa1580156102c7573d6000803e3d6000fd5b505050506040513d601f19601f820116820180604052508101906102eb919061090f565b61032a576040517f08c379a0000000000000000000000000000000000000000000000000000000008152600401610321906109ae565b60405180910390fd5b600180600084815260200190815260200160002060006101000a81548160ff021916908315150217905550806002600084815260200190815260200160002090816103759190610b70565b50426003600084815260200190815260200160002081905550817fa487e231ee52a2d7ad557a7acd9a778a361dc6f60ba04fcb26ccf8e5278d023382426040516103c0929190610c42565b60405180910390a25050565b60016020528060005260406000206000915054906101000a900460ff1681565b60036020528060005260406000206000915090505481565b600073ffffffffffffffffffffffffffffffffffffffff82169050919050565b6000819050919050565b600061044961044461043f84610404565b610424565b610404565b9050919050565b600061045b8261042e565b9050919050565b600061046d82610450565b9050919050565b61047d81610462565b82525050565b60006020820190506104986000830184610474565b92915050565b6000604051905090565b600080fd5b600080fd5b6000819050919050565b6104c5816104b2565b81146104d057600080fd5b50565b6000813590506104e2816104bc565b92915050565b6000602082840312156104fe576104fd6104a8565b5b600061050c848285016104d3565b91505092915050565b600081519050919050565b600082825260208201905092915050565b60005b8381101561054f578082015181840152602081019050610534565b60008484015250505050565b6000601f19601f8301169050919050565b600061057782610515565b6105818185610520565b9350610591818560208601610531565b61059a8161055b565b840191505092915050565b600060208201905081810360008301526105bf818461056c565b905092915050565b60008115159050919050565b6105dc816105c7565b82525050565b60006020820190506105f760008301846105d3565b92915050565b600080fd5b600080fd5b7f4e487b7100000000000000000000000000000000000000000000000000000000600052604160045260246000fd5b61063f8261055b565b810181811067ffffffffffffffff8211171561065e5761065d610607565b5b80604052505050565b600061067161049e565b905061067d8282610636565b919050565b600067ffffffffffffffff82111561069d5761069c610607565b5b6106a68261055b565b9050602081019050919050565b82818337600083830152505050565b60006106d56106d084610682565b610667565b9050828152602081018484840111156106f1576106f0610602565b5b6106fc8482856106b3565b509392505050565b600082601f830112610719576107186105fd565b5b81356107298482602086016106c2565b91505092915050565b60008060408385031215610749576107486104a8565b5b6000610757858286016104d3565b925050602083013567ffffffffffffffff811115610778576107776104ad565b5b61078485828601610704565b9150509250929050565b6000819050919050565b6107a18161078e565b82525050565b60006020820190506107bc6000830184610798565b92915050565b7f4e487b7100000000000000000000000000000000000000000000000000000000600052602260045260246000fd5b6000600282049050600182168061080957607f821691505b60208210810361081c5761081b6107c2565b5b50919050565b600061082d82610404565b9050919050565b61083d81610822565b82525050565b7f4e487b7100000000000000000000000000000000000000000000000000000000600052602160045260246000fd5b6004811061088357610882610843565b5b50565b600081905061089482610872565b919050565b60006108a482610886565b9050919050565b6108b481610899565b82525050565b60006040820190506108cf6000830185610834565b6108dc60208301846108ab565b9392505050565b6108ec816105c7565b81146108f757600080fd5b50565b600081519050610909816108e3565b92915050565b600060208284031215610925576109246104a8565b5b6000610933848285016108fa565b91505092915050565b7f5265766f636174696f6e52656769737472793a204d7573742062652041444d4960008201527f4e00000000000000000000000000000000000000000000000000000000000000602082015250565b6000610998602183610520565b91506109a38261093c565b604082019050919050565b600060208201905081810360008301526109c78161098b565b9050919050565b60008190508160005260206000209050919050565b60006020601f8301049050919050565b600082821b905092915050565b600060088302610a307fffffffffffffffffffffffffffffffffffffffffffffffffffffffffffffffff826109f3565b610a3a86836109f3565b95508019841693508086168417925050509392505050565b6000610a6d610a68610a638461078e565b610424565b61078e565b9050919050565b6000819050919050565b610a8783610a52565b610a9b610a9382610a74565b848454610a00565b825550505050565b600090565b610ab0610aa3565b610abb818484610a7e565b505050565b5b81811015610adf57610ad4600082610aa8565b600181019050610ac1565b5050565b601f821115610b2457610af5816109ce565b610afe846109e3565b81016020851015610b0d578190505b610b21610b19856109e3565b830182610ac0565b50505b505050565b600082821c905092915050565b6000610b4760001984600802610b29565b1980831691505092915050565b6000610b608383610b36565b9150826002028217905092915050565b610b7982610515565b67ffffffffffffffff811115610b9257610b91610607565b5b610b9c82546107f1565b610ba7828285610ae3565b600060209050601f831160018114610bda5760008415610bc8578287015190505b610bd28582610b54565b865550610c3a565b601f198416610be8866109ce565b60005b82811015610c1057848901518255600182019150602085019450602081019050610beb565b86831015610c2d5784890151610c29601f891682610b36565b8355505b6001600288020188555050505b505050505050565b60006040820190508181036000830152610c5c818561056c565b9050610c6b6020830184610798565b939250505056fea2646970667358221220fcd0c4d403e2ffe7612927b6558d2af0cb25abbcd31a06e63d78a45bc504d3de64736f6c63430008140033","opcodes":"PUSH1 0x80 PUSH1 0x40 MSTORE CALLVALUE DUP1 ISZERO PUSH2 0x10 JUMPI PUSH1 0x0 DUP1 REVERT JUMPDEST POP PUSH1 0x40 MLOAD PUSH2 0xDBF CODESIZE SUB DUP1 PUSH2 0xDBF DUP4 CODECOPY DUP2 DUP2 ADD PUSH1 0x40 MSTORE DUP2 ADD SWAP1 PUSH2 0x32 SWAP2 SWAP1 PUSH2 0xDB JUMP JUMPDEST DUP1 PUSH1 0x0 DUP1 PUSH2 0x100 EXP DUP2 SLOAD DUP2 PUSH20 0xFFFFFFFFFFFFFFFFFFFFFFFFFFFFFFFFFFFFFFFF MUL NOT AND SWAP1 DUP4 PUSH20 0xFFFFFFFFFFFFFFFFFFFFFFFFFFFFFFFFFFFFFFFF AND MUL OR SWAP1 SSTORE POP POP PUSH2 0x108 JUMP JUMPDEST PUSH1 0x0 DUP1 REVERT JUMPDEST PUSH1 0x0 PUSH20 0xFFFFFFFFFFFFFFFFFFFFFFFFFFFFFFFFFFFFFFFF DUP3 AND SWAP1 POP SWAP2 SWAP1 POP JUMP JUMPDEST PUSH1 0x0 PUSH2 0xA8 DUP3 PUSH2 0x7D JUMP JUMPDEST SWAP1 POP SWAP2 SWAP1 POP JUMP JUMPDEST PUSH2 0xB8 DUP2 PUSH2 0x9D JUMP JUMPDEST DUP2 EQ PUSH2 0xC3 JUMPI PUSH1 0x0 DUP1 REVERT JUMPDEST POP JUMP JUMPDEST PUSH1 0x0 DUP2 MLOAD SWAP1 POP PUSH2 0xD5 DUP2 PUSH2 0xAF JUMP JUMPDEST SWAP3 SWAP2 POP POP JUMP JUMPDEST PUSH1 0x0 PUSH1 0x20 DUP3 DUP5 SUB SLT ISZERO PUSH2 0xF1 JUMPI PUSH2 0xF0 PUSH2 0x78 JUMP JUMPDEST JUMPDEST PUSH1 0x0 PUSH2 0xFF DUP5 DUP3 DUP6 ADD PUSH2 0xC6 JUMP JUMPDEST SWAP2 POP POP SWAP3 SWAP2 POP POP JUMP JUMPDEST PUSH2 0xCA8 DUP1 PUSH2 0x117 PUSH1 0x0 CODECOPY PUSH1 0x0 RETURN INVALID PUSH1 0x80 PUSH1 0x40 MSTORE CALLVALUE DUP1 ISZERO PUSH2 0x10 JUMPI PUSH1 0x0 DUP1 REVERT JUMPDEST POP PUSH1 0x4 CALLDATASIZE LT PUSH2 0x61 JUMPI PUSH1 0x0 CALLDATALOAD PUSH1 0xE0 SHR DUP1 PUSH3 0x435DA5 EQ PUSH2 0x66 JUMPI DUP1 PUSH4 0x20181EFA EQ PUSH2 0x84 JUMPI DUP1 PUSH4 0x4294857F EQ PUSH2 0xB4 JUMPI DUP1 PUSH4 0x5BF4ADFB EQ PUSH2 0xE4 JUMPI DUP1 PUSH4 0x9E84A480 EQ PUSH2 0x100 JUMPI DUP1 PUSH4 0xAEDE41E6 EQ PUSH2 0x130 JUMPI JUMPDEST PUSH1 0x0 DUP1 REVERT JUMPDEST PUSH2 0x6E PUSH2 0x160 JUMP JUMPDEST PUSH1 0x40 MLOAD PUSH2 0x7B SWAP2 SWAP1 PUSH2 0x483 JUMP JUMPDEST PUSH1 0x40 MLOAD DUP1 SWAP2 SUB SWAP1 RETURN JUMPDEST PUSH2 0x9E PUSH1 0x4 DUP1 CALLDATASIZE SUB DUP2 ADD SWAP1 PUSH2 0x99 SWAP2 SWAP1 PUSH2 0x4E8 JUMP JUMPDEST PUSH2 0x184 JUMP JUMPDEST PUSH1 0x40 MLOAD PUSH2 0xAB SWAP2 SWAP1 PUSH2 0x5A5 JUMP JUMPDEST PUSH1 0x40 MLOAD DUP1 SWAP2 SUB SWAP1 RETURN JUMPDEST PUSH2 0xCE PUSH1 0x4 DUP1 CALLDATASIZE SUB DUP2 ADD SWAP1 PUSH2 0xC9 SWAP2 SWAP1 PUSH2 0x4E8 JUMP JUMPDEST PUSH2 0x224 JUMP JUMPDEST PUSH1 0x40 MLOAD PUSH2 0xDB SWAP2 SWAP1 PUSH2 0x5E2 JUMP JUMPDEST PUSH1 0x40 MLOAD DUP1 SWAP2 SUB SWAP1 RETURN JUMPDEST PUSH2 0xFE PUSH1 0x4 DUP1 CALLDATASIZE SUB DUP2 ADD SWAP1 PUSH2 0xF9 SWAP2 SWAP1 PUSH2 0x732 JUMP JUMPDEST PUSH2 0x24E JUMP JUMPDEST STOP JUMPDEST PUSH2 0x11A PUSH1 0x4 DUP1 CALLDATASIZE SUB DUP2 ADD SWAP1 PUSH2 0x115 SWAP2 SWAP1 PUSH2 0x4E8 JUMP JUMPDEST PUSH2 0x3CC JUMP JUMPDEST PUSH1 0x40 MLOAD PUSH2 0x127 SWAP2 SWAP1 PUSH2 0x5E2 JUMP JUMPDEST PUSH1 0x40 MLOAD DUP1 SWAP2 SUB SWAP1 RETURN JUMPDEST PUSH2 0x14A PUSH1 0x4 DUP1 CALLDATASIZE SUB DUP2 ADD SWAP1 PUSH2 0x145 SWAP2 SWAP1 PUSH2 0x4E8 JUMP JUMPDEST PUSH2 0x3EC JUMP JUMPDEST PUSH1 0x40 MLOAD PUSH2 0x157 SWAP2 SWAP1 PUSH2 0x7A7 JUMP JUMPDEST PUSH1 0x40 MLOAD DUP1 SWAP2 SUB SWAP1 RETURN JUMPDEST PUSH1 0x0 DUP1 SLOAD SWAP1 PUSH2 0x100 EXP SWAP1 DIV PUSH20 0xFFFFFFFFFFFFFFFFFFFFFFFFFFFFFFFFFFFFFFFF AND DUP2 JUMP JUMPDEST PUSH1 0x2 PUSH1 0x20 MSTORE DUP1 PUSH1 0x0 MSTORE PUSH1 0x40 PUSH1 0x0 KECCAK256 PUSH1 0x0 SWAP2 POP SWAP1 POP DUP1 SLOAD PUSH2 0x1A3 SWAP1 PUSH2 0x7F1 JUMP JUMPDEST DUP1 PUSH1 0x1F ADD PUSH1 0x20 DUP1 SWAP2 DIV MUL PUSH1 0x20 ADD PUSH1 0x40 MLOAD SWAP1 DUP2 ADD PUSH1 0x40 MSTORE DUP1 SWAP3 SWAP2 SWAP1 DUP2 DUP2 MSTORE PUSH1 0x20 ADD DUP3 DUP1 SLOAD PUSH2 0x1CF SWAP1 PUSH2 0x7F1 JUMP JUMPDEST DUP1 ISZERO PUSH2 0x21C JUMPI DUP1 PUSH1 0x1F LT PUSH2 0x1F1 JUMPI PUSH2 0x100 DUP1 DUP4 SLOAD DIV MUL DUP4 MSTORE SWAP2 PUSH1 0x20 ADD SWAP2 PUSH2 0x21C JUMP JUMPDEST DUP3 ADD SWAP2 SWAP1 PUSH1 0x0 MSTORE PUSH1 0x20 PUSH1 0x0 KECCAK256 SWAP1 JUMPDEST DUP2 SLOAD DUP2 MSTORE SWAP1 PUSH1 0x1 ADD SWAP1 PUSH1 0x20 ADD DUP1 DUP4 GT PUSH2 0x1FF JUMPI DUP3 SWAP1 SUB PUSH1 0x1F AND DUP3 ADD SWAP2 JUMPDEST POP POP POP POP POP DUP2 JUMP JUMPDEST PUSH1 0x0 PUSH1 0x1 PUSH1 0x0 DUP4 DUP2 MSTORE PUSH1 0x20 ADD SWAP1 DUP2 MSTORE PUSH1 0x20 ADD PUSH1 0x0 KECCAK256 PUSH1 0x0 SWAP1 SLOAD SWAP1 PUSH2 0x100 EXP SWAP1 DIV PUSH1 0xFF AND SWAP1 POP SWAP2 SWAP1 POP JUMP JUMPDEST PUSH1 0x0 DUP1 SLOAD SWAP1 PUSH2 0x100 EXP SWAP1 DIV PUSH20 0xFFFFFFFFFFFFFFFFFFFFFFFFFFFFFFFFFFFFFFFF AND PUSH20 0xFFFFFFFFFFFFFFFFFFFFFFFFFFFFFFFFFFFFFFFF AND PUSH4 0x95A8C58D CALLER PUSH1 0x3 PUSH1 0x40 MLOAD DUP4 PUSH4 0xFFFFFFFF AND PUSH1 0xE0 SHL DUP2 MSTORE PUSH1 0x4 ADD PUSH2 0x2AA SWAP3 SWAP2 SWAP1 PUSH2 0x8BA JUMP JUMPDEST PUSH1 0x20 PUSH1 0x40 MLOAD DUP1 DUP4 SUB DUP2 DUP7 GAS STATICCALL ISZERO DUP1 ISZERO PUSH2 0x2C7 JUMPI RETURNDATASIZE PUSH1 0x0 DUP1 RETURNDATACOPY RETURNDATASIZE PUSH1 0x0 REVERT JUMPDEST POP POP POP POP PUSH1 0x40 MLOAD RETURNDATASIZE PUSH1 0x1F NOT PUSH1 0x1F DUP3 ADD AND DUP3 ADD DUP1 PUSH1 0x40 MSTORE POP DUP2 ADD SWAP1 PUSH2 0x2EB SWAP2 SWAP1 PUSH2 0x90F JUMP JUMPDEST PUSH2 0x32A JUMPI PUSH1 0x40 MLOAD PUSH32 0x8C379A000000000000000000000000000000000000000000000000000000000 DUP2 MSTORE PUSH1 0x4 ADD PUSH2 0x321 SWAP1 PUSH2 0x9AE JUMP JUMPDEST PUSH1 0x40 MLOAD DUP1 SWAP2 SUB SWAP1 REVERT JUMPDEST PUSH1 0x1 DUP1 PUSH1 0x0 DUP5 DUP2 MSTORE PUSH1 0x20 ADD SWAP1 DUP2 MSTORE PUSH1 0x20 ADD PUSH1 0x0 KECCAK256 PUSH1 0x0 PUSH2 0x100 EXP DUP2 SLOAD DUP2 PUSH1 0xFF MUL NOT AND SWAP1 DUP4 ISZERO ISZERO MUL OR SWAP1 SSTORE POP DUP1 PUSH1 0x2 PUSH1 0x0 DUP5 DUP2 MSTORE PUSH1 0x20 ADD SWAP1 DUP2 MSTORE PUSH1 0x20 ADD PUSH1 0x0 KECCAK256 SWAP1 DUP2 PUSH2 0x375 SWAP2 SWAP1 PUSH2 0xB70 JUMP JUMPDEST POP TIMESTAMP PUSH1 0x3 PUSH1 0x0 DUP5 DUP2 MSTORE PUSH1 0x20 ADD SWAP1 DUP2 MSTORE PUSH1 0x20 ADD PUSH1 0x0 KECCAK256 DUP2 SWAP1 SSTORE POP DUP2 PUSH32 0xA487E231EE52A2D7AD557A7ACD9A778A361DC6F60BA04FCB26CCF8E5278D0233 DUP3 TIMESTAMP PUSH1 0x40 MLOAD PUSH2 0x3C0 SWAP3 SWAP2 SWAP1 PUSH2 0xC42 JUMP JUMPDEST PUSH1 0x40 MLOAD DUP1 SWAP2 SUB SWAP1 LOG2 POP POP JUMP JUMPDEST PUSH1 0x1 PUSH1 0x20 MSTORE DUP1 PUSH1 0x0 MSTORE PUSH1 0x40 PUSH1 0x0 KECCAK256 PUSH1 0x0 SWAP2 POP SLOAD SWAP1 PUSH2 0x100 EXP SWAP1 DIV PUSH1 0xFF AND DUP2 JUMP JUMPDEST PUSH1 0x3 PUSH1 0x20 MSTORE DUP1 PUSH1 0x0 MSTORE PUSH1 0x40 PUSH1 0x0 KECCAK256 PUSH1 0x0 SWAP2 POP SWAP1 POP SLOAD DUP2 JUMP JUMPDEST PUSH1 0x0 PUSH20 0xFFFFFFFFFFFFFFFFFFFFFFFFFFFFFFFFFFFFFFFF DUP3 AND SWAP1 POP SWAP2 SWAP1 POP JUMP JUMPDEST PUSH1 0x0 DUP2 SWAP1 POP SWAP2 SWAP1 POP JUMP JUMPDEST PUSH1 0x0 PUSH2 0x449 PUSH2 0x444 PUSH2 0x43F DUP5 PUSH2 0x404 JUMP JUMPDEST PUSH2 0x424 JUMP JUMPDEST PUSH2 0x404 JUMP JUMPDEST SWAP1 POP SWAP2 SWAP1 POP JUMP JUMPDEST PUSH1 0x0 PUSH2 0x45B DUP3 PUSH2 0x42E JUMP JUMPDEST SWAP1 POP SWAP2 SWAP1 POP JUMP JUMPDEST PUSH1 0x0 PUSH2 0x46D DUP3 PUSH2 0x450 JUMP JUMPDEST SWAP1 POP SWAP2 SWAP1 POP JUMP JUMPDEST PUSH2 0x47D DUP2 PUSH2 0x462 JUMP JUMPDEST DUP3 MSTORE POP POP JUMP JUMPDEST PUSH1 0x0 PUSH1 0x20 DUP3 ADD SWAP1 POP PUSH2 0x498 PUSH1 0x0 DUP4 ADD DUP5 PUSH2 0x474 JUMP JUMPDEST SWAP3 SWAP2 POP POP JUMP JUMPDEST PUSH1 0x0 PUSH1 0x40 MLOAD SWAP1 POP SWAP1 JUMP JUMPDEST PUSH1 0x0 DUP1 REVERT JUMPDEST PUSH1 0x0 DUP1 REVERT JUMPDEST PUSH1 0x0 DUP2 SWAP1 POP SWAP2 SWAP1 POP JUMP JUMPDEST PUSH2 0x4C5 DUP2 PUSH2 0x4B2 JUMP JUMPDEST DUP2 EQ PUSH2 0x4D0 JUMPI PUSH1 0x0 DUP1 REVERT JUMPDEST POP JUMP JUMPDEST PUSH1 0x0 DUP2 CALLDATALOAD SWAP1 POP PUSH2 0x4E2 DUP2 PUSH2 0x4BC JUMP JUMPDEST SWAP3 SWAP2 POP POP JUMP JUMPDEST PUSH1 0x0 PUSH1 0x20 DUP3 DUP5 SUB SLT ISZERO PUSH2 0x4FE JUMPI PUSH2 0x4FD PUSH2 0x4A8 JUMP JUMPDEST JUMPDEST PUSH1 0x0 PUSH2 0x50C DUP5 DUP3 DUP6 ADD PUSH2 0x4D3 JUMP JUMPDEST SWAP2 POP POP SWAP3 SWAP2 POP POP JUMP JUMPDEST PUSH1 0x0 DUP2 MLOAD SWAP1 POP SWAP2 SWAP1 POP JUMP JUMPDEST PUSH1 0x0 DUP3 DUP3 MSTORE PUSH1 0x20 DUP3 ADD SWAP1 POP SWAP3 SWAP2 POP POP JUMP JUMPDEST PUSH1 0x0 JUMPDEST DUP4 DUP2 LT ISZERO PUSH2 0x54F JUMPI DUP1 DUP3 ADD MLOAD DUP2 DUP5 ADD MSTORE PUSH1 0x20 DUP2 ADD SWAP1 POP PUSH2 0x534 JUMP JUMPDEST PUSH1 0x0 DUP5 DUP5 ADD MSTORE POP POP POP POP JUMP JUMPDEST PUSH1 0x0 PUSH1 0x1F NOT PUSH1 0x1F DUP4 ADD AND SWAP1 POP SWAP2 SWAP1 POP JUMP JUMPDEST PUSH1 0x0 PUSH2 0x577 DUP3 PUSH2 0x515 JUMP JUMPDEST PUSH2 0x581 DUP2 DUP6 PUSH2 0x520 JUMP JUMPDEST SWAP4 POP PUSH2 0x591 DUP2 DUP6 PUSH1 0x20 DUP7 ADD PUSH2 0x531 JUMP JUMPDEST PUSH2 0x59A DUP2 PUSH2 0x55B JUMP JUMPDEST DUP5 ADD SWAP2 POP POP SWAP3 SWAP2 POP POP JUMP JUMPDEST PUSH1 0x0 PUSH1 0x20 DUP3 ADD SWAP1 POP DUP2 DUP2 SUB PUSH1 0x0 DUP4 ADD MSTORE PUSH2 0x5BF DUP2 DUP5 PUSH2 0x56C JUMP JUMPDEST SWAP1 POP SWAP3 SWAP2 POP POP JUMP JUMPDEST PUSH1 0x0 DUP2 ISZERO ISZERO SWAP1 POP SWAP2 SWAP1 POP JUMP JUMPDEST PUSH2 0x5DC DUP2 PUSH2 0x5C7 JUMP JUMPDEST DUP3 MSTORE POP POP JUMP JUMPDEST PUSH1 0x0 PUSH1 0x20 DUP3 ADD SWAP1 POP PUSH2 0x5F7 PUSH1 0x0 DUP4 ADD DUP5 PUSH2 0x5D3 JUMP JUMPDEST SWAP3 SWAP2 POP POP JUMP JUMPDEST PUSH1 0x0 DUP1 REVERT JUMPDEST PUSH1 0x0 DUP1 REVERT JUMPDEST PUSH32 0x4E487B7100000000000000000000000000000000000000000000000000000000 PUSH1 0x0 MSTORE PUSH1 0x41 PUSH1 0x4 MSTORE PUSH1 0x24 PUSH1 0x0 REVERT JUMPDEST PUSH2 0x63F DUP3 PUSH2 0x55B JUMP JUMPDEST DUP2 ADD DUP2 DUP2 LT PUSH8 0xFFFFFFFFFFFFFFFF DUP3 GT OR ISZERO PUSH2 0x65E JUMPI PUSH2 0x65D PUSH2 0x607 JUMP JUMPDEST JUMPDEST DUP1 PUSH1 0x40 MSTORE POP POP POP JUMP JUMPDEST PUSH1 0x0 PUSH2 0x671 PUSH2 0x49E JUMP JUMPDEST SWAP1 POP PUSH2 0x67D DUP3 DUP3 PUSH2 0x636 JUMP JUMPDEST SWAP2 SWAP1 POP JUMP JUMPDEST PUSH1 0x0 PUSH8 0xFFFFFFFFFFFFFFFF DUP3 GT ISZERO PUSH2 0x69D JUMPI PUSH2 0x69C PUSH2 0x607 JUMP JUMPDEST JUMPDEST PUSH2 0x6A6 DUP3 PUSH2 0x55B JUMP JUMPDEST SWAP1 POP PUSH1 0x20 DUP2 ADD SWAP1 POP SWAP2 SWAP1 POP JUMP JUMPDEST DUP3 DUP2 DUP4 CALLDATACOPY PUSH1 0x0 DUP4 DUP4 ADD MSTORE POP POP POP JUMP JUMPDEST PUSH1 0x0 PUSH2 0x6D5 PUSH2 0x6D0 DUP5 PUSH2 0x682 JUMP JUMPDEST PUSH2 0x667 JUMP JUMPDEST SWAP1 POP DUP3 DUP2 MSTORE PUSH1 0x20 DUP2 ADD DUP5 DUP5 DUP5 ADD GT ISZERO PUSH2 0x6F1 JUMPI PUSH2 0x6F0 PUSH2 0x602 JUMP JUMPDEST JUMPDEST PUSH2 0x6FC DUP5 DUP3 DUP6 PUSH2 0x6B3 JUMP JUMPDEST POP SWAP4 SWAP3 POP POP POP JUMP JUMPDEST PUSH1 0x0 DUP3 PUSH1 0x1F DUP4 ADD SLT PUSH2 0x719 JUMPI PUSH2 0x718 PUSH2 0x5FD JUMP JUMPDEST JUMPDEST DUP2 CALLDATALOAD PUSH2 0x729 DUP5 DUP3 PUSH1 0x20 DUP7 ADD PUSH2 0x6C2 JUMP JUMPDEST SWAP2 POP POP SWAP3 SWAP2 POP POP JUMP JUMPDEST PUSH1 0x0 DUP1 PUSH1 0x40 DUP4 DUP6 SUB SLT ISZERO PUSH2 0x749 JUMPI PUSH2 0x748 PUSH2 0x4A8 JUMP JUMPDEST JUMPDEST PUSH1 0x0 PUSH2 0x757 DUP6 DUP3 DUP7 ADD PUSH2 0x4D3 JUMP JUMPDEST SWAP3 POP POP PUSH1 0x20 DUP4 ADD CALLDATALOAD PUSH8 0xFFFFFFFFFFFFFFFF DUP2 GT ISZERO PUSH2 0x778 JUMPI PUSH2 0x777 PUSH2 0x4AD JUMP JUMPDEST JUMPDEST PUSH2 0x784 DUP6 DUP3 DUP7 ADD PUSH2 0x704 JUMP JUMPDEST SWAP2 POP POP SWAP3 POP SWAP3 SWAP1 POP JUMP JUMPDEST PUSH1 0x0 DUP2 SWAP1 POP SWAP2 SWAP1 POP JUMP JUMPDEST PUSH2 0x7A1 DUP2 PUSH2 0x78E JUMP JUMPDEST DUP3 MSTORE POP POP JUMP JUMPDEST PUSH1 0x0 PUSH1 0x20 DUP3 ADD SWAP1 POP PUSH2 0x7BC PUSH1 0x0 DUP4 ADD DUP5 PUSH2 0x798 JUMP JUMPDEST SWAP3 SWAP2 POP POP JUMP JUMPDEST PUSH32 0x4E487B7100000000000000000000000000000000000000000000000000000000 PUSH1 0x0 MSTORE PUSH1 0x22 PUSH1 0x4 MSTORE PUSH1 0x24 PUSH1 0x0 REVERT JUMPDEST PUSH1 0x0 PUSH1 0x2 DUP3 DIV SWAP1 POP PUSH1 0x1 DUP3 AND DUP1 PUSH2 0x809 JUMPI PUSH1 0x7F DUP3 AND SWAP2 POP JUMPDEST PUSH1 0x20 DUP3 LT DUP2 SUB PUSH2 0x81C JUMPI PUSH2 0x81B PUSH2 0x7C2 JUMP JUMPDEST JUMPDEST POP SWAP2 SWAP1 POP JUMP JUMPDEST PUSH1 0x0 PUSH2 0x82D DUP3 PUSH2 0x404 JUMP JUMPDEST SWAP1 POP SWAP2 SWAP1 POP JUMP JUMPDEST PUSH2 0x83D DUP2 PUSH2 0x822 JUMP JUMPDEST DUP3 MSTORE POP POP JUMP JUMPDEST PUSH32 0x4E487B7100000000000000000000000000000000000000000000000000000000 PUSH1 0x0 MSTORE PUSH1 0x21 PUSH1 0x4 MSTORE PUSH1 0x24 PUSH1 0x0 REVERT JUMPDEST PUSH1 0x4 DUP2 LT PUSH2 0x883 JUMPI PUSH2 0x882 PUSH2 0x843 JUMP JUMPDEST JUMPDEST POP JUMP JUMPDEST PUSH1 0x0 DUP2 SWAP1 POP PUSH2 0x894 DUP3 PUSH2 0x872 JUMP JUMPDEST SWAP2 SWAP1 POP JUMP JUMPDEST PUSH1 0x0 PUSH2 0x8A4 DUP3 PUSH2 0x886 JUMP JUMPDEST SWAP1 POP SWAP2 SWAP1 POP JUMP JUMPDEST PUSH2 0x8B4 DUP2 PUSH2 0x899 JUMP JUMPDEST DUP3 MSTORE POP POP JUMP JUMPDEST PUSH1 0x0 PUSH1 0x40 DUP3 ADD SWAP1 POP PUSH2 0x8CF PUSH1 0x0 DUP4 ADD DUP6 PUSH2 0x834 JUMP JUMPDEST PUSH2 0x8DC PUSH1 0x20 DUP4 ADD DUP5 PUSH2 0x8AB JUMP JUMPDEST SWAP4 SWAP3 POP POP POP JUMP JUMPDEST PUSH2 0x8EC DUP2 PUSH2 0x5C7 JUMP JUMPDEST DUP2 EQ PUSH2 0x8F7 JUMPI PUSH1 0x0 DUP1 REVERT JUMPDEST POP JUMP JUMPDEST PUSH1 0x0 DUP2 MLOAD SWAP1 POP PUSH2 0x909 DUP2 PUSH2 0x8E3 JUMP JUMPDEST SWAP3 SWAP2 POP POP JUMP JUMPDEST PUSH1 0x0 PUSH1 0x20 DUP3 DUP5 SUB SLT ISZERO PUSH2 0x925 JUMPI PUSH2 0x924 PUSH2 0x4A8 JUMP JUMPDEST JUMPDEST PUSH1 0x0 PUSH2 0x933 DUP5 DUP3 DUP6 ADD PUSH2 0x8FA JUMP JUMPDEST SWAP2 POP POP SWAP3 SWAP2 POP POP JUMP JUMPDEST PUSH32 0x5265766F636174696F6E52656769737472793A204D7573742062652041444D49 PUSH1 0x0 DUP3 ADD MSTORE PUSH32 0x4E00000000000000000000000000000000000000000000000000000000000000 PUSH1 0x20 DUP3 ADD MSTORE POP JUMP JUMPDEST PUSH1 0x0 PUSH2 0x998 PUSH1 0x21 DUP4 PUSH2 0x520 JUMP JUMPDEST SWAP2 POP PUSH2 0x9A3 DUP3 PUSH2 0x93C JUMP JUMPDEST PUSH1 0x40 DUP3 ADD SWAP1 POP SWAP2 SWAP1 POP JUMP JUMPDEST PUSH1 0x0 PUSH1 0x20 DUP3 ADD SWAP1 POP DUP2 DUP2 SUB PUSH1 0x0 DUP4 ADD MSTORE PUSH2 0x9C7 DUP2 PUSH2 0x98B JUMP JUMPDEST SWAP1 POP SWAP2 SWAP1 POP JUMP JUMPDEST PUSH1 0x0 DUP2 SWAP1 POP DUP2 PUSH1 0x0 MSTORE PUSH1 0x20 PUSH1 0x0 KECCAK256 SWAP1 POP SWAP2 SWAP1 POP JUMP JUMPDEST PUSH1 0x0 PUSH1 0x20 PUSH1 0x1F DUP4 ADD DIV SWAP1 POP SWAP2 SWAP1 POP JUMP JUMPDEST PUSH1 0x0 DUP3 DUP3 SHL SWAP1 POP SWAP3 SWAP2 POP POP JUMP JUMPDEST PUSH1 0x0 PUSH1 0x8 DUP4 MUL PUSH2 0xA30 PUSH32 0xFFFFFFFFFFFFFFFFFFFFFFFFFFFFFFFFFFFFFFFFFFFFFFFFFFFFFFFFFFFFFFFF DUP3 PUSH2 0x9F3 JUMP JUMPDEST PUSH2 0xA3A DUP7 DUP4 PUSH2 0x9F3 JUMP JUMPDEST SWAP6 POP DUP1 NOT DUP5 AND SWAP4 POP DUP1 DUP7 AND DUP5 OR SWAP3 POP POP POP SWAP4 SWAP3 POP POP POP JUMP JUMPDEST PUSH1 0x0 PUSH2 0xA6D PUSH2 0xA68 PUSH2 0xA63 DUP5 PUSH2 0x78E JUMP JUMPDEST PUSH2 0x424 JUMP JUMPDEST PUSH2 0x78E JUMP JUMPDEST SWAP1 POP SWAP2 SWAP1 POP JUMP JUMPDEST PUSH1 0x0 DUP2 SWAP1 POP SWAP2 SWAP1 POP JUMP JUMPDEST PUSH2 0xA87 DUP4 PUSH2 0xA52 JUMP JUMPDEST PUSH2 0xA9B PUSH2 0xA93 DUP3 PUSH2 0xA74 JUMP JUMPDEST DUP5 DUP5 SLOAD PUSH2 0xA00 JUMP JUMPDEST DUP3 SSTORE POP POP POP POP JUMP JUMPDEST PUSH1 0x0 SWAP1 JUMP JUMPDEST PUSH2 0xAB0 PUSH2 0xAA3 JUMP JUMPDEST PUSH2 0xABB DUP2 DUP5 DUP5 PUSH2 0xA7E JUMP JUMPDEST POP POP POP JUMP JUMPDEST JUMPDEST DUP2 DUP2 LT ISZERO PUSH2 0xADF JUMPI PUSH2 0xAD4 PUSH1 0x0 DUP3 PUSH2 0xAA8 JUMP JUMPDEST PUSH1 0x1 DUP2 ADD SWAP1 POP PUSH2 0xAC1 JUMP JUMPDEST POP POP JUMP JUMPDEST PUSH1 0x1F DUP3 GT ISZERO PUSH2 0xB24 JUMPI PUSH2 0xAF5 DUP2 PUSH2 0x9CE JUMP JUMPDEST PUSH2 0xAFE DUP5 PUSH2 0x9E3 JUMP JUMPDEST DUP2 ADD PUSH1 0x20 DUP6 LT ISZERO PUSH2 0xB0D JUMPI DUP2 SWAP1 POP JUMPDEST PUSH2 0xB21 PUSH2 0xB19 DUP6 PUSH2 0x9E3 JUMP JUMPDEST DUP4 ADD DUP3 PUSH2 0xAC0 JUMP JUMPDEST POP POP JUMPDEST POP POP POP JUMP JUMPDEST PUSH1 0x0 DUP3 DUP3 SHR SWAP1 POP SWAP3 SWAP2 POP POP JUMP JUMPDEST PUSH1 0x0 PUSH2 0xB47 PUSH1 0x0 NOT DUP5 PUSH1 0x8 MUL PUSH2 0xB29 JUMP JUMPDEST NOT DUP1 DUP4 AND SWAP2 POP POP SWAP3 SWAP2 POP POP JUMP JUMPDEST PUSH1 0x0 PUSH2 0xB60 DUP4 DUP4 PUSH2 0xB36 JUMP JUMPDEST SWAP2 POP DUP3 PUSH1 0x2 MUL DUP3 OR SWAP1 POP SWAP3 SWAP2 POP POP JUMP JUMPDEST PUSH2 0xB79 DUP3 PUSH2 0x515 JUMP JUMPDEST PUSH8 0xFFFFFFFFFFFFFFFF DUP2 GT ISZERO PUSH2 0xB92 JUMPI PUSH2 0xB91 PUSH2 0x607 JUMP JUMPDEST JUMPDEST PUSH2 0xB9C DUP3 SLOAD PUSH2 0x7F1 JUMP JUMPDEST PUSH2 0xBA7 DUP3 DUP3 DUP6 PUSH2 0xAE3 JUMP JUMPDEST PUSH1 0x0 PUSH1 0x20 SWAP1 POP PUSH1 0x1F DUP4 GT PUSH1 0x1 DUP2 EQ PUSH2 0xBDA JUMPI PUSH1 0x0 DUP5 ISZERO PUSH2 0xBC8 JUMPI DUP3 DUP8 ADD MLOAD SWAP1 POP JUMPDEST PUSH2 0xBD2 DUP6 DUP3 PUSH2 0xB54 JUMP JUMPDEST DUP7 SSTORE POP PUSH2 0xC3A JUMP JUMPDEST PUSH1 0x1F NOT DUP5 AND PUSH2 0xBE8 DUP7 PUSH2 0x9CE JUMP JUMPDEST PUSH1 0x0 JUMPDEST DUP3 DUP2 LT ISZERO PUSH2 0xC10 JUMPI DUP5 DUP10 ADD MLOAD DUP3 SSTORE PUSH1 0x1 DUP3 ADD SWAP2 POP PUSH1 0x20 DUP6 ADD SWAP5 POP PUSH1 0x20 DUP2 ADD SWAP1 POP PUSH2 0xBEB JUMP JUMPDEST DUP7 DUP4 LT ISZERO PUSH2 0xC2D JUMPI DUP5 DUP10 ADD MLOAD PUSH2 0xC29 PUSH1 0x1F DUP10 AND DUP3 PUSH2 0xB36 JUMP JUMPDEST DUP4 SSTORE POP JUMPDEST PUSH1 0x1 PUSH1 0x2 DUP9 MUL ADD DUP9 SSTORE POP POP POP JUMPDEST POP POP POP POP POP POP JUMP JUMPDEST PUSH1 0x0 PUSH1 0x40 DUP3 ADD SWAP1 POP DUP2 DUP2 SUB PUSH1 0x0 DUP4 ADD MSTORE PUSH2 0xC5C DUP2 DUP6 PUSH2 0x56C JUMP JUMPDEST SWAP1 POP PUSH2 0xC6B PUSH1 0x20 DUP4 ADD DUP5 PUSH2 0x798 JUMP JUMPDEST SWAP4 SWAP3 POP POP POP JUMP INVALID LOG2 PUSH5 0x6970667358 0x22 SLT KECCAK256 0xFC 0xD0 0xC4 0xD4 SUB 0xE2 SELFDESTRUCT 0xE7 PUSH2 0x2927 0xB6 SSTORE DUP14 0x2A CREATE 0xCB 0x25 0xAB 0xBC 0xD3 BYTE MOD 0xE6 RETURNDATASIZE PUSH25 0xA45BC504D3DE64736F6C634300081400330000000000000000 "},"methodIdentifiers":{"isRevoked(bytes32)":"4294857f","revocationReason(bytes32)":"20181efa","revocationTimestamp(bytes32)":"aede41e6","revokeCertificate(bytes32,string)":"5bf4adfb","revokedCertificates(bytes32)":"9e84a480","roleManager()":"00435da5"}}}}}