{
  "_format": "hh-sol-artifact-1",
  "contractName": "CertificateLifecycle",
  "sourceName": "contracts/CertificateLifecycle.sol",
  "abi": [
    {
      "inputs": [
        {
          "internalType": "address",
          "name": "_roleManager",
          "type": "address"
        },
        {
          "internalType": "address",
          "name": "_revocationRegistry",
          "type": "address"
        }
      ],
      "stateMutability": "nonpayable",
      "type": "constructor"
    },
    {
      "inputs": [],
      "name": "EnforcedPause",
      "type": "error"
    },
    {
      "inputs": [],
      "name": "ExpectedPause",
      "type": "error"
    },
    {
      "anonymous": false,
      "inputs": [
        {
          "indexed": true,
          "internalType": "bytes32",
          "name": "docHash",
          "type": "bytes32"
        },
        {
          "indexed": false,
          "internalType": "enum CertificateLifecycle.DocState",
          "name": "newState",
          "type": "uint8"
        },
        {
          "indexed": false,
          "internalType": "address",
          "name": "changedBy",
          "type": "address"
        },
        {
          "indexed": false,
          "internalType": "uint256",
          "name": "timestamp",
          "type": "uint256"
        }
      ],
      "name": "CertificateStateChanged",
      "type": "event"
    },
    {
      "anonymous": false,
      "inputs": [
        {
          "indexed": false,
          "internalType": "address",
          "name": "account",
          "type": "address"
        }
      ],
      "name": "Paused",
      "type": "event"
    },
    {
      "anonymous": false,
      "inputs": [
        {
          "indexed": false,
          "internalType": "address",
          "name": "account",
          "type": "address"
        }
      ],
      "name": "Unpaused",
      "type": "event"
    },
    {
      "inputs": [
        {
          "internalType": "bytes32",
          "name": "docHash",
          "type": "bytes32"
        }
      ],
      "name": "approveCertificate",
      "outputs": [],
      "stateMutability": "nonpayable",
      "type": "function"
    },
    {
      "inputs": [
        {
          "internalType": "bytes32",
          "name": "",
          "type": "bytes32"
        }
      ],
      "name": "certificateApprovals",
      "outputs": [
        {
          "internalType": "uint256",
          "name": "requiredApprovals",
          "type": "uint256"
        },
        {
          "internalType": "uint256",
          "name": "approvalCount",
          "type": "uint256"
        }
      ],
      "stateMutability": "view",
      "type": "function"
    },
    {
      "inputs": [
        {
          "internalType": "bytes32",
          "name": "",
          "type": "bytes32"
        }
      ],
      "name": "certificates",
      "outputs": [
        {
          "internalType": "bytes32",
          "name": "docHash",
          "type": "bytes32"
        },
        {
          "internalType": "enum CertificateLifecycle.DocState",
          "name": "state",
          "type": "uint8"
        },
        {
          "internalType": "address",
          "name": "issuedTo",
          "type": "address"
        },
        {
          "internalType": "address",
          "name": "createdBy",
          "type": "address"
        },
        {
          "internalType": "string",
          "name": "metadataURI",
          "type": "string"
        },
        {
          "internalType": "bool",
          "name": "isRevoked",
          "type": "bool"
        }
      ],
      "stateMutability": "view",
      "type": "function"
    },
    {
      "inputs": [
        {
          "internalType": "bytes32",
          "name": "docHash",
          "type": "bytes32"
        },
        {
          "internalType": "address",
          "name": "issuedTo",
          "type": "address"
        },
        {
          "internalType": "string",
          "name": "metadataURI",
          "type": "string"
        },
        {
          "internalType": "uint256",
          "name": "requiredApprovals",
          "type": "uint256"
        },
        {
          "internalType": "address[]",
          "name": "designatedApprovers",
          "type": "address[]"
        }
      ],
      "name": "createDraft",
      "outputs": [],
      "stateMutability": "nonpayable",
      "type": "function"
    },
    {
      "inputs": [
        {
          "internalType": "bytes32",
          "name": "docHash",
          "type": "bytes32"
        }
      ],
      "name": "getCertificate",
      "outputs": [
        {
          "components": [
            {
              "internalType": "bytes32",
              "name": "docHash",
              "type": "bytes32"
            },
            {
              "internalType": "enum CertificateLifecycle.DocState",
              "name": "state",
              "type": "uint8"
            },
            {
              "internalType": "address",
              "name": "issuedTo",
              "type": "address"
            },
            {
              "internalType": "address",
              "name": "createdBy",
              "type": "address"
            },
            {
              "internalType": "address[]",
              "name": "approvers",
              "type": "address[]"
            },
            {
              "internalType": "uint256[]",
              "name": "stateTimestamps",
              "type": "uint256[]"
            },
            {
              "internalType": "string",
              "name": "metadataURI",
              "type": "string"
            },
            {
              "internalType": "bool",
              "name": "isRevoked",
              "type": "bool"
            }
          ],
          "internalType": "struct CertificateLifecycle.Certificate",
          "name": "",
          "type": "tuple"
        }
      ],
      "stateMutability": "view",
      "type": "function"
    },
    {
      "inputs": [
        {
          "internalType": "bytes32",
          "name": "",
          "type": "bytes32"
        },
        {
          "internalType": "address",
          "name": "",
          "type": "address"
        }
      ],
      "name": "hasApproved",
      "outputs": [
        {
          "internalType": "bool",
          "name": "",
          "type": "bool"
        }
      ],
      "stateMutability": "view",
      "type": "function"
    },
    {
      "inputs": [
        {
          "internalType": "bytes32",
          "name": "docHash",
          "type": "bytes32"
        }
      ],
      "name": "issueCertificate",
      "outputs": [],
      "stateMutability": "nonpayable",
      "type": "function"
    },
    {
      "inputs": [],
      "name": "paused",
      "outputs": [
        {
          "internalType": "bool",
          "name": "",
          "type": "bool"
        }
      ],
      "stateMutability": "view",
      "type": "function"
    },
    {
      "inputs": [],
      "name": "revocationRegistry",
      "outputs": [
        {
          "internalType": "contract RevocationRegistry",
          "name": "",
          "type": "address"
        }
      ],
      "stateMutability": "view",
      "type": "function"
    },
    {
      "inputs": [],
      "name": "roleManager",
      "outputs": [
        {
          "internalType": "contract RoleManager",
          "name": "",
          "type": "address"
        }
      ],
      "stateMutability": "view",
      "type": "function"
    },
    {
      "inputs": [
        {
          "internalType": "bytes32",
          "name": "docHash",
          "type": "bytes32"
        }
      ],
      "name": "signCertificate",
      "outputs": [],
      "stateMutability": "nonpayable",
      "type": "function"
    },
    {
      "inputs": [
        {
          "internalType": "bytes32",
          "name": "docHash",
          "type": "bytes32"
        }
      ],
      "name": "submitForReview",
      "outputs": [],
      "stateMutability": "nonpayable",
      "type": "function"
    },
    {
      "inputs": [
        {
          "internalType": "bytes32",
          "name": "docHash",
          "type": "bytes32"
        }
      ],
      "name": "syncRevocation",
      "outputs": [],
      "stateMutability": "nonpayable",
      "type": "function"
    }
  ],
  "bytecode": "0x608060405234801562000010575f80fd5b5060405162001ebe38038062001ebe83398101604081905262000033916200008a565b5f8054610100600160a81b0319166101006001600160a01b0394851602179055600180546001600160a01b03191691909216179055620000c0565b80516001600160a01b038116811462000085575f80fd5b919050565b5f80604083850312156200009c575f80fd5b620000a7836200006e565b9150620000b7602084016200006e565b90509250929050565b611df080620000ce5f395ff3fe608060405234801561000f575f80fd5b50600436106100ca575f3560e01c80637413a8aa11610088578063b5024f1011610063578063b5024f10146101f7578063ec8ed4961461020a578063f0f2740d1461021d578063f333fe0814610230575f80fd5b80637413a8aa146101ac578063742f0688146101bf578063a1f81824146101e4575f80fd5b8062435da5146100ce57806323cdc3f11461010257806324d6a9ef1461013f57806337b5af99146101545780633f8f50631461018f5780635c975abb146101a2575b5f80fd5b5f546100e59061010090046001600160a01b031681565b6040516001600160a01b0390911681526020015b60405180910390f35b61012f610110366004611793565b600460209081525f928352604080842090915290825290205460ff1681565b60405190151581526020016100f9565b61015261014d3660046117bd565b610250565b005b61017a6101623660046117bd565b60036020525f90815260409020805460029091015482565b604080519283526020830191909152016100f9565b61015261019d36600461181c565b610708565b5f5460ff1661012f565b6101526101ba3660046117bd565b610953565b6101d26101cd3660046117bd565b610aa3565b6040516100f99695949392919061194b565b6101526101f23660046117bd565b610b76565b6101526102053660046117bd565b610e6e565b6101526102183660046117bd565b61115f565b6001546100e5906001600160a01b031681565b61024361023e3660046117bd565b6114c3565b6040516100f99190611a10565b5f5460408051634245962b60e01b815290516101009092046001600160a01b0316916391d14854918391634245962b916004808201926020929091908290030181865afa1580156102a3573d5f803e3d5ffd5b505050506040513d601f19601f820116820180604052508101906102c79190611ad0565b6040516001600160e01b031960e084901b1681526004810191909152336024820152604401602060405180830381865afa158015610307573d5f803e3d5ffd5b505050506040513d601f19601f8201168201806040525081019061032b9190611ae7565b6103505760405162461bcd60e51b815260040161034790611b0d565b60405180910390fd5b6103586116de565b600154604051634294857f60e01b81526004810183905282916001600160a01b031690634294857f90602401602060405180830381865afa15801561039f573d5f803e3d5ffd5b505050506040513d601f19601f820116820180604052508101906103c39190611ae7565b15610446575f818152600260205260409020600681015460ff1661044457600681018054600160ff1991821681179092558183018054600592168217905560048301805492830181555f9081526020902042920182905560405184925f80516020611d9b8339815191529261043b9290913391611b53565b60405180910390a25b505b5f8181526002602052604090206006015460ff16156104775760405162461bcd60e51b815260040161034790611b7b565b5f82815260026020526040902060018082015460ff16600581111561049e5761049e6118d4565b146104fe5760405162461bcd60e51b815260206004820152602a60248201527f43657274696669636174654c6966656379636c653a204d75737420626520554e6044820152694445525f52455649455760b01b6064820152608401610347565b5f83815260036020526040812090805b600183015481101561056357336001600160a01b031683600101828154811061053957610539611bc7565b5f918252602090912001546001600160a01b03160361055b5760019150610563565b60010161050e565b50806105c95760405162461bcd60e51b815260206004820152602f60248201527f43657274696669636174654c6966656379636c653a204e6f742061206465736960448201526e33b730ba32b21030b8383937bb32b960891b6064820152608401610347565b5f85815260046020908152604080832033845290915290205460ff16156106415760405162461bcd60e51b815260206004820152602660248201527f43657274696669636174654c6966656379636c653a20416c72656164792061706044820152651c1c9bdd995960d21b6064820152608401610347565b5f8581526004602090815260408083203384529091528120805460ff191660011790556002830180549161067483611bdb565b90915550506003830180546001810182555f91825260209091200180546001600160a01b031916331790558154600283015410610701576001838101805460ff1916600290811790915560048501805492830181555f9081526020902042920182905560405187925f80516020611d9b833981519152926106f89290913391611b53565b60405180910390a25b5050505050565b5f5460408051638022927360e01b815290516101009092046001600160a01b0316916391d148549183916380229273916004808201926020929091908290030181865afa15801561075b573d5f803e3d5ffd5b505050506040513d601f19601f8201168201806040525081019061077f9190611ad0565b6040516001600160e01b031960e084901b1681526004810191909152336024820152604401602060405180830381865afa1580156107bf573d5f803e3d5ffd5b505050506040513d601f19601f820116820180604052508101906107e39190611ae7565b6107ff5760405162461bcd60e51b815260040161034790611bff565b6108076116de565b5f878152600260205260409020600401541561087e5760405162461bcd60e51b815260206004820152603060248201527f43657274696669636174654c6966656379636c653a204365727469666963617460448201526f6520616c72656164792065786973747360801b6064820152608401610347565b5f8781526002602081905260409091208881556001810180546001600160a81b0319166101006001600160a01b038b16021790559081018054336001600160a01b0319909116179055600581016108d6868883611ce0565b5060068101805460ff19169055600481018054600181810183555f9283526020808420429301929092558a8352600390915260409091208581559061091e9082018585611703565b50885f80516020611d9b8339815191525f334260405161094093929190611b53565b60405180910390a2505050505050505050565b600154604051634294857f60e01b8152600481018390526001600160a01b0390911690634294857f90602401602060405180830381865afa15801561099a573d5f803e3d5ffd5b505050506040513d601f19601f820116820180604052508101906109be9190611ae7565b15610aa0575f8181526002602052604090206004810154610a2f5760405162461bcd60e51b815260206004820152602560248201527f4c6966656379636c653a20436572746966696361746520646f6573206e6f7420604482015264195e1a5cdd60da1b6064820152608401610347565b600681015460ff16610a9e57600681018054600160ff1991821681179092558183018054600592168217905560048301805492830181555f9081526020902042920182905560405184925f80516020611d9b83398151915292610a959290913391611b53565b60405180910390a25b505b50565b600260208190525f91825260409091208054600182015492820154600583018054929460ff8116946101009091046001600160a01b0390811694931692909190610aec90611c5f565b80601f0160208091040260200160405190810160405280929190818152602001828054610b1890611c5f565b8015610b635780601f10610b3a57610100808354040283529160200191610b63565b820191905f5260205f20905b815481529060010190602001808311610b4657829003601f168201915b5050506006909301549192505060ff1686565b5f5460408051638022927360e01b815290516101009092046001600160a01b0316916391d148549183916380229273916004808201926020929091908290030181865afa158015610bc9573d5f803e3d5ffd5b505050506040513d601f19601f82011682018060405250810190610bed9190611ad0565b6040516001600160e01b031960e084901b1681526004810191909152336024820152604401602060405180830381865afa158015610c2d573d5f803e3d5ffd5b505050506040513d601f19601f82011682018060405250810190610c519190611ae7565b610c6d5760405162461bcd60e51b815260040161034790611bff565b610c756116de565b600154604051634294857f60e01b81526004810183905282916001600160a01b031690634294857f90602401602060405180830381865afa158015610cbc573d5f803e3d5ffd5b505050506040513d601f19601f82011682018060405250810190610ce09190611ae7565b15610d63575f818152600260205260409020600681015460ff16610d6157600681018054600160ff1991821681179092558183018054600592168217905560048301805492830181555f9081526020902042920182905560405184925f80516020611d9b83398151915292610d589290913391611b53565b60405180910390a25b505b5f8181526002602052604090206006015460ff1615610d945760405162461bcd60e51b815260040161034790611b7b565b5f8281526002602052604090206003600182015460ff166005811115610dbc57610dbc6118d4565b14610e155760405162461bcd60e51b8152602060048201526024808201527f43657274696669636174654c6966656379636c653a204d75737420626520534960448201526311d3915160e21b6064820152608401610347565b6001818101805460ff19166004908117909155808301805492830181555f9081526020902042920182905560405185925f80516020611d9b83398151915292610e619290913391611b53565b60405180910390a2505050565b5f5460408051634245962b60e01b815290516101009092046001600160a01b0316916391d14854918391634245962b916004808201926020929091908290030181865afa158015610ec1573d5f803e3d5ffd5b505050506040513d601f19601f82011682018060405250810190610ee59190611ad0565b6040516001600160e01b031960e084901b1681526004810191909152336024820152604401602060405180830381865afa158015610f25573d5f803e3d5ffd5b505050506040513d601f19601f82011682018060405250810190610f499190611ae7565b610f655760405162461bcd60e51b815260040161034790611b0d565b610f6d6116de565b600154604051634294857f60e01b81526004810183905282916001600160a01b031690634294857f90602401602060405180830381865afa158015610fb4573d5f803e3d5ffd5b505050506040513d601f19601f82011682018060405250810190610fd89190611ae7565b1561105b575f818152600260205260409020600681015460ff1661105957600681018054600160ff1991821681179092558183018054600592168217905560048301805492830181555f9081526020902042920182905560405184925f80516020611d9b833981519152926110509290913391611b53565b60405180910390a25b505b5f8181526002602052604090206006015460ff161561108c5760405162461bcd60e51b815260040161034790611b7b565b5f82815260026020819052604090912090600182015460ff1660058111156110b6576110b66118d4565b146111125760405162461bcd60e51b815260206004820152602660248201527f43657274696669636174654c6966656379636c653a204d757374206265204150604482015265141493d5915160d21b6064820152608401610347565b6001818101805460ff1916600390811790915560048301805492830181555f9081526020902042920182905560405185925f80516020611d9b83398151915292610e619290913391611b53565b5f5460408051638022927360e01b815290516101009092046001600160a01b0316916391d148549183916380229273916004808201926020929091908290030181865afa1580156111b2573d5f803e3d5ffd5b505050506040513d601f19601f820116820180604052508101906111d69190611ad0565b6040516001600160e01b031960e084901b1681526004810191909152336024820152604401602060405180830381865afa158015611216573d5f803e3d5ffd5b505050506040513d601f19601f8201168201806040525081019061123a9190611ae7565b6112565760405162461bcd60e51b815260040161034790611bff565b61125e6116de565b600154604051634294857f60e01b81526004810183905282916001600160a01b031690634294857f90602401602060405180830381865afa1580156112a5573d5f803e3d5ffd5b505050506040513d601f19601f820116820180604052508101906112c99190611ae7565b1561134c575f818152600260205260409020600681015460ff1661134a57600681018054600160ff1991821681179092558183018054600592168217905560048301805492830181555f9081526020902042920182905560405184925f80516020611d9b833981519152926113419290913391611b53565b60405180910390a25b505b5f8181526002602052604090206006015460ff161561137d5760405162461bcd60e51b815260040161034790611b7b565b5f828152600260208190526040909120908101546001600160a01b031633146113fe5760405162461bcd60e51b815260206004820152602d60248201527f43657274696669636174654c6966656379636c653a204f6e6c7920637265617460448201526c1bdc8818d85b881cdd589b5a5d609a1b6064820152608401610347565b5f600182015460ff166005811115611418576114186118d4565b1461147a5760405162461bcd60e51b815260206004820152602c60248201527f43657274696669636174654c6966656379636c653a204d75737420626520696e60448201526b20445241465420737461746560a01b6064820152608401610347565b6001818101805460ff19168217905560048201805480830182555f918252602090912042910181905560405185925f80516020611d9b83398151915292610e6192339190611b53565b60408051610100810182525f8082526020820181905291810182905260608082018390526080820181905260a0820181905260c082015260e08101919091525f8281526002602090815260409182902082516101008101909352805483526001810154909183019060ff16600581111561153f5761153f6118d4565b6005811115611550576115506118d4565b815260018201546001600160a01b036101009091048116602080840191909152600284015490911660408084019190915260038401805482518185028101850190935280835260609094019391929091908301828280156115d857602002820191905f5260205f20905b81546001600160a01b031681526001909101906020018083116115ba575b505050505081526020016004820180548060200260200160405190810160405280929190818152602001828054801561162e57602002820191905f5260205f20905b81548152602001906001019080831161161a575b5050505050815260200160058201805461164790611c5f565b80601f016020809104026020016040519081016040528092919081815260200182805461167390611c5f565b80156116be5780601f10611695576101008083540402835291602001916116be565b820191905f5260205f20905b8154815290600101906020018083116116a157829003601f168201915b50505091835250506006919091015460ff16151560209091015292915050565b5f5460ff16156117015760405163d93c066560e01b815260040160405180910390fd5b565b828054828255905f5260205f20908101928215611754579160200282015b828111156117545781546001600160a01b0319166001600160a01b03843516178255602090920191600190910190611721565b50611760929150611764565b5090565b5b80821115611760575f8155600101611765565b80356001600160a01b038116811461178e575f80fd5b919050565b5f80604083850312156117a4575f80fd5b823591506117b460208401611778565b90509250929050565b5f602082840312156117cd575f80fd5b5035919050565b5f8083601f8401126117e4575f80fd5b50813567ffffffffffffffff8111156117fb575f80fd5b6020830191508360208260051b8501011115611815575f80fd5b9250929050565b5f805f805f805f60a0888a031215611832575f80fd5b8735965061184260208901611778565b9550604088013567ffffffffffffffff8082111561185e575f80fd5b818a0191508a601f830112611871575f80fd5b81358181111561187f575f80fd5b8b6020828501011115611890575f80fd5b6020830197508096505060608a0135945060808a01359150808211156118b4575f80fd5b506118c18a828b016117d4565b989b979a50959850939692959293505050565b634e487b7160e01b5f52602160045260245ffd5b6006811061190457634e487b7160e01b5f52602160045260245ffd5b9052565b5f81518084525f5b8181101561192c57602081850181015186830182015201611910565b505f602082860101526020601f19601f83011685010191505092915050565b86815261195b60208201876118e8565b6001600160a01b0385811660408301528416606082015260c0608082018190525f9061198990830185611908565b905082151560a0830152979650505050505050565b5f815180845260208085019450602084015f5b838110156119d65781516001600160a01b0316875295820195908201906001016119b1565b509495945050505050565b5f815180845260208085019450602084015f5b838110156119d6578151875295820195908201906001016119f4565b60208152815160208201525f6020830151611a2e60408401826118e8565b5060408301516001600160a01b03811660608401525060608301516001600160a01b03811660808401525060808301516101008060a0850152611a7561012085018361199e565b915060a0850151601f19808685030160c0870152611a9384836119e1565b935060c08701519150808685030160e087015250611ab18382611908565b92505060e0850151611ac68286018215159052565b5090949350505050565b5f60208284031215611ae0575f80fd5b5051919050565b5f60208284031215611af7575f80fd5b81518015158114611b06575f80fd5b9392505050565b60208082526026908201527f43657274696669636174654c6966656379636c653a204d757374206265204150604082015265282927ab22a960d11b606082015260800190565b60608101611b6182866118e8565b6001600160a01b0393909316602082015260400152919050565b6020808252602c908201527f43657274696669636174654c6966656379636c653a204365727469666963617460408201526b19481a5cc81c995d9bdad95960a21b606082015260800190565b634e487b7160e01b5f52603260045260245ffd5b5f60018201611bf857634e487b7160e01b5f52601160045260245ffd5b5060010190565b6020808252602c908201527f43657274696669636174654c6966656379636c653a204d75737420626520495360408201526b29aaa2a92fa7a32324a1a2a960a11b606082015260800190565b634e487b7160e01b5f52604160045260245ffd5b600181811c90821680611c7357607f821691505b602082108103611c9157634e487b7160e01b5f52602260045260245ffd5b50919050565b601f821115611cdb57805f5260205f20601f840160051c81016020851015611cbc5750805b601f840160051c820191505b81811015610701575f8155600101611cc8565b505050565b67ffffffffffffffff831115611cf857611cf8611c4b565b611d0c83611d068354611c5f565b83611c97565b5f601f841160018114611d3d575f8515611d265750838201355b5f19600387901b1c1916600186901b178355610701565b5f83815260208120601f198716915b82811015611d6c5786850135825560209485019460019092019101611d4c565b5086821015611d88575f1960f88860031b161c19848701351681555b505060018560011b018355505050505056feb22967a35473fe2db62251b1f80905fb287f71a540708a6ab30399fccca12836a2646970667358221220524b590b0910693b3dee29f10b44dbddf25d0960f8751fd89363708b2ef3a86464736f6c63430008180033",
  "linkReferences": {},
  "deployedLinkReferences": {}
}