{
  "_format": "hh-sol-artifact-1",
  "contractName": "CertificateLifecycle",
  "sourceName": "contracts/CertificateLifecycle.sol",
  "abi": [
    {
      "inputs": [
        {
          "internalType": "address",
          "name": "_roleManager",
          "type": "address"
        },
        {
          "internalType": "address",
          "name": "_revocationRegistry",
          "type": "address"
        }
      ],
      "stateMutability": "nonpayable",
      "type": "constructor"
    },
    {
      "inputs": [],
      "name": "EnforcedPause",
      "type": "error"
    },
    {
      "inputs": [],
      "name": "ExpectedPause",
      "type": "error"
    },
    {
      "anonymous": false,
      "inputs": [
        {
          "indexed": true,
          "internalType": "bytes32",
          "name": "docHash",
          "type": "bytes32"
        },
        {
          "indexed": false,
          "internalType": "enum CertificateLifecycle.DocState",
          "name": "newState",
          "type": "uint8"
        },
        {
          "indexed": false,
          "internalType": "address",
          "name": "changedBy",
          "type": "address"
        },
        {
          "indexed": false,
          "internalType": "uint256",
          "name": "timestamp",
          "type": "uint256"
        }
      ],
      "name": "CertificateStateChanged",
      "type": "event"
    },
    {
      "anonymous": false,
      "inputs": [
        {
          "indexed": false,
          "internalType": "address",
          "name": "account",
          "type": "address"
        }
      ],
      "name": "Paused",
      "type": "event"
    },
    {
      "anonymous": false,
      "inputs": [
        {
          "indexed": false,
          "internalType": "address",
          "name": "account",
          "type": "address"
        }
      ],
      "name": "Unpaused",
      "type": "event"
    },
    {
      "inputs": [
        {
          "internalType": "bytes32",
          "name": "docHash",
          "type": "bytes32"
        }
      ],
      "name": "approveCertificate",
      "outputs": [],
      "stateMutability": "nonpayable",
      "type": "function"
    },
    {
      "inputs": [
        {
          "internalType": "bytes32",
          "name": "",
          "type": "bytes32"
        }
      ],
      "name": "certificateApprovals",
      "outputs": [
        {
          "internalType": "uint256",
          "name": "requiredApprovals",
          "type": "uint256"
        },
        {
          "internalType": "uint256",
          "name": "approvalCount",
          "type": "uint256"
        }
      ],
      "stateMutability": "view",
      "type": "function"
    },
    {
      "inputs": [
        {
          "internalType": "bytes32",
          "name": "",
          "type": "bytes32"
        }
      ],
      "name": "certificates",
      "outputs": [
        {
          "internalType": "bytes32",
          "name": "docHash",
          "type": "bytes32"
        },
        {
          "internalType": "enum CertificateLifecycle.DocState",
          "name": "state",
          "type": "uint8"
        },
        {
          "internalType": "address",
          "name": "issuedTo",
          "type": "address"
        },
        {
          "internalType": "address",
          "name": "createdBy",
          "type": "address"
        },
        {
          "internalType": "string",
          "name": "metadataURI",
          "type": "string"
        },
        {
          "internalType": "bool",
          "name": "isRevoked",
          "type": "bool"
        }
      ],
      "stateMutability": "view",
      "type": "function"
    },
    {
      "inputs": [
        {
          "internalType": "bytes32",
          "name": "docHash",
          "type": "bytes32"
        },
        {
          "internalType": "address",
          "name": "issuedTo",
          "type": "address"
        },
        {
          "internalType": "string",
          "name": "metadataURI",
          "type": "string"
        },
        {
          "internalType": "uint256",
          "name": "requiredApprovals",
          "type": "uint256"
        },
        {
          "internalType": "address[]",
          "name": "designatedApprovers",
          "type": "address[]"
        }
      ],
      "name": "createDraft",
      "outputs": [],
      "stateMutability": "nonpayable",
      "type": "function"
    },
    {
      "inputs": [
        {
          "internalType": "bytes32",
          "name": "docHash",
          "type": "bytes32"
        }
      ],
      "name": "getCertificate",
      "outputs": [
        {
          "components": [
            {
              "internalType": "bytes32",
              "name": "docHash",
              "type": "bytes32"
            },
            {
              "internalType": "enum CertificateLifecycle.DocState",
              "name": "state",
              "type": "uint8"
            },
            {
              "internalType": "address",
              "name": "issuedTo",
              "type": "address"
            },
            {
              "internalType": "address",
              "name": "createdBy",
              "type": "address"
            },
            {
              "internalType": "address[]",
              "name": "approvers",
              "type": "address[]"
            },
            {
              "internalType": "uint256[]",
              "name": "stateTimestamps",
              "type": "uint256[]"
            },
            {
              "internalType": "string",
              "name": "metadataURI",
              "type": "string"
            },
            {
              "internalType": "bool",
              "name": "isRevoked",
              "type": "bool"
            }
          ],
          "internalType": "struct CertificateLifecycle.Certificate",
          "name": "",
          "type": "tuple"
        }
      ],
      "stateMutability": "view",
      "type": "function"
    },
    {
      "inputs": [
        {
          "internalType": "bytes32",
          "name": "",
          "type": "bytes32"
        },
        {
          "internalType": "address",
          "name": "",
          "type": "address"
        }
      ],
      "name": "hasApproved",
      "outputs": [
        {
          "internalType": "bool",
          "name": "",
          "type": "bool"
        }
      ],
      "stateMutability": "view",
      "type": "function"
    },
    {
      "inputs": [
        {
          "internalType": "bytes32",
          "name": "docHash",
          "type": "bytes32"
        }
      ],
      "name": "issueCertificate",
      "outputs": [],
      "stateMutability": "nonpayable",
      "type": "function"
    },
    {
      "inputs": [],
      "name": "paused",
      "outputs": [
        {
          "internalType": "bool",
          "name": "",
          "type": "bool"
        }
      ],
      "stateMutability": "view",
      "type": "function"
    },
    {
      "inputs": [],
      "name": "revocationRegistry",
      "outputs": [
        {
          "internalType": "contract RevocationRegistry",
          "name": "",
          "type": "address"
        }
      ],
      "stateMutability": "view",
      "type": "function"
    },
    {
      "inputs": [],
      "name": "roleManager",
      "outputs": [
        {
          "internalType": "contract RoleManager",
          "name": "",
          "type": "address"
        }
      ],
      "stateMutability": "view",
      "type": "function"
    },
    {
      "inputs": [
        {
          "internalType": "bytes32",
          "name": "docHash",
          "type": "bytes32"
        }
      ],
      "name": "signCertificate",
      "outputs": [],
      "stateMutability": "nonpayable",
      "type": "function"
    },
    {
      "inputs": [
        {
          "internalType": "bytes32",
          "name": "docHash",
          "type": "bytes32"
        }
      ],
      "name": "submitForReview",
      "outputs": [],
      "stateMutability": "nonpayable",
      "type": "function"
    },
    {
      "inputs": [
        {
          "internalType": "bytes32",
          "name": "docHash",
          "type": "bytes32"
        }
      ],
      "name": "syncRevocation",
      "outputs": [],
      "stateMutability": "nonpayable",
      "type": "function"
    }
  ],
  "bytecode": "0x60806040523480156200001157600080fd5b50604051620035fd380380620035fd83398181016040528101906200003791906200012b565b81600060016101000a81548173ffffffffffffffffffffffffffffffffffffffff021916908373ffffffffffffffffffffffffffffffffffffffff16021790555080600160006101000a81548173ffffffffffffffffffffffffffffffffffffffff021916908373ffffffffffffffffffffffffffffffffffffffff160217905550505062000172565b600080fd5b600073ffffffffffffffffffffffffffffffffffffffff82169050919050565b6000620000f382620000c6565b9050919050565b6200010581620000e6565b81146200011157600080fd5b50565b6000815190506200012581620000fa565b92915050565b60008060408385031215620001455762000144620000c1565b5b6000620001558582860162000114565b9250506020620001688582860162000114565b9150509250929050565b61347b80620001826000396000f3fe608060405234801561001057600080fd5b50600436106100ce5760003560e01c80637413a8aa1161008c578063b5024f1011610066578063b5024f1014610215578063ec8ed49614610231578063f0f2740d1461024d578063f333fe081461026b576100ce565b80637413a8aa146101a8578063742f0688146101c4578063a1f81824146101f9576100ce565b8062435da5146100d357806323cdc3f1146100f157806324d6a9ef1461012157806337b5af991461013d5780633f8f50631461016e5780635c975abb1461018a575b600080fd5b6100db61029b565b6040516100e891906120e2565b60405180910390f35b61010b6004803603810190610106919061217b565b6102c1565b60405161011891906121d6565b60405180910390f35b61013b600480360381019061013691906121f1565b6102f0565b005b610157600480360381019061015291906121f1565b610979565b604051610165929190612237565b60405180910390f35b61018860048036038101906101839190612347565b61099d565b005b610192610c8a565b60405161019f91906121d6565b60405180910390f35b6101c260048036038101906101bd91906121f1565b610ca0565b005b6101de60048036038101906101d991906121f1565b610e70565b6040516101f096959493929190612528565b60405180910390f35b610213600480360381019061020e91906121f1565b610f8e565b005b61022f600480360381019061022a91906121f1565b611385565b005b61024b600480360381019061024691906121f1565b61177c565b005b610255611c05565b60405161026291906125b1565b60405180910390f35b610285600480360381019061028091906121f1565b611c2b565b604051610292919061287d565b60405180910390f35b600060019054906101000a900473ffffffffffffffffffffffffffffffffffffffff1681565b60046020528160005260406000206020528060005260406000206000915091509054906101000a900460ff1681565b600060019054906101000a900473ffffffffffffffffffffffffffffffffffffffff1673ffffffffffffffffffffffffffffffffffffffff166395a8c58d3360026040518363ffffffff1660e01b815260040161034e9291906128e7565b602060405180830381865afa15801561036b573d6000803e3d6000fd5b505050506040513d601f19601f8201168201806040525081019061038f919061293c565b6103ce576040517f08c379a00000000000000000000000000000000000000000000000000000000081526004016103c5906129db565b60405180910390fd5b6103d6611edd565b80600160009054906101000a900473ffffffffffffffffffffffffffffffffffffffff1673ffffffffffffffffffffffffffffffffffffffff16634294857f826040518263ffffffff1660e01b815260040161043291906129fb565b602060405180830381865afa15801561044f573d6000803e3d6000fd5b505050506040513d601f19601f82011682018060405250810190610473919061293c565b1561055a5760006002600083815260200190815260200160002090508060060160009054906101000a900460ff166105585760018160060160006101000a81548160ff02191690831515021790555060058160010160006101000a81548160ff021916908360058111156104ea576104e9612412565b5b021790555080600401429080600181540180825580915050600190039060005260206000200160009091909190915055817fb22967a35473fe2db62251b1f80905fb287f71a540708a6ab30399fccca128366005334260405161054f93929190612a16565b60405180910390a25b505b6002600082815260200190815260200160002060060160009054906101000a900460ff16156105be576040517f08c379a00000000000000000000000000000000000000000000000000000000081526004016105b590612abf565b60405180910390fd5b6000600260008481526020019081526020016000209050600160058111156105e9576105e8612412565b5b8160010160009054906101000a900460ff16600581111561060d5761060c612412565b5b1461064d576040517f08c379a000000000000000000000000000000000000000000000000000000000815260040161064490612b51565b60405180910390fd5b60006003600085815260200190815260200160002090506000805b8260010180549050811015610706573373ffffffffffffffffffffffffffffffffffffffff168360010182815481106106a4576106a3612b71565b5b9060005260206000200160009054906101000a900473ffffffffffffffffffffffffffffffffffffffff1673ffffffffffffffffffffffffffffffffffffffff16036106f35760019150610706565b80806106fe90612bcf565b915050610668565b5080610747576040517f08c379a000000000000000000000000000000000000000000000000000000000815260040161073e90612c89565b60405180910390fd5b6004600086815260200190815260200160002060003373ffffffffffffffffffffffffffffffffffffffff1673ffffffffffffffffffffffffffffffffffffffff16815260200190815260200160002060009054906101000a900460ff16156107e5576040517f08c379a00000000000000000000000000000000000000000000000000000000081526004016107dc90612d1b565b60405180910390fd5b60016004600087815260200190815260200160002060003373ffffffffffffffffffffffffffffffffffffffff1673ffffffffffffffffffffffffffffffffffffffff16815260200190815260200160002060006101000a81548160ff02191690831515021790555081600201600081548092919061086390612bcf565b919050555082600301339080600181540180825580915050600190039060005260206000200160009091909190916101000a81548173ffffffffffffffffffffffffffffffffffffffff021916908373ffffffffffffffffffffffffffffffffffffffff16021790555081600001548260020154106109725760028360010160006101000a81548160ff0219169083600581111561090457610903612412565b5b021790555082600401429080600181540180825580915050600190039060005260206000200160009091909190915055847fb22967a35473fe2db62251b1f80905fb287f71a540708a6ab30399fccca128366002334260405161096993929190612a16565b60405180910390a25b5050505050565b60036020528060005260406000206000915090508060000154908060020154905082565b600060019054906101000a900473ffffffffffffffffffffffffffffffffffffffff1673ffffffffffffffffffffffffffffffffffffffff166395a8c58d3360016040518363ffffffff1660e01b81526004016109fb9291906128e7565b602060405180830381865afa158015610a18573d6000803e3d6000fd5b505050506040513d601f19601f82011682018060405250810190610a3c919061293c565b610a7b576040517f08c379a0000000000000000000000000000000000000000000000000000000008152600401610a7290612dad565b60405180910390fd5b610a83611edd565b6000600260008981526020019081526020016000206004018054905014610adf576040517f08c379a0000000000000000000000000000000000000000000000000000000008152600401610ad690612e3f565b60405180910390fd5b600060026000898152602001908152602001600020905087816000018190555060008160010160006101000a81548160ff02191690836005811115610b2757610b26612412565b5b0217905550868160010160016101000a81548173ffffffffffffffffffffffffffffffffffffffff021916908373ffffffffffffffffffffffffffffffffffffffff160217905550338160020160006101000a81548173ffffffffffffffffffffffffffffffffffffffff021916908373ffffffffffffffffffffffffffffffffffffffff1602179055508585826005019182610bc592919061309b565b5060008160060160006101000a81548160ff021916908315150217905550806004014290806001815401808255809150506001900390600052602060002001600090919091909150556000600360008a815260200190815260200160002090508481600001819055508383826001019190610c41929190611f1e565b50887fb22967a35473fe2db62251b1f80905fb287f71a540708a6ab30399fccca1283660003342604051610c7793929190612a16565b60405180910390a2505050505050505050565b60008060009054906101000a900460ff16905090565b600160009054906101000a900473ffffffffffffffffffffffffffffffffffffffff1673ffffffffffffffffffffffffffffffffffffffff16634294857f826040518263ffffffff1660e01b8152600401610cfb91906129fb565b602060405180830381865afa158015610d18573d6000803e3d6000fd5b505050506040513d601f19601f82011682018060405250810190610d3c919061293c565b15610e6d5760006002600083815260200190815260200160002090506000816004018054905011610da2576040517f08c379a0000000000000000000000000000000000000000000000000000000008152600401610d99906131dd565b60405180910390fd5b8060060160009054906101000a900460ff16610e6b5760018160060160006101000a81548160ff02191690831515021790555060058160010160006101000a81548160ff02191690836005811115610dfd57610dfc612412565b5b021790555080600401429080600181540180825580915050600190039060005260206000200160009091909190915055817fb22967a35473fe2db62251b1f80905fb287f71a540708a6ab30399fccca1283660053342604051610e6293929190612a16565b60405180910390a25b505b50565b60026020528060005260406000206000915090508060000154908060010160009054906101000a900460ff16908060010160019054906101000a900473ffffffffffffffffffffffffffffffffffffffff16908060020160009054906101000a900473ffffffffffffffffffffffffffffffffffffffff1690806005018054610ef890612ec8565b80601f0160208091040260200160405190810160405280929190818152602001828054610f2490612ec8565b8015610f715780601f10610f4657610100808354040283529160200191610f71565b820191906000526020600020905b815481529060010190602001808311610f5457829003601f168201915b5050505050908060060160009054906101000a900460ff16905086565b600060019054906101000a900473ffffffffffffffffffffffffffffffffffffffff1673ffffffffffffffffffffffffffffffffffffffff166395a8c58d3360016040518363ffffffff1660e01b8152600401610fec9291906128e7565b602060405180830381865afa158015611009573d6000803e3d6000fd5b505050506040513d601f19601f8201168201806040525081019061102d919061293c565b61106c576040517f08c379a000000000000000000000000000000000000000000000000000000000815260040161106390612dad565b60405180910390fd5b611074611edd565b80600160009054906101000a900473ffffffffffffffffffffffffffffffffffffffff1673ffffffffffffffffffffffffffffffffffffffff16634294857f826040518263ffffffff1660e01b81526004016110d091906129fb565b602060405180830381865afa1580156110ed573d6000803e3d6000fd5b505050506040513d601f19601f82011682018060405250810190611111919061293c565b156111f85760006002600083815260200190815260200160002090508060060160009054906101000a900460ff166111f65760018160060160006101000a81548160ff02191690831515021790555060058160010160006101000a81548160ff0219169083600581111561118857611187612412565b5b021790555080600401429080600181540180825580915050600190039060005260206000200160009091909190915055817fb22967a35473fe2db62251b1f80905fb287f71a540708a6ab30399fccca12836600533426040516111ed93929190612a16565b60405180910390a25b505b6002600082815260200190815260200160002060060160009054906101000a900460ff161561125c576040517f08c379a000000000000000000000000000000000000000000000000000000000815260040161125390612abf565b60405180910390fd5b60006002600084815260200190815260200160002090506003600581111561128757611286612412565b5b8160010160009054906101000a900460ff1660058111156112ab576112aa612412565b5b146112eb576040517f08c379a00000000000000000000000000000000000000000000000000000000081526004016112e29061326f565b60405180910390fd5b60048160010160006101000a81548160ff0219169083600581111561131357611312612412565b5b021790555080600401429080600181540180825580915050600190039060005260206000200160009091909190915055827fb22967a35473fe2db62251b1f80905fb287f71a540708a6ab30399fccca128366004334260405161137893929190612a16565b60405180910390a2505050565b600060019054906101000a900473ffffffffffffffffffffffffffffffffffffffff1673ffffffffffffffffffffffffffffffffffffffff166395a8c58d3360026040518363ffffffff1660e01b81526004016113e39291906128e7565b602060405180830381865afa158015611400573d6000803e3d6000fd5b505050506040513d601f19601f82011682018060405250810190611424919061293c565b611463576040517f08c379a000000000000000000000000000000000000000000000000000000000815260040161145a906129db565b60405180910390fd5b61146b611edd565b80600160009054906101000a900473ffffffffffffffffffffffffffffffffffffffff1673ffffffffffffffffffffffffffffffffffffffff16634294857f826040518263ffffffff1660e01b81526004016114c791906129fb565b602060405180830381865afa1580156114e4573d6000803e3d6000fd5b505050506040513d601f19601f82011682018060405250810190611508919061293c565b156115ef5760006002600083815260200190815260200160002090508060060160009054906101000a900460ff166115ed5760018160060160006101000a81548160ff02191690831515021790555060058160010160006101000a81548160ff0219169083600581111561157f5761157e612412565b5b021790555080600401429080600181540180825580915050600190039060005260206000200160009091909190915055817fb22967a35473fe2db62251b1f80905fb287f71a540708a6ab30399fccca12836600533426040516115e493929190612a16565b60405180910390a25b505b6002600082815260200190815260200160002060060160009054906101000a900460ff1615611653576040517f08c379a000000000000000000000000000000000000000000000000000000000815260040161164a90612abf565b60405180910390fd5b60006002600084815260200190815260200160002090506002600581111561167e5761167d612412565b5b8160010160009054906101000a900460ff1660058111156116a2576116a1612412565b5b146116e2576040517f08c379a00000000000000000000000000000000000000000000000000000000081526004016116d990613301565b60405180910390fd5b60038160010160006101000a81548160ff0219169083600581111561170a57611709612412565b5b021790555080600401429080600181540180825580915050600190039060005260206000200160009091909190915055827fb22967a35473fe2db62251b1f80905fb287f71a540708a6ab30399fccca128366003334260405161176f93929190612a16565b60405180910390a2505050565b600060019054906101000a900473ffffffffffffffffffffffffffffffffffffffff1673ffffffffffffffffffffffffffffffffffffffff166395a8c58d3360016040518363ffffffff1660e01b81526004016117da9291906128e7565b602060405180830381865afa1580156117f7573d6000803e3d6000fd5b505050506040513d601f19601f8201168201806040525081019061181b919061293c565b61185a576040517f08c379a000000000000000000000000000000000000000000000000000000000815260040161185190612dad565b60405180910390fd5b611862611edd565b80600160009054906101000a900473ffffffffffffffffffffffffffffffffffffffff1673ffffffffffffffffffffffffffffffffffffffff16634294857f826040518263ffffffff1660e01b81526004016118be91906129fb565b602060405180830381865afa1580156118db573d6000803e3d6000fd5b505050506040513d601f19601f820116820180604052508101906118ff919061293c565b156119e65760006002600083815260200190815260200160002090508060060160009054906101000a900460ff166119e45760018160060160006101000a81548160ff02191690831515021790555060058160010160006101000a81548160ff0219169083600581111561197657611975612412565b5b021790555080600401429080600181540180825580915050600190039060005260206000200160009091909190915055817fb22967a35473fe2db62251b1f80905fb287f71a540708a6ab30399fccca12836600533426040516119db93929190612a16565b60405180910390a25b505b6002600082815260200190815260200160002060060160009054906101000a900460ff1615611a4a576040517f08c379a0000000000000000000000000000000000000000000000000000000008152600401611a4190612abf565b60405180910390fd5b60006002600084815260200190815260200160002090503373ffffffffffffffffffffffffffffffffffffffff168160020160009054906101000a900473ffffffffffffffffffffffffffffffffffffffff1673ffffffffffffffffffffffffffffffffffffffff1614611af3576040517f08c379a0000000000000000000000000000000000000000000000000000000008152600401611aea90613393565b60405180910390fd5b60006005811115611b0757611b06612412565b5b8160010160009054906101000a900460ff166005811115611b2b57611b2a612412565b5b14611b6b576040517f08c379a0000000000000000000000000000000000000000000000000000000008152600401611b6290613425565b60405180910390fd5b60018160010160006101000a81548160ff02191690836005811115611b9357611b92612412565b5b021790555080600401429080600181540180825580915050600190039060005260206000200160009091909190915055827fb22967a35473fe2db62251b1f80905fb287f71a540708a6ab30399fccca1283660013342604051611bf893929190612a16565b60405180910390a2505050565b600160009054906101000a900473ffffffffffffffffffffffffffffffffffffffff1681565b611c33611fbe565b6002600083815260200190815260200160002060405180610100016040529081600082015481526020016001820160009054906101000a900460ff166005811115611c8157611c80612412565b5b6005811115611c9357611c92612412565b5b81526020016001820160019054906101000a900473ffffffffffffffffffffffffffffffffffffffff1673ffffffffffffffffffffffffffffffffffffffff1673ffffffffffffffffffffffffffffffffffffffff1681526020016002820160009054906101000a900473ffffffffffffffffffffffffffffffffffffffff1673ffffffffffffffffffffffffffffffffffffffff1673ffffffffffffffffffffffffffffffffffffffff16815260200160038201805480602002602001604051908101604052809291908181526020018280548015611dc857602002820191906000526020600020905b8160009054906101000a900473ffffffffffffffffffffffffffffffffffffffff1673ffffffffffffffffffffffffffffffffffffffff1681526020019060010190808311611d7e575b5050505050815260200160048201805480602002602001604051908101604052809291908181526020018280548015611e2057602002820191906000526020600020905b815481526020019060010190808311611e0c575b50505050508152602001600582018054611e3990612ec8565b80601f0160208091040260200160405190810160405280929190818152602001828054611e6590612ec8565b8015611eb25780601f10611e8757610100808354040283529160200191611eb2565b820191906000526020600020905b815481529060010190602001808311611e9557829003601f168201915b505050505081526020016006820160009054906101000a900460ff1615151515815250509050919050565b611ee5610c8a565b15611f1c576040517fd93c066500000000000000000000000000000000000000000000000000000000815260040160405180910390fd5b565b828054828255906000526020600020908101928215611fad579160200282015b82811115611fac57823573ffffffffffffffffffffffffffffffffffffffff168260006101000a81548173ffffffffffffffffffffffffffffffffffffffff021916908373ffffffffffffffffffffffffffffffffffffffff16021790555091602001919060010190611f3e565b5b509050611fba9190612046565b5090565b6040518061010001604052806000801916815260200160006005811115611fe857611fe7612412565b5b8152602001600073ffffffffffffffffffffffffffffffffffffffff168152602001600073ffffffffffffffffffffffffffffffffffffffff1681526020016060815260200160608152602001606081526020016000151581525090565b5b8082111561205f576000816000905550600101612047565b5090565b600073ffffffffffffffffffffffffffffffffffffffff82169050919050565b6000819050919050565b60006120a86120a361209e84612063565b612083565b612063565b9050919050565b60006120ba8261208d565b9050919050565b60006120cc826120af565b9050919050565b6120dc816120c1565b82525050565b60006020820190506120f760008301846120d3565b92915050565b600080fd5b600080fd5b6000819050919050565b61211a81612107565b811461212557600080fd5b50565b60008135905061213781612111565b92915050565b600061214882612063565b9050919050565b6121588161213d565b811461216357600080fd5b50565b6000813590506121758161214f565b92915050565b60008060408385031215612192576121916120fd565b5b60006121a085828601612128565b92505060206121b185828601612166565b9150509250929050565b60008115159050919050565b6121d0816121bb565b82525050565b60006020820190506121eb60008301846121c7565b92915050565b600060208284031215612207576122066120fd565b5b600061221584828501612128565b91505092915050565b6000819050919050565b6122318161221e565b82525050565b600060408201905061224c6000830185612228565b6122596020830184612228565b9392505050565b600080fd5b600080fd5b600080fd5b60008083601f84011261228557612284612260565b5b8235905067ffffffffffffffff8111156122a2576122a1612265565b5b6020830191508360018202830111156122be576122bd61226a565b5b9250929050565b6122ce8161221e565b81146122d957600080fd5b50565b6000813590506122eb816122c5565b92915050565b60008083601f84011261230757612306612260565b5b8235905067ffffffffffffffff81111561232457612323612265565b5b6020830191508360208202830111156123405761233f61226a565b5b9250929050565b600080600080600080600060a0888a031215612366576123656120fd565b5b60006123748a828b01612128565b97505060206123858a828b01612166565b965050604088013567ffffffffffffffff8111156123a6576123a5612102565b5b6123b28a828b0161226f565b955095505060606123c58a828b016122dc565b935050608088013567ffffffffffffffff8111156123e6576123e5612102565b5b6123f28a828b016122f1565b925092505092959891949750929550565b61240c81612107565b82525050565b7f4e487b7100000000000000000000000000000000000000000000000000000000600052602160045260246000fd5b6006811061245257612451612412565b5b50565b600081905061246382612441565b919050565b600061247382612455565b9050919050565b61248381612468565b82525050565b6124928161213d565b82525050565b600081519050919050565b600082825260208201905092915050565b60005b838110156124d25780820151818401526020810190506124b7565b60008484015250505050565b6000601f19601f8301169050919050565b60006124fa82612498565b61250481856124a3565b93506125148185602086016124b4565b61251d816124de565b840191505092915050565b600060c08201905061253d6000830189612403565b61254a602083018861247a565b6125576040830187612489565b6125646060830186612489565b818103608083015261257681856124ef565b905061258560a08301846121c7565b979650505050505050565b600061259b826120af565b9050919050565b6125ab81612590565b82525050565b60006020820190506125c660008301846125a2565b92915050565b6125d581612107565b82525050565b6125e481612468565b82525050565b6125f38161213d565b82525050565b600081519050919050565b600082825260208201905092915050565b6000819050602082019050919050565b600061263183836125ea565b60208301905092915050565b6000602082019050919050565b6000612655826125f9565b61265f8185612604565b935061266a83612615565b8060005b8381101561269b5781516126828882612625565b975061268d8361263d565b92505060018101905061266e565b5085935050505092915050565b600081519050919050565b600082825260208201905092915050565b6000819050602082019050919050565b6126dd8161221e565b82525050565b60006126ef83836126d4565b60208301905092915050565b6000602082019050919050565b6000612713826126a8565b61271d81856126b3565b9350612728836126c4565b8060005b8381101561275957815161274088826126e3565b975061274b836126fb565b92505060018101905061272c565b5085935050505092915050565b600082825260208201905092915050565b600061278282612498565b61278c8185612766565b935061279c8185602086016124b4565b6127a5816124de565b840191505092915050565b6127b9816121bb565b82525050565b6000610100830160008301516127d860008601826125cc565b5060208301516127eb60208601826125db565b5060408301516127fe60408601826125ea565b50606083015161281160608601826125ea565b5060808301518482036080860152612829828261264a565b91505060a083015184820360a08601526128438282612708565b91505060c083015184820360c086015261285d8282612777565b91505060e083015161287260e08601826127b0565b508091505092915050565b6000602082019050818103600083015261289781846127bf565b905092915050565b600481106128b0576128af612412565b5b50565b60008190506128c18261289f565b919050565b60006128d1826128b3565b9050919050565b6128e1816128c6565b82525050565b60006040820190506128fc6000830185612489565b61290960208301846128d8565b9392505050565b612919816121bb565b811461292457600080fd5b50565b60008151905061293681612910565b92915050565b600060208284031215612952576129516120fd565b5b600061296084828501612927565b91505092915050565b7f43657274696669636174654c6966656379636c653a204d75737420626520415060008201527f50524f5645520000000000000000000000000000000000000000000000000000602082015250565b60006129c56026836124a3565b91506129d082612969565b604082019050919050565b600060208201905081810360008301526129f4816129b8565b9050919050565b6000602082019050612a106000830184612403565b92915050565b6000606082019050612a2b600083018661247a565b612a386020830185612489565b612a456040830184612228565b949350505050565b7f43657274696669636174654c6966656379636c653a204365727469666963617460008201527f65206973207265766f6b65640000000000000000000000000000000000000000602082015250565b6000612aa9602c836124a3565b9150612ab482612a4d565b604082019050919050565b60006020820190508181036000830152612ad881612a9c565b9050919050565b7f43657274696669636174654c6966656379636c653a204d75737420626520554e60008201527f4445525f52455649455700000000000000000000000000000000000000000000602082015250565b6000612b3b602a836124a3565b9150612b4682612adf565b604082019050919050565b60006020820190508181036000830152612b6a81612b2e565b9050919050565b7f4e487b7100000000000000000000000000000000000000000000000000000000600052603260045260246000fd5b7f4e487b7100000000000000000000000000000000000000000000000000000000600052601160045260246000fd5b6000612bda8261221e565b91507fffffffffffffffffffffffffffffffffffffffffffffffffffffffffffffffff8203612c0c57612c0b612ba0565b5b600182019050919050565b7f43657274696669636174654c6966656379636c653a204e6f742061206465736960008201527f676e6174656420617070726f7665720000000000000000000000000000000000602082015250565b6000612c73602f836124a3565b9150612c7e82612c17565b604082019050919050565b60006020820190508181036000830152612ca281612c66565b9050919050565b7f43657274696669636174654c6966656379636c653a20416c726561647920617060008201527f70726f7665640000000000000000000000000000000000000000000000000000602082015250565b6000612d056026836124a3565b9150612d1082612ca9565b604082019050919050565b60006020820190508181036000830152612d3481612cf8565b9050919050565b7f43657274696669636174654c6966656379636c653a204d75737420626520495360008201527f535545525f4f4646494345520000000000000000000000000000000000000000602082015250565b6000612d97602c836124a3565b9150612da282612d3b565b604082019050919050565b60006020820190508181036000830152612dc681612d8a565b9050919050565b7f43657274696669636174654c6966656379636c653a204365727469666963617460008201527f6520616c72656164792065786973747300000000000000000000000000000000602082015250565b6000612e296030836124a3565b9150612e3482612dcd565b604082019050919050565b60006020820190508181036000830152612e5881612e1c565b9050919050565b600082905092915050565b7f4e487b7100000000000000000000000000000000000000000000000000000000600052604160045260246000fd5b7f4e487b7100000000000000000000000000000000000000000000000000000000600052602260045260246000fd5b60006002820490506001821680612ee057607f821691505b602082108103612ef357612ef2612e99565b5b50919050565b60008190508160005260206000209050919050565b60006020601f8301049050919050565b600082821b905092915050565b600060088302612f5b7fffffffffffffffffffffffffffffffffffffffffffffffffffffffffffffffff82612f1e565b612f658683612f1e565b95508019841693508086168417925050509392505050565b6000612f98612f93612f8e8461221e565b612083565b61221e565b9050919050565b6000819050919050565b612fb283612f7d565b612fc6612fbe82612f9f565b848454612f2b565b825550505050565b600090565b612fdb612fce565b612fe6818484612fa9565b505050565b5b8181101561300a57612fff600082612fd3565b600181019050612fec565b5050565b601f82111561304f5761302081612ef9565b61302984612f0e565b81016020851015613038578190505b61304c61304485612f0e565b830182612feb565b50505b505050565b600082821c905092915050565b600061307260001984600802613054565b1980831691505092915050565b600061308b8383613061565b9150826002028217905092915050565b6130a58383612e5f565b67ffffffffffffffff8111156130be576130bd612e6a565b5b6130c88254612ec8565b6130d382828561300e565b6000601f83116001811461310257600084156130f0578287013590505b6130fa858261307f565b865550613162565b601f19841661311086612ef9565b60005b8281101561313857848901358255600182019150602085019450602081019050613113565b868310156131555784890135613151601f891682613061565b8355505b6001600288020188555050505b50505050505050565b7f4c6966656379636c653a20436572746966696361746520646f6573206e6f742060008201527f6578697374000000000000000000000000000000000000000000000000000000602082015250565b60006131c76025836124a3565b91506131d28261316b565b604082019050919050565b600060208201905081810360008301526131f6816131ba565b9050919050565b7f43657274696669636174654c6966656379636c653a204d75737420626520534960008201527f474e454400000000000000000000000000000000000000000000000000000000602082015250565b60006132596024836124a3565b9150613264826131fd565b604082019050919050565b600060208201905081810360008301526132888161324c565b9050919050565b7f43657274696669636174654c6966656379636c653a204d75737420626520415060008201527f50524f5645440000000000000000000000000000000000000000000000000000602082015250565b60006132eb6026836124a3565b91506132f68261328f565b604082019050919050565b6000602082019050818103600083015261331a816132de565b9050919050565b7f43657274696669636174654c6966656379636c653a204f6e6c7920637265617460008201527f6f722063616e207375626d697400000000000000000000000000000000000000602082015250565b600061337d602d836124a3565b915061338882613321565b604082019050919050565b600060208201905081810360008301526133ac81613370565b9050919050565b7f43657274696669636174654c6966656379636c653a204d75737420626520696e60008201527f2044524146542073746174650000000000000000000000000000000000000000602082015250565b600061340f602c836124a3565b915061341a826133b3565b604082019050919050565b6000602082019050818103600083015261343e81613402565b905091905056fea26469706673582212209c6597d8d3b766c565e557a8361a8611efcdd92b89f9189e5aa7797e132a39d664736f6c63430008140033",
  "linkReferences": {},
  "deployedLinkReferences": {}
}