{
  "_format": "hh-sol-artifact-1",
  "contractName": "CredentialRegistry",
  "sourceName": "contracts/CredentialRegistry.sol",
  "abi": [
    {
      "inputs": [
        {
          "internalType": "address",
          "name": "_roleManager",
          "type": "address"
        }
      ],
      "stateMutability": "nonpayable",
      "type": "constructor"
    },
    {
      "inputs": [],
      "name": "ECDSAInvalidSignature",
      "type": "error"
    },
    {
      "inputs": [
        {
          "internalType": "uint256",
          "name": "length",
          "type": "uint256"
        }
      ],
      "name": "ECDSAInvalidSignatureLength",
      "type": "error"
    },
    {
      "inputs": [
        {
          "internalType": "bytes32",
          "name": "s",
          "type": "bytes32"
        }
      ],
      "name": "ECDSAInvalidSignatureS",
      "type": "error"
    },
    {
      "inputs": [],
      "name": "InvalidShortString",
      "type": "error"
    },
    {
      "inputs": [
        {
          "internalType": "string",
          "name": "str",
          "type": "string"
        }
      ],
      "name": "StringTooLong",
      "type": "error"
    },
    {
      "anonymous": false,
      "inputs": [
        {
          "indexed": true,
          "internalType": "bytes32",
          "name": "credentialId",
          "type": "bytes32"
        },
        {
          "indexed": true,
          "internalType": "address",
          "name": "issuer",
          "type": "address"
        },
        {
          "indexed": true,
          "internalType": "address",
          "name": "subject",
          "type": "address"
        },
        {
          "indexed": false,
          "internalType": "string",
          "name": "credentialType",
          "type": "string"
        }
      ],
      "name": "CredentialIssued",
      "type": "event"
    },
    {
      "anonymous": false,
      "inputs": [
        {
          "indexed": true,
          "internalType": "bytes32",
          "name": "credentialId",
          "type": "bytes32"
        },
        {
          "indexed": true,
          "internalType": "address",
          "name": "issuer",
          "type": "address"
        }
      ],
      "name": "CredentialRevoked",
      "type": "event"
    },
    {
      "anonymous": false,
      "inputs": [],
      "name": "EIP712DomainChanged",
      "type": "event"
    },
    {
      "anonymous": false,
      "inputs": [
        {
          "indexed": true,
          "internalType": "address",
          "name": "issuer",
          "type": "address"
        }
      ],
      "name": "IssuerAuthorized",
      "type": "event"
    },
    {
      "anonymous": false,
      "inputs": [
        {
          "indexed": true,
          "internalType": "address",
          "name": "user",
          "type": "address"
        },
        {
          "indexed": false,
          "internalType": "uint256",
          "name": "newScore",
          "type": "uint256"
        }
      ],
      "name": "RepScoreUpdated",
      "type": "event"
    },
    {
      "inputs": [],
      "name": "CREDENTIAL_TYPEHASH",
      "outputs": [
        {
          "internalType": "bytes32",
          "name": "",
          "type": "bytes32"
        }
      ],
      "stateMutability": "view",
      "type": "function"
    },
    {
      "inputs": [
        {
          "internalType": "address",
          "name": "issuer",
          "type": "address"
        }
      ],
      "name": "checkIssuer",
      "outputs": [
        {
          "internalType": "bool",
          "name": "",
          "type": "bool"
        }
      ],
      "stateMutability": "view",
      "type": "function"
    },
    {
      "inputs": [
        {
          "internalType": "bytes32",
          "name": "",
          "type": "bytes32"
        }
      ],
      "name": "credentials",
      "outputs": [
        {
          "internalType": "address",
          "name": "issuer",
          "type": "address"
        },
        {
          "internalType": "address",
          "name": "subject",
          "type": "address"
        },
        {
          "internalType": "string",
          "name": "credentialType",
          "type": "string"
        },
        {
          "internalType": "string",
          "name": "metadataURI",
          "type": "string"
        },
        {
          "internalType": "uint256",
          "name": "issuedAt",
          "type": "uint256"
        },
        {
          "internalType": "uint256",
          "name": "expirationDate",
          "type": "uint256"
        },
        {
          "internalType": "bool",
          "name": "revoked",
          "type": "bool"
        }
      ],
      "stateMutability": "view",
      "type": "function"
    },
    {
      "inputs": [
        {
          "internalType": "address",
          "name": "",
          "type": "address"
        },
        {
          "internalType": "uint256",
          "name": "",
          "type": "uint256"
        }
      ],
      "name": "credentialsByIssuer",
      "outputs": [
        {
          "internalType": "bytes32",
          "name": "",
          "type": "bytes32"
        }
      ],
      "stateMutability": "view",
      "type": "function"
    },
    {
      "inputs": [
        {
          "internalType": "address",
          "name": "",
          "type": "address"
        },
        {
          "internalType": "uint256",
          "name": "",
          "type": "uint256"
        }
      ],
      "name": "credentialsBySubject",
      "outputs": [
        {
          "internalType": "bytes32",
          "name": "",
          "type": "bytes32"
        }
      ],
      "stateMutability": "view",
      "type": "function"
    },
    {
      "inputs": [
        {
          "internalType": "address",
          "name": "",
          "type": "address"
        }
      ],
      "name": "devRepScores",
      "outputs": [
        {
          "internalType": "uint256",
          "name": "",
          "type": "uint256"
        }
      ],
      "stateMutability": "view",
      "type": "function"
    },
    {
      "inputs": [],
      "name": "eip712Domain",
      "outputs": [
        {
          "internalType": "bytes1",
          "name": "fields",
          "type": "bytes1"
        },
        {
          "internalType": "string",
          "name": "name",
          "type": "string"
        },
        {
          "internalType": "string",
          "name": "version",
          "type": "string"
        },
        {
          "internalType": "uint256",
          "name": "chainId",
          "type": "uint256"
        },
        {
          "internalType": "address",
          "name": "verifyingContract",
          "type": "address"
        },
        {
          "internalType": "bytes32",
          "name": "salt",
          "type": "bytes32"
        },
        {
          "internalType": "uint256[]",
          "name": "extensions",
          "type": "uint256[]"
        }
      ],
      "stateMutability": "view",
      "type": "function"
    },
    {
      "inputs": [
        {
          "internalType": "bytes32",
          "name": "credentialId",
          "type": "bytes32"
        }
      ],
      "name": "getCredential",
      "outputs": [
        {
          "components": [
            {
              "internalType": "address",
              "name": "issuer",
              "type": "address"
            },
            {
              "internalType": "address",
              "name": "subject",
              "type": "address"
            },
            {
              "internalType": "string",
              "name": "credentialType",
              "type": "string"
            },
            {
              "internalType": "string",
              "name": "metadataURI",
              "type": "string"
            },
            {
              "internalType": "uint256",
              "name": "issuedAt",
              "type": "uint256"
            },
            {
              "internalType": "uint256",
              "name": "expirationDate",
              "type": "uint256"
            },
            {
              "internalType": "bool",
              "name": "revoked",
              "type": "bool"
            }
          ],
          "internalType": "struct CredentialRegistry.Credential",
          "name": "",
          "type": "tuple"
        }
      ],
      "stateMutability": "view",
      "type": "function"
    },
    {
      "inputs": [
        {
          "internalType": "address",
          "name": "subject",
          "type": "address"
        }
      ],
      "name": "getCredentialsBySubject",
      "outputs": [
        {
          "internalType": "bytes32[]",
          "name": "",
          "type": "bytes32[]"
        }
      ],
      "stateMutability": "view",
      "type": "function"
    },
    {
      "inputs": [
        {
          "internalType": "address",
          "name": "subject",
          "type": "address"
        },
        {
          "internalType": "string",
          "name": "credentialType",
          "type": "string"
        },
        {
          "internalType": "string",
          "name": "metadataURI",
          "type": "string"
        },
        {
          "internalType": "uint256",
          "name": "expirationDate",
          "type": "uint256"
        },
        {
          "internalType": "bytes",
          "name": "signature",
          "type": "bytes"
        }
      ],
      "name": "issueCredential",
      "outputs": [
        {
          "internalType": "bytes32",
          "name": "credentialId",
          "type": "bytes32"
        }
      ],
      "stateMutability": "nonpayable",
      "type": "function"
    },
    {
      "inputs": [
        {
          "internalType": "bytes32",
          "name": "credentialId",
          "type": "bytes32"
        }
      ],
      "name": "revokeCredential",
      "outputs": [],
      "stateMutability": "nonpayable",
      "type": "function"
    },
    {
      "inputs": [],
      "name": "roleManager",
      "outputs": [
        {
          "internalType": "contract RoleManager",
          "name": "",
          "type": "address"
        }
      ],
      "stateMutability": "view",
      "type": "function"
    },
    {
      "inputs": [
        {
          "internalType": "address",
          "name": "user",
          "type": "address"
        },
        {
          "internalType": "uint256",
          "name": "repos",
          "type": "uint256"
        },
        {
          "internalType": "uint256",
          "name": "badges",
          "type": "uint256"
        },
        {
          "internalType": "uint256",
          "name": "multiplier",
          "type": "uint256"
        }
      ],
      "name": "updateRepScore",
      "outputs": [],
      "stateMutability": "nonpayable",
      "type": "function"
    },
    {
      "inputs": [
        {
          "internalType": "bytes32",
          "name": "credentialId",
          "type": "bytes32"
        }
      ],
      "name": "verifyCredential",
      "outputs": [
        {
          "internalType": "bool",
          "name": "isValid",
          "type": "bool"
        },
        {
          "internalType": "bool",
          "name": "isExpired",
          "type": "bool"
        },
        {
          "internalType": "bool",
          "name": "isRevoked",
          "type": "bool"
        },
        {
          "internalType": "address",
          "name": "issuer",
          "type": "address"
        },
        {
          "internalType": "address",
          "name": "subject",
          "type": "address"
        },
        {
          "internalType": "string",
          "name": "credentialType",
          "type": "string"
        },
        {
          "internalType": "uint256",
          "name": "issuedAt",
          "type": "uint256"
        }
      ],
      "stateMutability": "view",
      "type": "function"
    }
  ],
  "bytecode": "0x61016060405234801562000011575f80fd5b5060405162002259380380620022598339810160408190526200003491620001cf565b604080518082018252600f81526e437265646f7261526567697374727960881b602080830191909152825180840190935260018352603160f81b90830152906200007f825f6200014c565b61012052620000908160016200014c565b61014052815160208084019190912060e052815190820120610100524660a0526200011d60e05161010051604080517f8b73c3c69bb8fe3d512ecc4cf759cc79239f7b179b0ffacaa9a75d522b39400f60208201529081019290925260608201524660808201523060a08201525f9060c00160405160208183030381529060405280519060200120905090565b60805250503060c052600280546001600160a01b0319166001600160a01b0392909216919091179055620003da565b5f6020835110156200016b57620001638362000184565b90506200017e565b816200017884826200029c565b5060ff90505b92915050565b5f80829050601f81511115620001ba578260405163305a27a960e01b8152600401620001b1919062000368565b60405180910390fd5b8051620001c782620003b6565b179392505050565b5f60208284031215620001e0575f80fd5b81516001600160a01b0381168114620001f7575f80fd5b9392505050565b634e487b7160e01b5f52604160045260245ffd5b600181811c908216806200022757607f821691505b6020821081036200024657634e487b7160e01b5f52602260045260245ffd5b50919050565b601f8211156200029757805f5260205f20601f840160051c81016020851015620002735750805b601f840160051c820191505b8181101562000294575f81556001016200027f565b50505b505050565b81516001600160401b03811115620002b857620002b8620001fe565b620002d081620002c9845462000212565b846200024c565b602080601f83116001811462000306575f8415620002ee5750858301515b5f19600386901b1c1916600185901b17855562000360565b5f85815260208120601f198616915b82811015620003365788860151825594840194600190910190840162000315565b50858210156200035457878501515f19600388901b60f8161c191681555b505060018460011b0185555b505050505050565b5f602080835283518060208501525f5b81811015620003965785810183015185820160400152820162000378565b505f604082860101526040601f19601f8301168501019250505092915050565b8051602080830151919081101562000246575f1960209190910360031b1b16919050565b60805160a05160c05160e051610100516101205161014051611e2d6200042c5f395f61131101525f6112e001525f61150d01525f6114e501525f61144001525f61146a01525f6114940152611e2d5ff3fe608060405234801561000f575f80fd5b50600436106100e4575f3560e01c806384b0196e11610088578063c6f3a9aa11610063578063c6f3a9aa14610221578063ca6eec7814610244578063cfaa98eb14610257578063d1be488314610277575f80fd5b806384b0196e146101d2578063bb508a5a146101ed578063bbe939f11461020c575f80fd5b806327d35000116100c357806327d350001461014c578063299d0348146101735780634dbf87cc146101995780634fd04d22146101bf575f80fd5b8062435da5146100e857806321b2266014610118578063236c97e214610139575b5f80fd5b6002546100fb906001600160a01b031681565b6040516001600160a01b0390911681526020015b60405180910390f35b61012b6101263660046117a9565b610297565b60405190815260200161010f565b61012b610147366004611816565b6102c2565b61012b7fb4e6c1efed488648186d230c0fa2902d2f18aa28522c67ccaf0318e824dcc35f81565b6101866101813660046118c2565b6106ef565b60405161010f979695949392919061191c565b6101ac6101a73660046118c2565b610847565b60405161010f979695949392919061197b565b61012b6101cd3660046117a9565b610a3f565b6101da610a58565b60405161010f97969594939291906119d2565b61012b6101fb366004611a69565b60066020525f908152604090205481565b61021f61021a366004611a89565b610a9a565b005b61023461022f366004611a69565b610d30565b604051901515815260200161010f565b61021f6102523660046118c2565b610e16565b61026a610265366004611a69565b610f8e565b60405161010f9190611abf565b61028a6102853660046118c2565b610ff7565b60405161010f9190611b02565b6004602052815f5260405f2081815481106102b0575f80fd5b905f5260205f20015f91509150505481565b60025460408051638022927360e01b815290515f926001600160a01b0316916391d1485491839163802292739160048083019260209291908290030181865afa158015610311573d5f803e3d5ffd5b505050506040513d601f19601f820116820180604052508101906103359190611b88565b6040516001600160e01b031960e084901b1681526004810191909152336024820152604401602060405180830381865afa158015610375573d5f803e3d5ffd5b505050506040513d601f19601f820116820180604052508101906103999190611b9f565b6103fd5760405162461bcd60e51b815260206004820152602a60248201527f43726564656e7469616c52656769737472793a204d757374206265204953535560448201526922a92fa7a32324a1a2a960b11b60648201526084015b60405180910390fd5b61040d89898989898989896111cc565b61046e5760405162461bcd60e51b815260206004820152602c60248201527f43726564656e7469616c52656769737472793a20496e76616c6964206973737560448201526b6572207369676e617475726560a01b60648201526084016103f4565b3389898989894260405160200161048b9796959493929190611bbe565b60408051601f1981840301815291815281516020928301205f81815260039093529120600401549091501561050d5760405162461bcd60e51b815260206004820152602260248201527f43726564656e7469616c52656769737472793a20416c72656164792065786973604482015261747360f01b60648201526084016103f4565b6040518060e00160405280336001600160a01b031681526020018a6001600160a01b0316815260200189898080601f0160208091040260200160405190810160405280939291908181526020018383808284375f92019190915250505090825250604080516020601f8a01819004810282018101909252888152918101919089908990819084018382808284375f92018290525093855250504260208085019190915260408085018a905260609094018390528583526003815291839020845181546001600160a01b03199081166001600160a01b0392831617835593860151600183018054909516911617909255509082015160028201906106109082611ca8565b50606082015160038201906106259082611ca8565b50608082015160048281019190915560a083015160058084019190915560c0909301516006909201805460ff1916921515929092179091556001600160a01b038b165f81815260209283526040808220805460018181018355918452858420018790553380845295855281832080549182018155835293909120909201849055905190919083907f8fbd2b7cfb4db91a4f4b683fc96c73b5adc9f9aee31b983df603621b12c54987906106db908d908d90611d68565b60405180910390a498975050505050505050565b60036020525f90815260409020805460018201546002830180546001600160a01b0393841694929093169261072390611c24565b80601f016020809104026020016040519081016040528092919081815260200182805461074f90611c24565b801561079a5780601f106107715761010080835404028352916020019161079a565b820191905f5260205f20905b81548152906001019060200180831161077d57829003601f168201915b5050505050908060030180546107af90611c24565b80601f01602080910402602001604051908101604052809291908181526020018280546107db90611c24565b80156108265780601f106107fd57610100808354040283529160200191610826565b820191905f5260205f20905b81548152906001019060200180831161080957829003601f168201915b50505050600483015460058401546006909401549293909290915060ff1687565b5f818152600360209081526040808320815160e08101835281546001600160a01b03908116825260018301541693810193909352600281018054859485948594859460609486948594909392908401916108a090611c24565b80601f01602080910402602001604051908101604052809291908181526020018280546108cc90611c24565b80156109175780601f106108ee57610100808354040283529160200191610917565b820191905f5260205f20905b8154815290600101906020018083116108fa57829003601f168201915b5050505050815260200160038201805461093090611c24565b80601f016020809104026020016040519081016040528092919081815260200182805461095c90611c24565b80156109a75780601f1061097e576101008083540402835291602001916109a7565b820191905f5260205f20905b81548152906001019060200180831161098a57829003601f168201915b5050509183525050600482015460208201526005820154604082015260069091015460ff16151560609091015260a08101519091505f90158015906109ef57508160a0015142115b905081608001515f14158015610a0757508160c00151155b8015610a11575080155b60c0830151835160208501516040860151608090960151939e949d50919b5099509750919550909350915050565b6005602052815f5260405f2081815481106102b0575f80fd5b5f6060805f805f6060610a696112d9565b610a7161130a565b604080515f80825260208201909252600f60f81b9b939a50919850469750309650945092509050565b60025460408051638022927360e01b815290516001600160a01b03909216916391d148549183916380229273916004808201926020929091908290030181865afa158015610aea573d5f803e3d5ffd5b505050506040513d601f19601f82011682018060405250810190610b0e9190611b88565b6040516001600160e01b031960e084901b1681526004810191909152336024820152604401602060405180830381865afa158015610b4e573d5f803e3d5ffd5b505050506040513d601f19601f82011682018060405250810190610b729190611b9f565b80610c50575060025460408051631d6c8e3f60e21b815290516001600160a01b03909216916391d148549183916375b238fc916004808201926020929091908290030181865afa158015610bc8573d5f803e3d5ffd5b505050506040513d601f19601f82011682018060405250810190610bec9190611b88565b6040516001600160e01b031960e084901b1681526004810191909152336024820152604401602060405180830381865afa158015610c2c573d5f803e3d5ffd5b505050506040513d601f19601f82011682018060405250810190610c509190611b9f565b610cbb5760405162461bcd60e51b815260206004820152603660248201527f43726564656e7469616c52656769737472793a204e6f7420617574686f72697a604482015275656420746f20757064617465207265702073636f726560501b60648201526084016103f4565b5f81610cc78486611daa565b610cd19190611dbd565b6001600160a01b0386165f818152600660205260409081902083905551919250907f3260b268a3bf241455558ce07e34f69b4c3f01de4c0cb6aebac74e5f4061539790610d219084815260200190565b60405180910390a25050505050565b60025460408051638022927360e01b815290515f926001600160a01b0316916391d1485491839163802292739160048083019260209291908290030181865afa158015610d7f573d5f803e3d5ffd5b505050506040513d601f19601f82011682018060405250810190610da39190611b88565b6040516001600160e01b031960e084901b16815260048101919091526001600160a01b0385166024820152604401602060405180830381865afa158015610dec573d5f803e3d5ffd5b505050506040513d601f19601f82011682018060405250810190610e109190611b9f565b92915050565b5f8181526003602052604081206004810154909103610e825760405162461bcd60e51b815260206004820152602260248201527f43726564656e7469616c52656769737472793a20446f6573206e6f74206578696044820152611cdd60f21b60648201526084016103f4565b80546001600160a01b03163314610eee5760405162461bcd60e51b815260206004820152602a60248201527f43726564656e7469616c52656769737472793a204f6e6c79206973737565722060448201526963616e207265766f6b6560b01b60648201526084016103f4565b600681015460ff1615610f4f5760405162461bcd60e51b815260206004820152602360248201527f43726564656e7469616c52656769737472793a20416c7265616479207265766f6044820152621ad95960ea1b60648201526084016103f4565b60068101805460ff19166001179055604051339083907fd3196f598a360c115a1de20d5a58021203793f1bf1a08efe55ee14545779606d905f90a35050565b6001600160a01b0381165f90815260046020908152604091829020805483518184028101840190945280845260609392830182828015610feb57602002820191905f5260205f20905b815481526020019060010190808311610fd7575b50505050509050919050565b6110466040518060e001604052805f6001600160a01b031681526020015f6001600160a01b0316815260200160608152602001606081526020015f81526020015f81526020015f151581525090565b5f82815260036020908152604091829020825160e08101845281546001600160a01b03908116825260018301541692810192909252600281018054929391929184019161109290611c24565b80601f01602080910402602001604051908101604052809291908181526020018280546110be90611c24565b80156111095780601f106110e057610100808354040283529160200191611109565b820191905f5260205f20905b8154815290600101906020018083116110ec57829003601f168201915b5050505050815260200160038201805461112290611c24565b80601f016020809104026020016040519081016040528092919081815260200182805461114e90611c24565b80156111995780601f1061117057610100808354040283529160200191611199565b820191905f5260205f20905b81548152906001019060200180831161117c57829003601f168201915b5050509183525050600482015460208201526005820154604082015260069091015460ff16151560609091015292915050565b5f807fb4e6c1efed488648186d230c0fa2902d2f18aa28522c67ccaf0318e824dcc35f8a8a8a604051611200929190611dd4565b60405180910390208989604051611218929190611dd4565b604051908190038120611259949392918a906020019485526001600160a01b0393909316602085015260408401919091526060830152608082015260a00190565b6040516020818303038152906040528051906020012090505f61127b82611337565b90505f6112bd8287878080601f0160208091040260200160405190810160405280939291908181526020018383808284375f9201919091525061136392505050565b6001600160a01b03163314935050505098975050505050505050565b60606113057f00000000000000000000000000000000000000000000000000000000000000005f61138b565b905090565b60606113057f0000000000000000000000000000000000000000000000000000000000000000600161138b565b5f610e10611343611434565b8360405161190160f01b8152600281019290925260228201526042902090565b5f805f80611371868661155d565b92509250925061138182826115a6565b5090949350505050565b606060ff83146113a55761139e83611662565b9050610e10565b8180546113b190611c24565b80601f01602080910402602001604051908101604052809291908181526020018280546113dd90611c24565b80156114285780601f106113ff57610100808354040283529160200191611428565b820191905f5260205f20905b81548152906001019060200180831161140b57829003601f168201915b50505050509050610e10565b5f306001600160a01b037f00000000000000000000000000000000000000000000000000000000000000001614801561148c57507f000000000000000000000000000000000000000000000000000000000000000046145b156114b657507f000000000000000000000000000000000000000000000000000000000000000090565b611305604080517f8b73c3c69bb8fe3d512ecc4cf759cc79239f7b179b0ffacaa9a75d522b39400f60208201527f0000000000000000000000000000000000000000000000000000000000000000918101919091527f000000000000000000000000000000000000000000000000000000000000000060608201524660808201523060a08201525f9060c00160405160208183030381529060405280519060200120905090565b5f805f8351604103611594576020840151604085015160608601515f1a6115868882858561169f565b95509550955050505061159f565b505081515f91506002905b9250925092565b5f8260038111156115b9576115b9611de3565b036115c2575050565b60018260038111156115d6576115d6611de3565b036115f45760405163f645eedf60e01b815260040160405180910390fd5b600282600381111561160857611608611de3565b036116295760405163fce698f760e01b8152600481018290526024016103f4565b600382600381111561163d5761163d611de3565b0361165e576040516335e2f38360e21b8152600481018290526024016103f4565b5050565b60605f61166e83611767565b6040805160208082528183019092529192505f91906020820181803683375050509182525060208101929092525090565b5f80807f7fffffffffffffffffffffffffffffff5d576e7357a4501ddfe92f46681b20a08411156116d857505f9150600390508261175d565b604080515f808252602082018084528a905260ff891692820192909252606081018790526080810186905260019060a0016020604051602081039080840390855afa158015611729573d5f803e3d5ffd5b5050604051601f1901519150506001600160a01b03811661175457505f92506001915082905061175d565b92505f91508190505b9450945094915050565b5f60ff8216601f811115610e1057604051632cd44ac360e21b815260040160405180910390fd5b80356001600160a01b03811681146117a4575f80fd5b919050565b5f80604083850312156117ba575f80fd5b6117c38361178e565b946020939093013593505050565b5f8083601f8401126117e1575f80fd5b50813567ffffffffffffffff8111156117f8575f80fd5b60208301915083602082850101111561180f575f80fd5b9250929050565b5f805f805f805f8060a0898b03121561182d575f80fd5b6118368961178e565b9750602089013567ffffffffffffffff80821115611852575f80fd5b61185e8c838d016117d1565b909950975060408b0135915080821115611876575f80fd5b6118828c838d016117d1565b909750955060608b0135945060808b01359150808211156118a1575f80fd5b506118ae8b828c016117d1565b999c989b5096995094979396929594505050565b5f602082840312156118d2575f80fd5b5035919050565b5f81518084525f5b818110156118fd576020818501810151868301820152016118e1565b505f602082860101526020601f19601f83011685010191505092915050565b6001600160a01b0388811682528716602082015260e0604082018190525f90611947908301886118d9565b828103606084015261195981886118d9565b6080840196909652505060a0810192909252151560c090910152949350505050565b8715158152861515602082015285151560408201526001600160a01b0385811660608301528416608082015260e060a082018190525f906119be908301856118d9565b90508260c083015298975050505050505050565b60ff60f81b881681525f602060e060208401526119f260e084018a6118d9565b8381036040850152611a04818a6118d9565b606085018990526001600160a01b038816608086015260a0850187905284810360c0860152855180825260208088019350909101905f5b81811015611a5757835183529284019291840191600101611a3b565b50909c9b505050505050505050505050565b5f60208284031215611a79575f80fd5b611a828261178e565b9392505050565b5f805f8060808587031215611a9c575f80fd5b611aa58561178e565b966020860135965060408601359560600135945092505050565b602080825282518282018190525f9190848201906040850190845b81811015611af657835183529284019291840191600101611ada565b50909695505050505050565b602081525f60018060a01b0380845116602084015280602085015116604084015250604083015160e06060840152611b3e6101008401826118d9565b90506060840151601f19848303016080850152611b5b82826118d9565b915050608084015160a084015260a084015160c084015260c0840151151560e08401528091505092915050565b5f60208284031215611b98575f80fd5b5051919050565b5f60208284031215611baf575f80fd5b81518015158114611a82575f80fd5b5f6bffffffffffffffffffffffff19808a60601b168352808960601b1660148401525085876028840137858201602881015f815285878237506028940193840192909252505060480195945050505050565b634e487b7160e01b5f52604160045260245ffd5b600181811c90821680611c3857607f821691505b602082108103611c5657634e487b7160e01b5f52602260045260245ffd5b50919050565b601f821115611ca357805f5260205f20601f840160051c81016020851015611c815750805b601f840160051c820191505b81811015611ca0575f8155600101611c8d565b50505b505050565b815167ffffffffffffffff811115611cc257611cc2611c10565b611cd681611cd08454611c24565b84611c5c565b602080601f831160018114611d09575f8415611cf25750858301515b5f19600386901b1c1916600185901b178555611d60565b5f85815260208120601f198616915b82811015611d3757888601518255948401946001909101908401611d18565b5085821015611d5457878501515f19600388901b60f8161c191681555b505060018460011b0185555b505050505050565b60208152816020820152818360408301375f818301604090810191909152601f909201601f19160101919050565b634e487b7160e01b5f52601160045260245ffd5b80820180821115610e1057610e10611d96565b8082028115828204841417610e1057610e10611d96565b818382375f9101908152919050565b634e487b7160e01b5f52602160045260245ffdfea2646970667358221220d76ce3ac32b7d0898f6089f65d9d8e41682c7be3d0dc06d7fd24a54d7d4cde9864736f6c63430008180033",
  "linkReferences": {},
  "deployedLinkReferences": {}
}