{
  "_format": "hh-sol-artifact-1",
  "contractName": "RoleManager",
  "sourceName": "contracts/RoleManager.sol",
  "abi": [
    {
      "inputs": [],
      "stateMutability": "nonpayable",
      "type": "constructor"
    },
    {
      "inputs": [],
      "name": "AccessControlBadConfirmation",
      "type": "error"
    },
    {
      "inputs": [
        {
          "internalType": "address",
          "name": "account",
          "type": "address"
        },
        {
          "internalType": "bytes32",
          "name": "neededRole",
          "type": "bytes32"
        }
      ],
      "name": "AccessControlUnauthorizedAccount",
      "type": "error"
    },
    {
      "anonymous": false,
      "inputs": [
        {
          "indexed": true,
          "internalType": "bytes32",
          "name": "role",
          "type": "bytes32"
        },
        {
          "indexed": true,
          "internalType": "bytes32",
          "name": "previousAdminRole",
          "type": "bytes32"
        },
        {
          "indexed": true,
          "internalType": "bytes32",
          "name": "newAdminRole",
          "type": "bytes32"
        }
      ],
      "name": "RoleAdminChanged",
      "type": "event"
    },
    {
      "anonymous": false,
      "inputs": [
        {
          "indexed": true,
          "internalType": "address",
          "name": "user",
          "type": "address"
        },
        {
          "indexed": false,
          "internalType": "bytes32",
          "name": "role",
          "type": "bytes32"
        },
        {
          "indexed": true,
          "internalType": "address",
          "name": "assignedBy",
          "type": "address"
        }
      ],
      "name": "RoleAssigned",
      "type": "event"
    },
    {
      "anonymous": false,
      "inputs": [
        {
          "indexed": true,
          "internalType": "bytes32",
          "name": "role",
          "type": "bytes32"
        },
        {
          "indexed": true,
          "internalType": "address",
          "name": "account",
          "type": "address"
        },
        {
          "indexed": true,
          "internalType": "address",
          "name": "sender",
          "type": "address"
        }
      ],
      "name": "RoleGranted",
      "type": "event"
    },
    {
      "anonymous": false,
      "inputs": [
        {
          "indexed": true,
          "internalType": "bytes32",
          "name": "role",
          "type": "bytes32"
        },
        {
          "indexed": true,
          "internalType": "address",
          "name": "account",
          "type": "address"
        },
        {
          "indexed": true,
          "internalType": "address",
          "name": "sender",
          "type": "address"
        }
      ],
      "name": "RoleRevoked",
      "type": "event"
    },
    {
      "inputs": [],
      "name": "ADMIN_ROLE",
      "outputs": [
        {
          "internalType": "bytes32",
          "name": "",
          "type": "bytes32"
        }
      ],
      "stateMutability": "view",
      "type": "function"
    },
    {
      "inputs": [],
      "name": "APPROVER_ROLE",
      "outputs": [
        {
          "internalType": "bytes32",
          "name": "",
          "type": "bytes32"
        }
      ],
      "stateMutability": "view",
      "type": "function"
    },
    {
      "inputs": [],
      "name": "CITIZEN_ROLE",
      "outputs": [
        {
          "internalType": "bytes32",
          "name": "",
          "type": "bytes32"
        }
      ],
      "stateMutability": "view",
      "type": "function"
    },
    {
      "inputs": [],
      "name": "DEFAULT_ADMIN_ROLE",
      "outputs": [
        {
          "internalType": "bytes32",
          "name": "",
          "type": "bytes32"
        }
      ],
      "stateMutability": "view",
      "type": "function"
    },
    {
      "inputs": [],
      "name": "ISSUER_OFFICER_ROLE",
      "outputs": [
        {
          "internalType": "bytes32",
          "name": "",
          "type": "bytes32"
        }
      ],
      "stateMutability": "view",
      "type": "function"
    },
    {
      "inputs": [
        {
          "internalType": "address",
          "name": "user",
          "type": "address"
        },
        {
          "internalType": "enum RoleManager.Role",
          "name": "newRole",
          "type": "uint8"
        }
      ],
      "name": "assignRole",
      "outputs": [],
      "stateMutability": "nonpayable",
      "type": "function"
    },
    {
      "inputs": [
        {
          "internalType": "address",
          "name": "user",
          "type": "address"
        },
        {
          "internalType": "bytes32",
          "name": "role",
          "type": "bytes32"
        }
      ],
      "name": "checkRole",
      "outputs": [
        {
          "internalType": "bool",
          "name": "",
          "type": "bool"
        }
      ],
      "stateMutability": "view",
      "type": "function"
    },
    {
      "inputs": [
        {
          "internalType": "address",
          "name": "user",
          "type": "address"
        }
      ],
      "name": "getRole",
      "outputs": [
        {
          "internalType": "enum RoleManager.Role",
          "name": "",
          "type": "uint8"
        }
      ],
      "stateMutability": "view",
      "type": "function"
    },
    {
      "inputs": [
        {
          "internalType": "bytes32",
          "name": "role",
          "type": "bytes32"
        }
      ],
      "name": "getRoleAdmin",
      "outputs": [
        {
          "internalType": "bytes32",
          "name": "",
          "type": "bytes32"
        }
      ],
      "stateMutability": "view",
      "type": "function"
    },
    {
      "inputs": [
        {
          "internalType": "bytes32",
          "name": "role",
          "type": "bytes32"
        },
        {
          "internalType": "address",
          "name": "account",
          "type": "address"
        }
      ],
      "name": "grantRole",
      "outputs": [],
      "stateMutability": "nonpayable",
      "type": "function"
    },
    {
      "inputs": [
        {
          "internalType": "bytes32",
          "name": "role",
          "type": "bytes32"
        },
        {
          "internalType": "address",
          "name": "account",
          "type": "address"
        }
      ],
      "name": "hasRole",
      "outputs": [
        {
          "internalType": "bool",
          "name": "",
          "type": "bool"
        }
      ],
      "stateMutability": "view",
      "type": "function"
    },
    {
      "inputs": [
        {
          "internalType": "bytes32",
          "name": "role",
          "type": "bytes32"
        },
        {
          "internalType": "address",
          "name": "callerConfirmation",
          "type": "address"
        }
      ],
      "name": "renounceRole",
      "outputs": [],
      "stateMutability": "nonpayable",
      "type": "function"
    },
    {
      "inputs": [
        {
          "internalType": "bytes32",
          "name": "role",
          "type": "bytes32"
        },
        {
          "internalType": "address",
          "name": "account",
          "type": "address"
        }
      ],
      "name": "revokeRole",
      "outputs": [],
      "stateMutability": "nonpayable",
      "type": "function"
    },
    {
      "inputs": [
        {
          "internalType": "bytes4",
          "name": "interfaceId",
          "type": "bytes4"
        }
      ],
      "name": "supportsInterface",
      "outputs": [
        {
          "internalType": "bool",
          "name": "",
          "type": "bool"
        }
      ],
      "stateMutability": "view",
      "type": "function"
    }
  ],
  "bytecode": "0x608060405234801561000f575f80fd5b5061001a5f3361004b565b506100457fa49807205ce4d355092ef5a8a18f56e8913cf4a201fbe287825b095693c217753361004b565b506100f4565b5f828152602081815260408083206001600160a01b038516845290915281205460ff166100eb575f838152602081815260408083206001600160a01b03861684529091529020805460ff191660011790556100a33390565b6001600160a01b0316826001600160a01b0316847f2f8788117e7eff1d82e926ec794901d17c78024a50270940304540a733656f0d60405160405180910390a45060016100ee565b505f5b92915050565b6108f8806101015f395ff3fe608060405234801561000f575f80fd5b50600436106100e5575f3560e01c80634427673311610088578063802292731161006357806380229273146101eb57806391d14854146101ff578063a217fddf14610212578063d547741f14610219575f80fd5b806344276733146101a4578063630a195b146101c457806375b238fc146101d7575f80fd5b80632b9e1d70116100c35780632b9e1d70146101545780632f2ff15d1461016857806336568abe1461017d5780634245962b14610190575f80fd5b806301ffc9a7146100e9578063248a9ca3146101115780632ae8a7e314610141575b5f80fd5b6100fc6100f736600461070c565b61022c565b60405190151581526020015b60405180910390f35b61013361011f366004610733565b5f9081526020819052604090206001015490565b604051908152602001610108565b6100fc61014f366004610765565b610262565b6101335f805160206108a383398151915281565b61017b61017636600461078d565b610274565b005b61017b61018b36600461078d565b61029e565b6101335f8051602061084383398151915281565b6101b76101b23660046107b7565b6102d6565b60405161010891906107e4565b61017b6101d236600461080a565b61034a565b6101335f8051602061088383398151915281565b6101335f8051602061086383398151915281565b6100fc61020d36600461078d565b6104de565b6101335f81565b61017b61022736600461078d565b610506565b5f6001600160e01b03198216637965db0b60e01b148061025c57506301ffc9a760e01b6001600160e01b03198316145b92915050565b5f61026d82846104de565b9392505050565b5f8281526020819052604090206001015461028e8161052a565b6102988383610537565b50505050565b6001600160a01b03811633146102c75760405163334bd91960e11b815260040160405180910390fd5b6102d182826105c6565b505050565b5f6102ee5f80516020610883833981519152836104de565b156102fb57506003919050565b6103125f80516020610843833981519152836104de565b1561031f57506002919050565b6103365f80516020610863833981519152836104de565b1561034357506001919050565b505f919050565b5f805160206108838339815191526103618161052a565b6103785f805160206108a3833981519152846105c6565b506103905f80516020610863833981519152846105c6565b506103a85f80516020610843833981519152846105c6565b506103c05f80516020610883833981519152846105c6565b505f8260038111156103d4576103d46107d0565b036103f6576103f05f805160206108a383398151915284610537565b50610493565b600182600381111561040a5761040a6107d0565b03610426576103f05f8051602061086383398151915284610537565b600282600381111561043a5761043a6107d0565b03610456576103f05f8051602061084383398151915284610537565b600382600381111561046a5761046a6107d0565b03610493576104865f8051602061088383398151915284610537565b506104915f84610537565b505b336001600160a01b0384167febf9259c6b2553f9ef6e6c2e2c9d58a93474b51af1769071d39cc70cc3c038776104c88561062f565b60405190815260200160405180910390a3505050565b5f918252602082815260408084206001600160a01b0393909316845291905290205460ff1690565b5f828152602081905260409020600101546105208161052a565b61029883836105c6565b61053481336106cb565b50565b5f61054283836104de565b6105bf575f838152602081815260408083206001600160a01b03861684529091529020805460ff191660011790556105773390565b6001600160a01b0316826001600160a01b0316847f2f8788117e7eff1d82e926ec794901d17c78024a50270940304540a733656f0d60405160405180910390a450600161025c565b505f61025c565b5f6105d183836104de565b156105bf575f838152602081815260408083206001600160a01b0386168085529252808320805460ff1916905551339286917ff6391f5c32d9c69d2a47ea670b442974b53935d1edc7fd64eb21e047a839171b9190a450600161025c565b5f6003826003811115610644576106446107d0565b0361065d57505f80516020610883833981519152919050565b6002826003811115610671576106716107d0565b0361068a57505f80516020610843833981519152919050565b600182600381111561069e5761069e6107d0565b036106b757505f80516020610863833981519152919050565b505f805160206108a3833981519152919050565b6106d582826104de565b6107085760405163e2517d3f60e01b81526001600160a01b03821660048201526024810183905260440160405180910390fd5b5050565b5f6020828403121561071c575f80fd5b81356001600160e01b03198116811461026d575f80fd5b5f60208284031215610743575f80fd5b5035919050565b80356001600160a01b0381168114610760575f80fd5b919050565b5f8060408385031215610776575f80fd5b61077f8361074a565b946020939093013593505050565b5f806040838503121561079e575f80fd5b823591506107ae6020840161074a565b90509250929050565b5f602082840312156107c7575f80fd5b61026d8261074a565b634e487b7160e01b5f52602160045260245ffd5b602081016004831061080457634e487b7160e01b5f52602160045260245ffd5b91905290565b5f806040838503121561081b575f80fd5b6108248361074a565b9150602083013560048110610837575f80fd5b80915050925092905056fe408a36151f841709116a4e8aca4e0202874f7f54687dcb863b1ea4672dc9d8cf784f6a01094e895845816de1983e8c1280798bd58a4ba6439f76ffb015d6bafea49807205ce4d355092ef5a8a18f56e8913cf4a201fbe287825b095693c217758f1426173eb922d2001706a308dabfa96e3c06475230fb5111184f70a4b5776da26469706673582212208ffefdec0a8ddb07d78f880be7b0d21af9e58b9cfca51a24a5a3b8e41a68a07964736f6c63430008180033",
  "linkReferences": {},
  "deployedLinkReferences": {}
}