{
  "_format": "hh-sol-artifact-1",
  "contractName": "RoleManager",
  "sourceName": "contracts/RoleManager.sol",
  "abi": [
    {
      "inputs": [],
      "stateMutability": "nonpayable",
      "type": "constructor"
    },
    {
      "anonymous": false,
      "inputs": [
        {
          "indexed": true,
          "internalType": "address",
          "name": "user",
          "type": "address"
        },
        {
          "indexed": false,
          "internalType": "enum RoleManager.Role",
          "name": "newRole",
          "type": "uint8"
        },
        {
          "indexed": true,
          "internalType": "address",
          "name": "assignedBy",
          "type": "address"
        }
      ],
      "name": "RoleAssigned",
      "type": "event"
    },
    {
      "inputs": [
        {
          "internalType": "address",
          "name": "user",
          "type": "address"
        },
        {
          "internalType": "enum RoleManager.Role",
          "name": "newRole",
          "type": "uint8"
        }
      ],
      "name": "assignRole",
      "outputs": [],
      "stateMutability": "nonpayable",
      "type": "function"
    },
    {
      "inputs": [
        {
          "internalType": "address",
          "name": "user",
          "type": "address"
        },
        {
          "internalType": "enum RoleManager.Role",
          "name": "_role",
          "type": "uint8"
        }
      ],
      "name": "hasRole",
      "outputs": [
        {
          "internalType": "bool",
          "name": "",
          "type": "bool"
        }
      ],
      "stateMutability": "view",
      "type": "function"
    },
    {
      "inputs": [
        {
          "internalType": "address",
          "name": "",
          "type": "address"
        }
      ],
      "name": "roles",
      "outputs": [
        {
          "internalType": "enum RoleManager.Role",
          "name": "",
          "type": "uint8"
        }
      ],
      "stateMutability": "view",
      "type": "function"
    }
  ],
  "bytecode": "0x608060405234801561001057600080fd5b5060036000803373ffffffffffffffffffffffffffffffffffffffff1673ffffffffffffffffffffffffffffffffffffffff16815260200190815260200160002060006101000a81548160ff02191690836003811115610073576100726100e3565b5b02179055503373ffffffffffffffffffffffffffffffffffffffff163373ffffffffffffffffffffffffffffffffffffffff167f2459ac88ac07c4020108de12f1f8675bbf7e6928b4cfc156bde4727aacf7897360036040516100d6919061015a565b60405180910390a3610175565b7f4e487b7100000000000000000000000000000000000000000000000000000000600052602160045260246000fd5b60048110610123576101226100e3565b5b50565b600081905061013482610112565b919050565b600061014482610126565b9050919050565b61015481610139565b82525050565b600060208201905061016f600083018461014b565b92915050565b610551806101846000396000f3fe608060405234801561001057600080fd5b50600436106100415760003560e01c8063630a195b1461004657806395a8c58d146100625780639937464214610092575b600080fd5b610060600480360381019061005b9190610369565b6100c2565b005b61007c60048036038101906100779190610369565b610245565b60405161008991906103c4565b60405180910390f35b6100ac60048036038101906100a791906103df565b6102c1565b6040516100b99190610483565b60405180910390f35b60038060038111156100d7576100d661040c565b5b6000803373ffffffffffffffffffffffffffffffffffffffff1673ffffffffffffffffffffffffffffffffffffffff16815260200190815260200160002060009054906101000a900460ff1660038111156101355761013461040c565b5b14610175576040517f08c379a000000000000000000000000000000000000000000000000000000000815260040161016c906104fb565b60405180910390fd5b816000808573ffffffffffffffffffffffffffffffffffffffff1673ffffffffffffffffffffffffffffffffffffffff16815260200190815260200160002060006101000a81548160ff021916908360038111156101d6576101d561040c565b5b02179055503373ffffffffffffffffffffffffffffffffffffffff168373ffffffffffffffffffffffffffffffffffffffff167f2459ac88ac07c4020108de12f1f8675bbf7e6928b4cfc156bde4727aacf78973846040516102389190610483565b60405180910390a3505050565b600081600381111561025a5761025961040c565b5b6000808573ffffffffffffffffffffffffffffffffffffffff1673ffffffffffffffffffffffffffffffffffffffff16815260200190815260200160002060009054906101000a900460ff1660038111156102b8576102b761040c565b5b14905092915050565b60006020528060005260406000206000915054906101000a900460ff1681565b600080fd5b600073ffffffffffffffffffffffffffffffffffffffff82169050919050565b6000610311826102e6565b9050919050565b61032181610306565b811461032c57600080fd5b50565b60008135905061033e81610318565b92915050565b6004811061035157600080fd5b50565b60008135905061036381610344565b92915050565b600080604083850312156103805761037f6102e1565b5b600061038e8582860161032f565b925050602061039f85828601610354565b9150509250929050565b60008115159050919050565b6103be816103a9565b82525050565b60006020820190506103d960008301846103b5565b92915050565b6000602082840312156103f5576103f46102e1565b5b60006104038482850161032f565b91505092915050565b7f4e487b7100000000000000000000000000000000000000000000000000000000600052602160045260246000fd5b6004811061044c5761044b61040c565b5b50565b600081905061045d8261043b565b919050565b600061046d8261044f565b9050919050565b61047d81610462565b82525050565b60006020820190506104986000830184610474565b92915050565b600082825260208201905092915050565b7f526f6c654d616e616765723a20556e617574686f72697a656420616363657373600082015250565b60006104e560208361049e565b91506104f0826104af565b602082019050919050565b60006020820190508181036000830152610514816104d8565b905091905056fea2646970667358221220c5d48a333640968d69b76bcb1d5f15c315ec79376c21656395e7acb724d2bd3e64736f6c63430008140033",
  "linkReferences": {},
  "deployedLinkReferences": {}
}